{
	"data": {
		"bytecode": {
			"linkReferences": {},
			"object": "60806040523480156200001157600080fd5b5060405162005d2738038062005d27833981810160405281019062000037919062000316565b6040518060400160405280600b81526020017f4d657461506c61796572730000000000000000000000000000000000000000008152506040518060400160405280600381526020017f4d545000000000000000000000000000000000000000000000000000000000008152508160009080519060200190620000bb9291906200024f565b508060019080519060200190620000d49291906200024f565b505050620000f7620000eb6200018160201b60201c565b6200018960201b60201c565b81600e60006101000a81548173ffffffffffffffffffffffffffffffffffffffff021916908373ffffffffffffffffffffffffffffffffffffffff16021790555080600f60006101000a81548173ffffffffffffffffffffffffffffffffffffffff021916908373ffffffffffffffffffffffffffffffffffffffff160217905550505062000415565b600033905090565b6000600a60009054906101000a900473ffffffffffffffffffffffffffffffffffffffff16905081600a60006101000a81548173ffffffffffffffffffffffffffffffffffffffff021916908373ffffffffffffffffffffffffffffffffffffffff1602179055508173ffffffffffffffffffffffffffffffffffffffff168173ffffffffffffffffffffffffffffffffffffffff167f8be0079c531659141344cd1fd0a4f28419497f9722a3daafe3b4186f6b6457e060405160405180910390a35050565b8280546200025d9062000391565b90600052602060002090601f016020900481019282620002815760008555620002cd565b82601f106200029c57805160ff1916838001178555620002cd565b82800160010185558215620002cd579182015b82811115620002cc578251825591602001919060010190620002af565b5b509050620002dc9190620002e0565b5090565b5b80821115620002fb576000816000905550600101620002e1565b5090565b6000815190506200031081620003fb565b92915050565b6000806040838503121562000330576200032f620003f6565b5b60006200034085828601620002ff565b92505060206200035385828601620002ff565b9150509250929050565b60006200036a8262000371565b9050919050565b600073ffffffffffffffffffffffffffffffffffffffff82169050919050565b60006002820490506001821680620003aa57607f821691505b60208210811415620003c157620003c0620003c7565b5b50919050565b7f4e487b7100000000000000000000000000000000000000000000000000000000600052602260045260246000fd5b600080fd5b62000406816200035d565b81146200041257600080fd5b50565b61590280620004256000396000f3fe6080604052600436106101b75760003560e01c806395d89b41116100ec578063d69f6bae1161008a578063e985e9c511610064578063e985e9c51461063a578063e9ace64814610677578063ea17532e146106a0578063f2fde38b146106dd576101b7565b8063d69f6bae146105b5578063dca06da7146105e1578063dfefc7761461060a576101b7565b8063ae64c2cf116100c6578063ae64c2cf146104f9578063b88d4fde14610524578063c002d23d1461054d578063c87b56dd14610578576101b7565b806395d89b41146104685780639c3f523714610493578063a22cb465146104d0576101b7565b806342842e0e1161015957806370a082311161013357806370a08231146103be578063715018a6146103fb578063889d92e7146104125780638da5cb5b1461043d576101b7565b806342842e0e1461031b5780634f6ccce7146103445780636352211e14610381576101b7565b8063095ea7b311610195578063095ea7b31461026157806318160ddd1461028a57806323b872dd146102b55780632f745c59146102de576101b7565b806301ffc9a7146101bc57806306fdde03146101f9578063081812fc14610224575b600080fd5b3480156101c857600080fd5b506101e360048036038101906101de9190613e2a565b610706565b6040516101f09190614770565b60405180910390f35b34801561020557600080fd5b5061020e610780565b60405161021b919061478b565b60405180910390f35b34801561023057600080fd5b5061024b60048036038101906102469190613eb1565b610812565b604051610258919061468e565b60405180910390f35b34801561026d57600080fd5b5061028860048036038101906102839190613daa565b610897565b005b34801561029657600080fd5b5061029f6109af565b6040516102ac9190614bfe565b60405180910390f35b3480156102c157600080fd5b506102dc60048036038101906102d79190613c94565b6109bc565b005b3480156102ea57600080fd5b5061030560048036038101906103009190613daa565b610a1c565b6040516103129190614bfe565b60405180910390f35b34801561032757600080fd5b50610342600480360381019061033d9190613c94565b610ac1565b005b34801561035057600080fd5b5061036b60048036038101906103669190613eb1565b610ae1565b6040516103789190614bfe565b60405180910390f35b34801561038d57600080fd5b506103a860048036038101906103a39190613eb1565b610b52565b6040516103b5919061468e565b60405180910390f35b3480156103ca57600080fd5b506103e560048036038101906103e09190613bfa565b610c04565b6040516103f29190614bfe565b60405180910390f35b34801561040757600080fd5b50610410610cbc565b005b34801561041e57600080fd5b50610427610d44565b6040516104349190614bfe565b60405180910390f35b34801561044957600080fd5b50610452610d4a565b60405161045f919061468e565b60405180910390f35b34801561047457600080fd5b5061047d610d74565b60405161048a919061478b565b60405180910390f35b34801561049f57600080fd5b506104ba60048036038101906104b59190613f0b565b610e06565b6040516104c79190614bad565b60405180910390f35b3480156104dc57600080fd5b506104f760048036038101906104f29190613d6a565b6114a5565b005b34801561050557600080fd5b5061050e6114bb565b60405161051b9190614bfe565b60405180910390f35b34801561053057600080fd5b5061054b60048036038101906105469190613ce7565b6114c1565b005b34801561055957600080fd5b50610562611523565b60405161056f9190614bfe565b60405180910390f35b34801561058457600080fd5b5061059f600480360381019061059a9190613eb1565b61152f565b6040516105ac919061478b565b60405180910390f35b3480156105c157600080fd5b506105ca611bfb565b6040516105d8929190614c19565b60405180910390f35b3480156105ed57600080fd5b5061060860048036038101906106039190613eb1565b611c1a565b005b610624600480360381019061061f9190613dea565b611f8e565b6040516106319190614bad565b60405180910390f35b34801561064657600080fd5b50610661600480360381019061065c9190613c54565b612448565b60405161066e9190614770565b60405180910390f35b34801561068357600080fd5b5061069e60048036038101906106999190613eb1565b6124dc565b005b3480156106ac57600080fd5b506106c760048036038101906106c29190613eb1565b61285a565b6040516106d49190614bad565b60405180910390f35b3480156106e957600080fd5b5061070460048036038101906106ff9190613bfa565b6128d4565b005b60007f780e9d63000000000000000000000000000000000000000000000000000000007bffffffffffffffffffffffffffffffffffffffffffffffffffffffff1916827bffffffffffffffffffffffffffffffffffffffffffffffffffffffff191614806107795750610778826129cc565b5b9050919050565b60606000805461078f90614e5f565b80601f01602080910402602001604051908101604052809291908181526020018280546107bb90614e5f565b80156108085780601f106107dd57610100808354040283529160200191610808565b820191906000526020600020905b8154815290600101906020018083116107eb57829003601f168201915b5050505050905090565b600061081d82612aae565b61085c576040517f08c379a000000000000000000000000000000000000000000000000000000000815260040161085390614a6d565b60405180910390fd5b6004600083815260200190815260200160002060009054906101000a900473ffffffffffffffffffffffffffffffffffffffff169050919050565b60006108a282610b52565b90508073ffffffffffffffffffffffffffffffffffffffff168373ffffffffffffffffffffffffffffffffffffffff161415610913576040517f08c379a000000000000000000000000000000000000000000000000000000000815260040161090a90614aed565b60405180910390fd5b8073ffffffffffffffffffffffffffffffffffffffff16610932612b1a565b73ffffffffffffffffffffffffffffffffffffffff16148061096157506109608161095b612b1a565b612448565b5b6109a0576040517f08c379a00000000000000000000000000000000000000000000000000000000081526004016109979061496d565b60405180910390fd5b6109aa8383612b22565b505050565b6000600880549050905090565b6109cd6109c7612b1a565b82612bdb565b610a0c576040517f08c379a0000000000000000000000000000000000000000000000000000000008152600401610a0390614b0d565b60405180910390fd5b610a17838383612cb9565b505050565b6000610a2783610c04565b8210610a68576040517f08c379a0000000000000000000000000000000000000000000000000000000008152600401610a5f906147ad565b60405180910390fd5b600660008473ffffffffffffffffffffffffffffffffffffffff1673ffffffffffffffffffffffffffffffffffffffff168152602001908152602001600020600083815260200190815260200160002054905092915050565b610adc838383604051806020016040528060008152506114c1565b505050565b6000610aeb6109af565b8210610b2c576040517f08c379a0000000000000000000000000000000000000000000000000000000008152600401610b2390614b4d565b60405180910390fd5b60088281548110610b4057610b3f614ffd565b5b90600052602060002001549050919050565b6000806002600084815260200190815260200160002060009054906101000a900473ffffffffffffffffffffffffffffffffffffffff169050600073ffffffffffffffffffffffffffffffffffffffff168173ffffffffffffffffffffffffffffffffffffffff161415610bfb576040517f08c379a0000000000000000000000000000000000000000000000000000000008152600401610bf2906149cd565b60405180910390fd5b80915050919050565b60008073ffffffffffffffffffffffffffffffffffffffff168273ffffffffffffffffffffffffffffffffffffffff161415610c75576040517f08c379a0000000000000000000000000000000000000000000000000000000008152600401610c6c9061498d565b60405180910390fd5b600360008373ffffffffffffffffffffffffffffffffffffffff1673ffffffffffffffffffffffffffffffffffffffff168152602001908152602001600020549050919050565b610cc4612b1a565b73ffffffffffffffffffffffffffffffffffffffff16610ce2610d4a565b73ffffffffffffffffffffffffffffffffffffffff1614610d38576040517f08c379a0000000000000000000000000000000000000000000000000000000008152600401610d2f90614a8d565b60405180910390fd5b610d426000612f15565b565b61138881565b6000600a60009054906101000a900473ffffffffffffffffffffffffffffffffffffffff16905090565b606060018054610d8390614e5f565b80601f0160208091040260200160405190810160405280929190818152602001828054610daf90614e5f565b8015610dfc5780601f10610dd157610100808354040283529160200191610dfc565b820191906000526020600020905b815481529060010190602001808311610ddf57829003601f168201915b5050505050905090565b610e0e613a88565b60006010600085815260200190815260200160002090506000601060008581526020019081526020016000209050610e4585612aae565b8015610e565750610e5584612aae565b5b610e95576040517f08c379a0000000000000000000000000000000000000000000000000000000008152600401610e8c9061492d565b60405180910390fd5b3373ffffffffffffffffffffffffffffffffffffffff16610eb586610b52565b73ffffffffffffffffffffffffffffffffffffffff16148015610f0b57503373ffffffffffffffffffffffffffffffffffffffff16610ef385610b52565b73ffffffffffffffffffffffffffffffffffffffff16145b610f1457600080fd5b8060000160009054906101000a900460ff1615158260000160009054906101000a900460ff1615151415610f7d576040517f08c379a0000000000000000000000000000000000000000000000000000000008152600401610f749061494d565b60405180910390fd5b620d2f00826004015442610f919190614d26565b10158015610fb15750620d2f00816004015442610fae9190614d26565b10155b610ff0576040517f08c379a0000000000000000000000000000000000000000000000000000000008152600401610fe790614b2d565b60405180910390fd5b620d2f008260050154426110049190614d26565b1080156110225750620d2f008160050154426110209190614d26565b105b611061576040517f08c379a00000000000000000000000000000000000000000000000000000000081526004016110589061484d565b60405180910390fd5b60008260030154426110739190614d26565b905060008260030154426110879190614d26565b9050624f1a008211801561109d57506276a70082105b80156110ab5750624f1a0081115b80156110b957506276a70081105b6110f8576040517f08c379a00000000000000000000000000000000000000000000000000000000081526004016110ef90614a2d565b60405180910390fd5b6000600e60009054906101000a900473ffffffffffffffffffffffffffffffffffffffff1673ffffffffffffffffffffffffffffffffffffffff16631a4fb5256040518163ffffffff1660e01b815260040160206040518083038186803b15801561116257600080fd5b505afa158015611176573d6000803e3d6000fd5b505050506040513d601f19601f8201168201806040525081019061119a9190613c27565b90506111a6600b612fdb565b6111b9336111b4600b612ff1565b612fff565b6000806111c461301d565b905060006002826111d59190614f10565b14156111e057600191505b60008373ffffffffffffffffffffffffffffffffffffffff166311372e426040518163ffffffff1660e01b815260040160206040518083038186803b15801561122857600080fd5b505afa15801561123c573d6000803e3d6000fd5b505050506040513d601f19601f820116820180604052508101906112609190613ede565b8261126b9190614f10565b905060008473ffffffffffffffffffffffffffffffffffffffff1663f91d443f836040518263ffffffff1660e01b81526004016112a89190614bfe565b60206040518083038186803b1580156112c057600080fd5b505afa1580156112d4573d6000803e3d6000fd5b505050506040513d601f19601f820116820180604052508101906112f89190613e84565b90504289600401819055504288600401819055506040518060c00160405280851515815260200183815260200182815260200142815260200160008152602001428152506010600061134a600b612ff1565b815260200190815260200160002060008201518160000160006101000a81548160ff0219169083151502179055506020820151816001015560408201518160020155606082015181600301556080820151816004015560a082015181600501559050503373ffffffffffffffffffffffffffffffffffffffff166113ce600b612ff1565b7ff3dafa201b293af34b31521a82fe34a6e291eef2f203189dca10838e0c30d820601060006113fd600b612ff1565b81526020019081526020016000206040516114189190614bc8565b60405180910390a36010600061142e600b612ff1565b81526020019081526020016000206040518060c00160405290816000820160009054906101000a900460ff1615151515815260200160018201548152602001600282015481526020016003820154815260200160048201548152602001600582015481525050995050505050505050505092915050565b6114b76114b0612b1a565b8383613063565b5050565b61138881565b6114d26114cc612b1a565b83612bdb565b611511576040517f08c379a000000000000000000000000000000000000000000000000000000000815260040161150890614b0d565b60405180910390fd5b61151d848484846131d0565b50505050565b670de0b6b3a764000081565b606061153a82612aae565b611579576040517f08c379a0000000000000000000000000000000000000000000000000000000008152600401611570906148ad565b60405180910390fd5b600060106000848152602001908152602001600020905060008160030154426115a29190614d26565b9050629e3400811080156115c75750621e52808260050154426115c59190614d26565b105b15611b54578160000160009054906101000a900460ff161561189b576276a700811115611694576011600060038152602001908152602001600020805461160d90614e5f565b80601f016020809104026020016040519081016040528092919081815260200182805461163990614e5f565b80156116865780601f1061165b57610100808354040283529160200191611686565b820191906000526020600020905b81548152906001019060200180831161166957829003601f168201915b505050505092505050611bf6565b624f1a0081111561174557601160006002815260200190815260200160002080546116be90614e5f565b80601f01602080910402602001604051908101604052809291908181526020018280546116ea90614e5f565b80156117375780601f1061170c57610100808354040283529160200191611737565b820191906000526020600020905b81548152906001019060200180831161171a57829003601f168201915b505050505092505050611bf6565b62278d008111156117f6576011600060018152602001908152602001600020805461176f90614e5f565b80601f016020809104026020016040519081016040528092919081815260200182805461179b90614e5f565b80156117e85780601f106117bd576101008083540402835291602001916117e8565b820191906000526020600020905b8154815290600101906020018083116117cb57829003601f168201915b505050505092505050611bf6565b60116000808152602001908152602001600020805461181490614e5f565b80601f016020809104026020016040519081016040528092919081815260200182805461184090614e5f565b801561188d5780601f106118625761010080835404028352916020019161188d565b820191906000526020600020905b81548152906001019060200180831161187057829003601f168201915b505050505092505050611bf6565b6276a70081111561194c57601160006007815260200190815260200160002080546118c590614e5f565b80601f01602080910402602001604051908101604052809291908181526020018280546118f190614e5f565b801561193e5780601f106119135761010080835404028352916020019161193e565b820191906000526020600020905b81548152906001019060200180831161192157829003601f168201915b505050505092505050611bf6565b624f1a008111156119fd576011600060068152602001908152602001600020805461197690614e5f565b80601f01602080910402602001604051908101604052809291908181526020018280546119a290614e5f565b80156119ef5780601f106119c4576101008083540402835291602001916119ef565b820191906000526020600020905b8154815290600101906020018083116119d257829003601f168201915b505050505092505050611bf6565b62278d00811115611aae5760116000600581526020019081526020016000208054611a2790614e5f565b80601f0160208091040260200160405190810160405280929190818152602001828054611a5390614e5f565b8015611aa05780601f10611a7557610100808354040283529160200191611aa0565b820191906000526020600020905b815481529060010190602001808311611a8357829003601f168201915b505050505092505050611bf6565b60116000600481526020019081526020016000208054611acd90614e5f565b80601f0160208091040260200160405190810160405280929190818152602001828054611af990614e5f565b8015611b465780601f10611b1b57610100808354040283529160200191611b46565b820191906000526020600020905b815481529060010190602001808311611b2957829003601f168201915b505050505092505050611bf6565b60116000600881526020019081526020016000208054611b7390614e5f565b80601f0160208091040260200160405190810160405280929190818152602001828054611b9f90614e5f565b8015611bec5780601f10611bc157610100808354040283529160200191611bec565b820191906000526020600020905b815481529060010190602001808311611bcf57829003601f168201915b5050505050925050505b919050565b600080611c08600c612ff1565b611c12600d612ff1565b915091509091565b611c2381612aae565b611c62576040517f08c379a0000000000000000000000000000000000000000000000000000000008152600401611c59906148cd565b60405180910390fd5b6064600f60009054906101000a900473ffffffffffffffffffffffffffffffffffffffff1673ffffffffffffffffffffffffffffffffffffffff166370a08231336040518263ffffffff1660e01b8152600401611cbf919061468e565b60206040518083038186803b158015611cd757600080fd5b505afa158015611ceb573d6000803e3d6000fd5b505050506040513d601f19601f82011682018060405250810190611d0f9190613ede565b1015611d50576040517f08c379a0000000000000000000000000000000000000000000000000000000008152600401611d4790614a0d565b60405180910390fd5b6064600f60009054906101000a900473ffffffffffffffffffffffffffffffffffffffff1673ffffffffffffffffffffffffffffffffffffffff1663dd62ed3e33306040518363ffffffff1660e01b8152600401611daf9291906146a9565b60206040518083038186803b158015611dc757600080fd5b505afa158015611ddb573d6000803e3d6000fd5b505050506040513d601f19601f82011682018060405250810190611dff9190613ede565b1015611e40576040517f08c379a0000000000000000000000000000000000000000000000000000000008152600401611e3790614aad565b60405180910390fd5b6000601060008381526020019081526020016000209050621a5e00816005015442611e6b9190614d26565b11611eab576040517f08c379a0000000000000000000000000000000000000000000000000000000008152600401611ea290614b8d565b60405180910390fd5b600f60009054906101000a900473ffffffffffffffffffffffffffffffffffffffff1673ffffffffffffffffffffffffffffffffffffffff166379cc67903360646040518363ffffffff1660e01b8152600401611f0992919061471e565b600060405180830381600087803b158015611f2357600080fd5b505af1158015611f37573d6000803e3d6000fd5b505050503373ffffffffffffffffffffffffffffffffffffffff16827f6f7a49a22abd119415401b35bbfeae26a8c978df5a985c2d01cce147275bc5d083604051611f829190614be3565b60405180910390a35050565b611f96613a88565b8215611ff857611388611fa9600c612ff1565b10611fe9576040517f08c379a0000000000000000000000000000000000000000000000000000000008152600401611fe0906149ad565b60405180910390fd5b611ff3600c612fdb565b612050565b611388612005600d612ff1565b10612045576040517f08c379a000000000000000000000000000000000000000000000000000000000815260040161203c906147ed565b60405180910390fd5b61204f600d612fdb565b5b6000600e60009054906101000a900473ffffffffffffffffffffffffffffffffffffffff1673ffffffffffffffffffffffffffffffffffffffff16631a4fb5256040518163ffffffff1660e01b815260040160206040518083038186803b1580156120ba57600080fd5b505afa1580156120ce573d6000803e3d6000fd5b505050506040513d601f19601f820116820180604052508101906120f29190613c27565b90508073ffffffffffffffffffffffffffffffffffffffff166311372e426040518163ffffffff1660e01b815260040160206040518083038186803b15801561213a57600080fd5b505afa15801561214e573d6000803e3d6000fd5b505050506040513d601f19601f820116820180604052508101906121729190613ede565b83106121b3576040517f08c379a00000000000000000000000000000000000000000000000000000000081526004016121aa906149ed565b60405180910390fd5b670de0b6b3a76400003410156121fe576040517f08c379a00000000000000000000000000000000000000000000000000000000081526004016121f590614b6d565b60405180910390fd5b612208600b612fdb565b60008173ffffffffffffffffffffffffffffffffffffffff1663f91d443f856040518263ffffffff1660e01b81526004016122439190614bfe565b60206040518083038186803b15801561225b57600080fd5b505afa15801561226f573d6000803e3d6000fd5b505050506040513d601f19601f820116820180604052508101906122939190613e84565b90506040518060c001604052808615158152602001858152602001828152602001624f1a00426122c39190614d26565b81526020016000815260200142815250601060006122e1600b612ff1565b815260200190815260200160002060008201518160000160006101000a81548160ff0219169083151502179055506020820151816001015560408201518160020155606082015181600301556080820151816004015560a0820151816005015590505061235733612352600b612ff1565b612fff565b3373ffffffffffffffffffffffffffffffffffffffff16612378600b612ff1565b7f6d627ea064f66e7bb278b4a01b28c7ab24cbaeae11b0c5e434edc91db4d904c7601060006123a7600b612ff1565b81526020019081526020016000206040516123c29190614bc8565b60405180910390a3601060006123d8600b612ff1565b81526020019081526020016000206040518060c00160405290816000820160009054906101000a900460ff16151515158152602001600182015481526020016002820154815260200160038201548152602001600482015481526020016005820154815250509250505092915050565b6000600560008473ffffffffffffffffffffffffffffffffffffffff1673ffffffffffffffffffffffffffffffffffffffff16815260200190815260200160002060008373ffffffffffffffffffffffffffffffffffffffff1673ffffffffffffffffffffffffffffffffffffffff16815260200190815260200160002060009054906101000a900460ff16905092915050565b6124e581612aae565b612524576040517f08c379a000000000000000000000000000000000000000000000000000000000815260040161251b906148cd565b60405180910390fd5b6014600f60009054906101000a900473ffffffffffffffffffffffffffffffffffffffff1673ffffffffffffffffffffffffffffffffffffffff166370a08231336040518263ffffffff1660e01b8152600401612581919061468e565b60206040518083038186803b15801561259957600080fd5b505afa1580156125ad573d6000803e3d6000fd5b505050506040513d601f19601f820116820180604052508101906125d19190613ede565b1015612612576040517f08c379a000000000000000000000000000000000000000000000000000000000815260040161260990614a0d565b60405180910390fd5b6014600f60009054906101000a900473ffffffffffffffffffffffffffffffffffffffff1673ffffffffffffffffffffffffffffffffffffffff1663dd62ed3e33306040518363ffffffff1660e01b81526004016126719291906146a9565b60206040518083038186803b15801561268957600080fd5b505afa15801561269d573d6000803e3d6000fd5b505050506040513d601f19601f820116820180604052508101906126c19190613ede565b1015612702576040517f08c379a00000000000000000000000000000000000000000000000000000000081526004016126f990614aad565b60405180910390fd5b6000601060008381526020019081526020016000209050621a5e0081600501544261272d9190614d26565b111561276e576040517f08c379a00000000000000000000000000000000000000000000000000000000081526004016127659061490d565b60405180910390fd5b428160050181905550600f60009054906101000a900473ffffffffffffffffffffffffffffffffffffffff1673ffffffffffffffffffffffffffffffffffffffff166379cc67903360146040518363ffffffff1660e01b81526004016127d5929190614747565b600060405180830381600087803b1580156127ef57600080fd5b505af1158015612803573d6000803e3d6000fd5b505050503373ffffffffffffffffffffffffffffffffffffffff16827f0906cbf5d92215112150db031468ab9191dd94c3e405dee221ce6f797d34bf448360405161284e9190614be3565b60405180910390a35050565b612862613a88565b601060008381526020019081526020016000206040518060c00160405290816000820160009054906101000a900460ff16151515158152602001600182015481526020016002820154815260200160038201548152602001600482015481526020016005820154815250509050919050565b6128dc612b1a565b73ffffffffffffffffffffffffffffffffffffffff166128fa610d4a565b73ffffffffffffffffffffffffffffffffffffffff1614612950576040517f08c379a000000000000000000000000000000000000000000000000000000000815260040161294790614a8d565b60405180910390fd5b600073ffffffffffffffffffffffffffffffffffffffff168173ffffffffffffffffffffffffffffffffffffffff1614156129c0576040517f08c379a00000000000000000000000000000000000000000000000000000000081526004016129b79061480d565b60405180910390fd5b6129c981612f15565b50565b60007f80ac58cd000000000000000000000000000000000000000000000000000000007bffffffffffffffffffffffffffffffffffffffffffffffffffffffff1916827bffffffffffffffffffffffffffffffffffffffffffffffffffffffff19161480612a9757507f5b5e139f000000000000000000000000000000000000000000000000000000007bffffffffffffffffffffffffffffffffffffffffffffffffffffffff1916827bffffffffffffffffffffffffffffffffffffffffffffffffffffffff1916145b80612aa75750612aa68261322c565b5b9050919050565b60008073ffffffffffffffffffffffffffffffffffffffff166002600084815260200190815260200160002060009054906101000a900473ffffffffffffffffffffffffffffffffffffffff1673ffffffffffffffffffffffffffffffffffffffff1614159050919050565b600033905090565b816004600083815260200190815260200160002060006101000a81548173ffffffffffffffffffffffffffffffffffffffff021916908373ffffffffffffffffffffffffffffffffffffffff160217905550808273ffffffffffffffffffffffffffffffffffffffff16612b9583610b52565b73ffffffffffffffffffffffffffffffffffffffff167f8c5be1e5ebec7d5bd14f71427d1e84f3dd0314c0f7b2291e5b200ac8c7c3b92560405160405180910390a45050565b6000612be682612aae565b612c25576040517f08c379a0000000000000000000000000000000000000000000000000000000008152600401612c1c906148ed565b60405180910390fd5b6000612c3083610b52565b90508073ffffffffffffffffffffffffffffffffffffffff168473ffffffffffffffffffffffffffffffffffffffff161480612c9f57508373ffffffffffffffffffffffffffffffffffffffff16612c8784610812565b73ffffffffffffffffffffffffffffffffffffffff16145b80612cb05750612caf8185612448565b5b91505092915050565b8273ffffffffffffffffffffffffffffffffffffffff16612cd982610b52565b73ffffffffffffffffffffffffffffffffffffffff1614612d2f576040517f08c379a0000000000000000000000000000000000000000000000000000000008152600401612d2690614acd565b60405180910390fd5b600073ffffffffffffffffffffffffffffffffffffffff168273ffffffffffffffffffffffffffffffffffffffff161415612d9f576040517f08c379a0000000000000000000000000000000000000000000000000000000008152600401612d969061486d565b60405180910390fd5b612daa838383613296565b612db5600082612b22565b6001600360008573ffffffffffffffffffffffffffffffffffffffff1673ffffffffffffffffffffffffffffffffffffffff1681526020019081526020016000206000828254612e059190614d26565b925050819055506001600360008473ffffffffffffffffffffffffffffffffffffffff1673ffffffffffffffffffffffffffffffffffffffff1681526020019081526020016000206000828254612e5c9190614cd0565b92505081905550816002600083815260200190815260200160002060006101000a81548173ffffffffffffffffffffffffffffffffffffffff021916908373ffffffffffffffffffffffffffffffffffffffff160217905550808273ffffffffffffffffffffffffffffffffffffffff168473ffffffffffffffffffffffffffffffffffffffff167fddf252ad1be2c89b69c2b068fc378daa952ba7f163c4a11628f55a4df523b3ef60405160405180910390a4505050565b6000600a60009054906101000a900473ffffffffffffffffffffffffffffffffffffffff16905081600a60006101000a81548173ffffffffffffffffffffffffffffffffffffffff021916908373ffffffffffffffffffffffffffffffffffffffff1602179055508173ffffffffffffffffffffffffffffffffffffffff168173ffffffffffffffffffffffffffffffffffffffff167f8be0079c531659141344cd1fd0a4f28419497f9722a3daafe3b4186f6b6457e060405160405180910390a35050565b6001816000016000828254019250508190555050565b600081600001549050919050565b6130198282604051806020016040528060008152506133aa565b5050565b6000613027613ac0565b438160006001811061303c5761303b614ffd565b5b60200201818152505060405160208160208460ff600019fa61305a57fe5b80519250505090565b8173ffffffffffffffffffffffffffffffffffffffff168373ffffffffffffffffffffffffffffffffffffffff1614156130d2576040517f08c379a00000000000000000000000000000000000000000000000000000000081526004016130c99061488d565b60405180910390fd5b80600560008573ffffffffffffffffffffffffffffffffffffffff1673ffffffffffffffffffffffffffffffffffffffff16815260200190815260200160002060008473ffffffffffffffffffffffffffffffffffffffff1673ffffffffffffffffffffffffffffffffffffffff16815260200190815260200160002060006101000a81548160ff0219169083151502179055508173ffffffffffffffffffffffffffffffffffffffff168373ffffffffffffffffffffffffffffffffffffffff167f17307eab39ab6107e8899845ad3d59bd9653f200f220920489ca2b5937696c31836040516131c39190614770565b60405180910390a3505050565b6131db848484612cb9565b6131e784848484613405565b613226576040517f08c379a000000000000000000000000000000000000000000000000000000000815260040161321d906147cd565b60405180910390fd5b50505050565b60007f01ffc9a7000000000000000000000000000000000000000000000000000000007bffffffffffffffffffffffffffffffffffffffffffffffffffffffff1916827bffffffffffffffffffffffffffffffffffffffffffffffffffffffff1916149050919050565b6132a183838361359c565b600073ffffffffffffffffffffffffffffffffffffffff168373ffffffffffffffffffffffffffffffffffffffff1614156132e4576132df816135a1565b613323565b8173ffffffffffffffffffffffffffffffffffffffff168373ffffffffffffffffffffffffffffffffffffffff16146133225761332183826135ea565b5b5b600073ffffffffffffffffffffffffffffffffffffffff168273ffffffffffffffffffffffffffffffffffffffff1614156133665761336181613757565b6133a5565b8273ffffffffffffffffffffffffffffffffffffffff168273ffffffffffffffffffffffffffffffffffffffff16146133a4576133a38282613828565b5b5b505050565b6133b483836138a7565b6133c16000848484613405565b613400576040517f08c379a00000000000000000000000000000000000000000000000000000000081526004016133f7906147cd565b60405180910390fd5b505050565b60006134268473ffffffffffffffffffffffffffffffffffffffff16613a75565b1561358f578373ffffffffffffffffffffffffffffffffffffffff1663150b7a0261344f612b1a565b8786866040518563ffffffff1660e01b815260040161347194939291906146d2565b602060405180830381600087803b15801561348b57600080fd5b505af19250505080156134bc57506040513d601f19601f820116820180604052508101906134b99190613e57565b60015b61353f573d80600081146134ec576040519150601f19603f3d011682016040523d82523d6000602084013e6134f1565b606091505b50600081511415613537576040517f08c379a000000000000000000000000000000000000000000000000000000000815260040161352e906147cd565b60405180910390fd5b805181602001fd5b63150b7a0260e01b7bffffffffffffffffffffffffffffffffffffffffffffffffffffffff1916817bffffffffffffffffffffffffffffffffffffffffffffffffffffffff191614915050613594565b600190505b949350505050565b505050565b6008805490506009600083815260200190815260200160002081905550600881908060018154018082558091505060019003906000526020600020016000909190919091505550565b600060016135f784610c04565b6136019190614d26565b90506000600760008481526020019081526020016000205490508181146136e6576000600660008673ffffffffffffffffffffffffffffffffffffffff1673ffffffffffffffffffffffffffffffffffffffff168152602001908152602001600020600084815260200190815260200160002054905080600660008773ffffffffffffffffffffffffffffffffffffffff1673ffffffffffffffffffffffffffffffffffffffff168152602001908152602001600020600084815260200190815260200160002081905550816007600083815260200190815260200160002081905550505b6007600084815260200190815260200160002060009055600660008573ffffffffffffffffffffffffffffffffffffffff1673ffffffffffffffffffffffffffffffffffffffff16815260200190815260200160002060008381526020019081526020016000206000905550505050565b6000600160088054905061376b9190614d26565b905060006009600084815260200190815260200160002054905060006008838154811061379b5761379a614ffd565b5b9060005260206000200154905080600883815481106137bd576137bc614ffd565b5b90600052602060002001819055508160096000838152602001908152602001600020819055506009600085815260200190815260200160002060009055600880548061380c5761380b614fce565b5b6001900381819060005260206000200160009055905550505050565b600061383383610c04565b905081600660008573ffffffffffffffffffffffffffffffffffffffff1673ffffffffffffffffffffffffffffffffffffffff168152602001908152602001600020600083815260200190815260200160002081905550806007600084815260200190815260200160002081905550505050565b600073ffffffffffffffffffffffffffffffffffffffff168273ffffffffffffffffffffffffffffffffffffffff161415613917576040517f08c379a000000000000000000000000000000000000000000000000000000000815260040161390e90614a4d565b60405180910390fd5b61392081612aae565b15613960576040517f08c379a00000000000000000000000000000000000000000000000000000000081526004016139579061482d565b60405180910390fd5b61396c60008383613296565b6001600360008473ffffffffffffffffffffffffffffffffffffffff1673ffffffffffffffffffffffffffffffffffffffff16815260200190815260200160002060008282546139bc9190614cd0565b92505081905550816002600083815260200190815260200160002060006101000a81548173ffffffffffffffffffffffffffffffffffffffff021916908373ffffffffffffffffffffffffffffffffffffffff160217905550808273ffffffffffffffffffffffffffffffffffffffff16600073ffffffffffffffffffffffffffffffffffffffff167fddf252ad1be2c89b69c2b068fc378daa952ba7f163c4a11628f55a4df523b3ef60405160405180910390a45050565b600080823b905060008111915050919050565b6040518060c0016040528060001515815260200160008152602001600081526020016000815260200160008152602001600081525090565b6040518060200160405280600190602082028036833780820191505090505090565b6000613af5613af084614c67565b614c42565b905082815260208101848484011115613b1157613b10615060565b5b613b1c848285614e1d565b509392505050565b600081359050613b3381615859565b92915050565b600081519050613b4881615859565b92915050565b600081359050613b5d81615870565b92915050565b600081359050613b7281615887565b92915050565b600081519050613b8781615887565b92915050565b600082601f830112613ba257613ba161505b565b5b8135613bb2848260208601613ae2565b91505092915050565b600081519050613bca8161589e565b92915050565b600081359050613bdf816158b5565b92915050565b600081519050613bf4816158b5565b92915050565b600060208284031215613c1057613c0f61506a565b5b6000613c1e84828501613b24565b91505092915050565b600060208284031215613c3d57613c3c61506a565b5b6000613c4b84828501613b39565b91505092915050565b60008060408385031215613c6b57613c6a61506a565b5b6000613c7985828601613b24565b9250506020613c8a85828601613b24565b9150509250929050565b600080600060608486031215613cad57613cac61506a565b5b6000613cbb86828701613b24565b9350506020613ccc86828701613b24565b9250506040613cdd86828701613bd0565b9150509250925092565b60008060008060808587031215613d0157613d0061506a565b5b6000613d0f87828801613b24565b9450506020613d2087828801613b24565b9350506040613d3187828801613bd0565b925050606085013567ffffffffffffffff811115613d5257613d51615065565b5b613d5e87828801613b8d565b91505092959194509250565b60008060408385031215613d8157613d8061506a565b5b6000613d8f85828601613b24565b9250506020613da085828601613b4e565b9150509250929050565b60008060408385031215613dc157613dc061506a565b5b6000613dcf85828601613b24565b9250506020613de085828601613bd0565b9150509250929050565b60008060408385031215613e0157613e0061506a565b5b6000613e0f85828601613b4e565b9250506020613e2085828601613bd0565b9150509250929050565b600060208284031215613e4057613e3f61506a565b5b6000613e4e84828501613b63565b91505092915050565b600060208284031215613e6d57613e6c61506a565b5b6000613e7b84828501613b78565b91505092915050565b600060208284031215613e9a57613e9961506a565b5b6000613ea884828501613bbb565b91505092915050565b600060208284031215613ec757613ec661506a565b5b6000613ed584828501613bd0565b91505092915050565b600060208284031215613ef457613ef361506a565b5b6000613f0284828501613be5565b91505092915050565b60008060408385031215613f2257613f2161506a565b5b6000613f3085828601613bd0565b9250506020613f4185828601613bd0565b9150509250929050565b613f5481614d7b565b82525050565b613f6381614d8d565b82525050565b613f7281614d8d565b82525050565b6000613f8382614c98565b613f8d8185614cae565b9350613f9d818560208601614e2c565b613fa68161506f565b840191505092915050565b613fba81614dc5565b82525050565b613fc981614df9565b82525050565b613fd881614e0b565b82525050565b6000613fe982614ca3565b613ff38185614cbf565b9350614003818560208601614e2c565b61400c8161506f565b840191505092915050565b6000614024602b83614cbf565b915061402f8261508d565b604082019050919050565b6000614047603283614cbf565b9150614052826150dc565b604082019050919050565b600061406a601d83614cbf565b91506140758261512b565b602082019050919050565b600061408d602683614cbf565b915061409882615154565b604082019050919050565b60006140b0601c83614cbf565b91506140bb826151a3565b602082019050919050565b60006140d3602783614cbf565b91506140de826151cc565b604082019050919050565b60006140f6602483614cbf565b91506141018261521b565b604082019050919050565b6000614119601983614cbf565b91506141248261526a565b602082019050919050565b600061413c601783614cbf565b915061414782615293565b602082019050919050565b600061415f601483614cbf565b915061416a826152bc565b602082019050919050565b6000614182602c83614cbf565b915061418d826152e5565b604082019050919050565b60006141a5601483614cbf565b91506141b082615334565b602082019050919050565b60006141c8601183614cbf565b91506141d38261535d565b602082019050919050565b60006141eb602783614cbf565b91506141f682615386565b604082019050919050565b600061420e603883614cbf565b9150614219826153d5565b604082019050919050565b6000614231602a83614cbf565b915061423c82615424565b604082019050919050565b6000614254601b83614cbf565b915061425f82615473565b602082019050919050565b6000614277602983614cbf565b91506142828261549c565b604082019050919050565b600061429a601683614cbf565b91506142a5826154eb565b602082019050919050565b60006142bd603583614cbf565b91506142c882615514565b604082019050919050565b60006142e0601883614cbf565b91506142eb82615563565b602082019050919050565b6000614303602083614cbf565b915061430e8261558c565b602082019050919050565b6000614326602c83614cbf565b9150614331826155b5565b604082019050919050565b6000614349602083614cbf565b915061435482615604565b602082019050919050565b600061436c602683614cbf565b91506143778261562d565b604082019050919050565b600061438f602983614cbf565b915061439a8261567c565b604082019050919050565b60006143b2602183614cbf565b91506143bd826156cb565b604082019050919050565b60006143d5603183614cbf565b91506143e08261571a565b604082019050919050565b60006143f8602a83614cbf565b915061440382615769565b604082019050919050565b600061441b602c83614cbf565b9150614426826157b8565b604082019050919050565b600061443e601383614cbf565b915061444982615807565b602082019050919050565b6000614461601a83614cbf565b915061446c82615830565b602082019050919050565b60c08201600082015161448d6000850182613f5a565b5060208201516144a06020850182614670565b5060408201516144b36040850182613fb1565b5060608201516144c66060850182614670565b5060808201516144d96080850182614670565b5060a08201516144ec60a0850182614670565b50505050565b60c08201600080830154905061450781614e91565b6145146000860182613f5a565b506001830154905061452581614ec5565b6145326020860182614670565b506002830154905061454381614eab565b6145506040860182613fb1565b506003830154905061456181614ec5565b61456e6060860182614670565b506004830154905061457f81614ec5565b61458c6080860182614670565b506005830154905061459d81614ec5565b6145aa60a0860182614670565b5050505050565b60c0820160008083015490506145c681614e91565b6145d36000860182613f5a565b50600183015490506145e481614ec5565b6145f16020860182614670565b506002830154905061460281614eab565b61460f6040860182613fb1565b506003830154905061462081614ec5565b61462d6060860182614670565b506004830154905061463e81614ec5565b61464b6080860182614670565b506005830154905061465c81614ec5565b61466960a0860182614670565b5050505050565b61467981614def565b82525050565b61468881614def565b82525050565b60006020820190506146a36000830184613f4b565b92915050565b60006040820190506146be6000830185613f4b565b6146cb6020830184613f4b565b9392505050565b60006080820190506146e76000830187613f4b565b6146f46020830186613f4b565b614701604083018561467f565b81810360608301526147138184613f78565b905095945050505050565b60006040820190506147336000830185613f4b565b6147406020830184613fc0565b9392505050565b600060408201905061475c6000830185613f4b565b6147696020830184613fcf565b9392505050565b60006020820190506147856000830184613f69565b92915050565b600060208201905081810360008301526147a58184613fde565b905092915050565b600060208201905081810360008301526147c681614017565b9050919050565b600060208201905081810360008301526147e68161403a565b9050919050565b600060208201905081810360008301526148068161405d565b9050919050565b6000602082019050818103600083015261482681614080565b9050919050565b60006020820190508181036000830152614846816140a3565b9050919050565b60006020820190508181036000830152614866816140c6565b9050919050565b60006020820190508181036000830152614886816140e9565b9050919050565b600060208201905081810360008301526148a68161410c565b9050919050565b600060208201905081810360008301526148c68161412f565b9050919050565b600060208201905081810360008301526148e681614152565b9050919050565b6000602082019050818103600083015261490681614175565b9050919050565b6000602082019050818103600083015261492681614198565b9050919050565b60006020820190508181036000830152614946816141bb565b9050919050565b60006020820190508181036000830152614966816141de565b9050919050565b6000602082019050818103600083015261498681614201565b9050919050565b600060208201905081810360008301526149a681614224565b9050919050565b600060208201905081810360008301526149c681614247565b9050919050565b600060208201905081810360008301526149e68161426a565b9050919050565b60006020820190508181036000830152614a068161428d565b9050919050565b60006020820190508181036000830152614a26816142b0565b9050919050565b60006020820190508181036000830152614a46816142d3565b9050919050565b60006020820190508181036000830152614a66816142f6565b9050919050565b60006020820190508181036000830152614a8681614319565b9050919050565b60006020820190508181036000830152614aa68161433c565b9050919050565b60006020820190508181036000830152614ac68161435f565b9050919050565b60006020820190508181036000830152614ae681614382565b9050919050565b60006020820190508181036000830152614b06816143a5565b9050919050565b60006020820190508181036000830152614b26816143c8565b9050919050565b60006020820190508181036000830152614b46816143eb565b9050919050565b60006020820190508181036000830152614b668161440e565b9050919050565b60006020820190508181036000830152614b8681614431565b9050919050565b60006020820190508181036000830152614ba681614454565b9050919050565b600060c082019050614bc26000830184614477565b92915050565b600060c082019050614bdd60008301846145b1565b92915050565b600060c082019050614bf860008301846144f2565b92915050565b6000602082019050614c13600083018461467f565b92915050565b6000604082019050614c2e600083018561467f565b614c3b602083018461467f565b9392505050565b6000614c4c614c5d565b9050614c588282614edf565b919050565b6000604051905090565b600067ffffffffffffffff821115614c8257614c8161502c565b5b614c8b8261506f565b9050602081019050919050565b600081519050919050565b600081519050919050565b600082825260208201905092915050565b600082825260208201905092915050565b6000614cdb82614def565b9150614ce683614def565b9250827fffffffffffffffffffffffffffffffffffffffffffffffffffffffffffffffff03821115614d1b57614d1a614f41565b5b828201905092915050565b6000614d3182614def565b9150614d3c83614def565b925082821015614d4f57614d4e614f41565b5b828203905092915050565b600060ff82169050919050565b6000819050919050565b6000819050919050565b6000614d8682614dcf565b9050919050565b60008115159050919050565b60007fffffffff0000000000000000000000000000000000000000000000000000000082169050919050565b6000819050919050565b600073ffffffffffffffffffffffffffffffffffffffff82169050919050565b6000819050919050565b6000614e0482614def565b9050919050565b6000614e1682614def565b9050919050565b82818337600083830152505050565b60005b83811015614e4a578082015181840152602081019050614e2f565b83811115614e59576000848401525b50505050565b60006002820490506001821680614e7757607f821691505b60208210811415614e8b57614e8a614f9f565b5b50919050565b6000614ea4614e9f83615080565b614d5a565b9050919050565b6000614ebe614eb983615080565b614d67565b9050919050565b6000614ed8614ed383615080565b614d71565b9050919050565b614ee88261506f565b810181811067ffffffffffffffff82111715614f0757614f0661502c565b5b80604052505050565b6000614f1b82614def565b9150614f2683614def565b925082614f3657614f35614f70565b5b828206905092915050565b7f4e487b7100000000000000000000000000000000000000000000000000000000600052601160045260246000fd5b7f4e487b7100000000000000000000000000000000000000000000000000000000600052601260045260246000fd5b7f4e487b7100000000000000000000000000000000000000000000000000000000600052602260045260246000fd5b7f4e487b7100000000000000000000000000000000000000000000000000000000600052603160045260246000fd5b7f4e487b7100000000000000000000000000000000000000000000000000000000600052603260045260246000fd5b7f4e487b7100000000000000000000000000000000000000000000000000000000600052604160045260246000fd5b600080fd5b600080fd5b600080fd5b600080fd5b6000601f19601f8301169050919050565b60008160001c9050919050565b7f455243373231456e756d657261626c653a206f776e657220696e646578206f7560008201527f74206f6620626f756e6473000000000000000000000000000000000000000000602082015250565b7f4552433732313a207472616e7366657220746f206e6f6e20455243373231526560008201527f63656976657220696d706c656d656e7465720000000000000000000000000000602082015250565b7f4e6f206d6f72652066656d616c65732063616e206265206d696e746564000000600082015250565b7f4f776e61626c653a206e6577206f776e657220697320746865207a65726f206160008201527f6464726573730000000000000000000000000000000000000000000000000000602082015250565b7f4552433732313a20746f6b656e20616c7265616479206d696e74656400000000600082015250565b7f596f752063616e2774206d616b65206b696473206f6e20616e20656d7074792060008201527f73746f6d61636800000000000000000000000000000000000000000000000000602082015250565b7f4552433732313a207472616e7366657220746f20746865207a65726f2061646460008201527f7265737300000000000000000000000000000000000000000000000000000000602082015250565b7f4552433732313a20617070726f766520746f2063616c6c657200000000000000600082015250565b7f546f6b656e20494420646f6573206e6f74206578697374000000000000000000600082015250565b7f546f6b656e20646f6573206e6f74206578697374000000000000000000000000600082015250565b7f4552433732313a206f70657261746f7220717565727920666f72206e6f6e657860008201527f697374656e7420746f6b656e0000000000000000000000000000000000000000602082015250565b7f546f6b656e206e6565647320686f73706974616c000000000000000000000000600082015250565b7f496e76616c696420746f6b656e20494473000000000000000000000000000000600082015250565b7f4e6565642074776f2073657061726174652067656e64657220746f6b656e732060008201527f746f206d61746500000000000000000000000000000000000000000000000000602082015250565b7f4552433732313a20617070726f76652063616c6c6572206973206e6f74206f7760008201527f6e6572206e6f7220617070726f76656420666f7220616c6c0000000000000000602082015250565b7f4552433732313a2062616c616e636520717565727920666f7220746865207a6560008201527f726f206164647265737300000000000000000000000000000000000000000000602082015250565b7f4e6f206d6f7265206d616c65732063616e206265206d696e7465640000000000600082015250565b7f4552433732313a206f776e657220717565727920666f72206e6f6e657869737460008201527f656e7420746f6b656e0000000000000000000000000000000000000000000000602082015250565b7f496e76616c696420746574686572656420746f6b656e00000000000000000000600082015250565b7f596f7520646f206e6f74206861766520656e6f756768207761676520746f6b6560008201527f6e7320746f20666565642074686520706c617965720000000000000000000000602082015250565b7f4f6e6c79206164756c74732063616e206265206d617465640000000000000000600082015250565b7f4552433732313a206d696e7420746f20746865207a65726f2061646472657373600082015250565b7f4552433732313a20617070726f76656420717565727920666f72206e6f6e657860008201527f697374656e7420746f6b656e0000000000000000000000000000000000000000602082015250565b7f4f776e61626c653a2063616c6c6572206973206e6f7420746865206f776e6572600082015250565b7f416c6c6f77207468697320636f6e7472616374206174206c656173742032302060008201527f746f6b656e730000000000000000000000000000000000000000000000000000602082015250565b7f4552433732313a207472616e73666572206f6620746f6b656e2074686174206960008201527f73206e6f74206f776e0000000000000000000000000000000000000000000000602082015250565b7f4552433732313a20617070726f76616c20746f2063757272656e74206f776e6560008201527f7200000000000000000000000000000000000000000000000000000000000000602082015250565b7f4552433732313a207472616e736665722063616c6c6572206973206e6f74206f60008201527f776e6572206e6f7220617070726f766564000000000000000000000000000000602082015250565b7f506c6179657273206e6565642031302064617920636f6f6c20646f776e20616660008201527f746572206d6174696e6700000000000000000000000000000000000000000000602082015250565b7f455243373231456e756d657261626c653a20676c6f62616c20696e646578206f60008201527f7574206f6620626f756e64730000000000000000000000000000000000000000602082015250565b7f496e76616c696420616d6f756e74207061696400000000000000000000000000600082015250565b7f546f6b656e206e6565647320746f206f6e6c7920626520666564000000000000600082015250565b61586281614d7b565b811461586d57600080fd5b50565b61587981614d8d565b811461588457600080fd5b50565b61589081614d99565b811461589b57600080fd5b50565b6158a781614dc5565b81146158b257600080fd5b50565b6158be81614def565b81146158c957600080fd5b5056fea264697066735822122046986bc9747727c911c0deb1448cee9627f54f9e494f68252e89018e7148a54c64736f6c63430008070033",
			"opcodes": "PUSH1 0x80 PUSH1 0x40 MSTORE CALLVALUE DUP1 ISZERO PUSH3 0x11 JUMPI PUSH1 0x0 DUP1 REVERT JUMPDEST POP PUSH1 0x40 MLOAD PUSH3 0x5D27 CODESIZE SUB DUP1 PUSH3 0x5D27 DUP4 CODECOPY DUP2 DUP2 ADD PUSH1 0x40 MSTORE DUP2 ADD SWAP1 PUSH3 0x37 SWAP2 SWAP1 PUSH3 0x316 JUMP JUMPDEST PUSH1 0x40 MLOAD DUP1 PUSH1 0x40 ADD PUSH1 0x40 MSTORE DUP1 PUSH1 0xB DUP2 MSTORE PUSH1 0x20 ADD PUSH32 0x4D657461506C6179657273000000000000000000000000000000000000000000 DUP2 MSTORE POP PUSH1 0x40 MLOAD DUP1 PUSH1 0x40 ADD PUSH1 0x40 MSTORE DUP1 PUSH1 0x3 DUP2 MSTORE PUSH1 0x20 ADD PUSH32 0x4D54500000000000000000000000000000000000000000000000000000000000 DUP2 MSTORE POP DUP2 PUSH1 0x0 SWAP1 DUP1 MLOAD SWAP1 PUSH1 0x20 ADD SWAP1 PUSH3 0xBB SWAP3 SWAP2 SWAP1 PUSH3 0x24F JUMP JUMPDEST POP DUP1 PUSH1 0x1 SWAP1 DUP1 MLOAD SWAP1 PUSH1 0x20 ADD SWAP1 PUSH3 0xD4 SWAP3 SWAP2 SWAP1 PUSH3 0x24F JUMP JUMPDEST POP POP POP PUSH3 0xF7 PUSH3 0xEB PUSH3 0x181 PUSH1 0x20 SHL PUSH1 0x20 SHR JUMP JUMPDEST PUSH3 0x189 PUSH1 0x20 SHL PUSH1 0x20 SHR JUMP JUMPDEST DUP2 PUSH1 0xE PUSH1 0x0 PUSH2 0x100 EXP DUP2 SLOAD DUP2 PUSH20 0xFFFFFFFFFFFFFFFFFFFFFFFFFFFFFFFFFFFFFFFF MUL NOT AND SWAP1 DUP4 PUSH20 0xFFFFFFFFFFFFFFFFFFFFFFFFFFFFFFFFFFFFFFFF AND MUL OR SWAP1 SSTORE POP DUP1 PUSH1 0xF PUSH1 0x0 PUSH2 0x100 EXP DUP2 SLOAD DUP2 PUSH20 0xFFFFFFFFFFFFFFFFFFFFFFFFFFFFFFFFFFFFFFFF MUL NOT AND SWAP1 DUP4 PUSH20 0xFFFFFFFFFFFFFFFFFFFFFFFFFFFFFFFFFFFFFFFF AND MUL OR SWAP1 SSTORE POP POP POP PUSH3 0x415 JUMP JUMPDEST PUSH1 0x0 CALLER SWAP1 POP SWAP1 JUMP JUMPDEST PUSH1 0x0 PUSH1 0xA PUSH1 0x0 SWAP1 SLOAD SWAP1 PUSH2 0x100 EXP SWAP1 DIV PUSH20 0xFFFFFFFFFFFFFFFFFFFFFFFFFFFFFFFFFFFFFFFF AND SWAP1 POP DUP2 PUSH1 0xA PUSH1 0x0 PUSH2 0x100 EXP DUP2 SLOAD DUP2 PUSH20 0xFFFFFFFFFFFFFFFFFFFFFFFFFFFFFFFFFFFFFFFF MUL NOT AND SWAP1 DUP4 PUSH20 0xFFFFFFFFFFFFFFFFFFFFFFFFFFFFFFFFFFFFFFFF AND MUL OR SWAP1 SSTORE POP DUP2 PUSH20 0xFFFFFFFFFFFFFFFFFFFFFFFFFFFFFFFFFFFFFFFF AND DUP2 PUSH20 0xFFFFFFFFFFFFFFFFFFFFFFFFFFFFFFFFFFFFFFFF AND PUSH32 0x8BE0079C531659141344CD1FD0A4F28419497F9722A3DAAFE3B4186F6B6457E0 PUSH1 0x40 MLOAD PUSH1 0x40 MLOAD DUP1 SWAP2 SUB SWAP1 LOG3 POP POP JUMP JUMPDEST DUP3 DUP1 SLOAD PUSH3 0x25D SWAP1 PUSH3 0x391 JUMP JUMPDEST SWAP1 PUSH1 0x0 MSTORE PUSH1 0x20 PUSH1 0x0 KECCAK256 SWAP1 PUSH1 0x1F ADD PUSH1 0x20 SWAP1 DIV DUP2 ADD SWAP3 DUP3 PUSH3 0x281 JUMPI PUSH1 0x0 DUP6 SSTORE PUSH3 0x2CD JUMP JUMPDEST DUP3 PUSH1 0x1F LT PUSH3 0x29C JUMPI DUP1 MLOAD PUSH1 0xFF NOT AND DUP4 DUP1 ADD OR DUP6 SSTORE PUSH3 0x2CD JUMP JUMPDEST DUP3 DUP1 ADD PUSH1 0x1 ADD DUP6 SSTORE DUP3 ISZERO PUSH3 0x2CD JUMPI SWAP2 DUP3 ADD JUMPDEST DUP3 DUP2 GT ISZERO PUSH3 0x2CC JUMPI DUP3 MLOAD DUP3 SSTORE SWAP2 PUSH1 0x20 ADD SWAP2 SWAP1 PUSH1 0x1 ADD SWAP1 PUSH3 0x2AF JUMP JUMPDEST JUMPDEST POP SWAP1 POP PUSH3 0x2DC SWAP2 SWAP1 PUSH3 0x2E0 JUMP JUMPDEST POP SWAP1 JUMP JUMPDEST JUMPDEST DUP1 DUP3 GT ISZERO PUSH3 0x2FB JUMPI PUSH1 0x0 DUP2 PUSH1 0x0 SWAP1 SSTORE POP PUSH1 0x1 ADD PUSH3 0x2E1 JUMP JUMPDEST POP SWAP1 JUMP JUMPDEST PUSH1 0x0 DUP2 MLOAD SWAP1 POP PUSH3 0x310 DUP2 PUSH3 0x3FB JUMP JUMPDEST SWAP3 SWAP2 POP POP JUMP JUMPDEST PUSH1 0x0 DUP1 PUSH1 0x40 DUP4 DUP6 SUB SLT ISZERO PUSH3 0x330 JUMPI PUSH3 0x32F PUSH3 0x3F6 JUMP JUMPDEST JUMPDEST PUSH1 0x0 PUSH3 0x340 DUP6 DUP3 DUP7 ADD PUSH3 0x2FF JUMP JUMPDEST SWAP3 POP POP PUSH1 0x20 PUSH3 0x353 DUP6 DUP3 DUP7 ADD PUSH3 0x2FF JUMP JUMPDEST SWAP2 POP POP SWAP3 POP SWAP3 SWAP1 POP JUMP JUMPDEST PUSH1 0x0 PUSH3 0x36A DUP3 PUSH3 0x371 JUMP JUMPDEST SWAP1 POP SWAP2 SWAP1 POP JUMP JUMPDEST PUSH1 0x0 PUSH20 0xFFFFFFFFFFFFFFFFFFFFFFFFFFFFFFFFFFFFFFFF DUP3 AND SWAP1 POP SWAP2 SWAP1 POP JUMP JUMPDEST PUSH1 0x0 PUSH1 0x2 DUP3 DIV SWAP1 POP PUSH1 0x1 DUP3 AND DUP1 PUSH3 0x3AA JUMPI PUSH1 0x7F DUP3 AND SWAP2 POP JUMPDEST PUSH1 0x20 DUP3 LT DUP2 EQ ISZERO PUSH3 0x3C1 JUMPI PUSH3 0x3C0 PUSH3 0x3C7 JUMP JUMPDEST JUMPDEST POP SWAP2 SWAP1 POP JUMP JUMPDEST PUSH32 0x4E487B7100000000000000000000000000000000000000000000000000000000 PUSH1 0x0 MSTORE PUSH1 0x22 PUSH1 0x4 MSTORE PUSH1 0x24 PUSH1 0x0 REVERT JUMPDEST PUSH1 0x0 DUP1 REVERT JUMPDEST PUSH3 0x406 DUP2 PUSH3 0x35D JUMP JUMPDEST DUP2 EQ PUSH3 0x412 JUMPI PUSH1 0x0 DUP1 REVERT JUMPDEST POP JUMP JUMPDEST PUSH2 0x5902 DUP1 PUSH3 0x425 PUSH1 0x0 CODECOPY PUSH1 0x0 RETURN INVALID PUSH1 0x80 PUSH1 0x40 MSTORE PUSH1 0x4 CALLDATASIZE LT PUSH2 0x1B7 JUMPI PUSH1 0x0 CALLDATALOAD PUSH1 0xE0 SHR DUP1 PUSH4 0x95D89B41 GT PUSH2 0xEC JUMPI DUP1 PUSH4 0xD69F6BAE GT PUSH2 0x8A JUMPI DUP1 PUSH4 0xE985E9C5 GT PUSH2 0x64 JUMPI DUP1 PUSH4 0xE985E9C5 EQ PUSH2 0x63A JUMPI DUP1 PUSH4 0xE9ACE648 EQ PUSH2 0x677 JUMPI DUP1 PUSH4 0xEA17532E EQ PUSH2 0x6A0 JUMPI DUP1 PUSH4 0xF2FDE38B EQ PUSH2 0x6DD JUMPI PUSH2 0x1B7 JUMP JUMPDEST DUP1 PUSH4 0xD69F6BAE EQ PUSH2 0x5B5 JUMPI DUP1 PUSH4 0xDCA06DA7 EQ PUSH2 0x5E1 JUMPI DUP1 PUSH4 0xDFEFC776 EQ PUSH2 0x60A JUMPI PUSH2 0x1B7 JUMP JUMPDEST DUP1 PUSH4 0xAE64C2CF GT PUSH2 0xC6 JUMPI DUP1 PUSH4 0xAE64C2CF EQ PUSH2 0x4F9 JUMPI DUP1 PUSH4 0xB88D4FDE EQ PUSH2 0x524 JUMPI DUP1 PUSH4 0xC002D23D EQ PUSH2 0x54D JUMPI DUP1 PUSH4 0xC87B56DD EQ PUSH2 0x578 JUMPI PUSH2 0x1B7 JUMP JUMPDEST DUP1 PUSH4 0x95D89B41 EQ PUSH2 0x468 JUMPI DUP1 PUSH4 0x9C3F5237 EQ PUSH2 0x493 JUMPI DUP1 PUSH4 0xA22CB465 EQ PUSH2 0x4D0 JUMPI PUSH2 0x1B7 JUMP JUMPDEST DUP1 PUSH4 0x42842E0E GT PUSH2 0x159 JUMPI DUP1 PUSH4 0x70A08231 GT PUSH2 0x133 JUMPI DUP1 PUSH4 0x70A08231 EQ PUSH2 0x3BE JUMPI DUP1 PUSH4 0x715018A6 EQ PUSH2 0x3FB JUMPI DUP1 PUSH4 0x889D92E7 EQ PUSH2 0x412 JUMPI DUP1 PUSH4 0x8DA5CB5B EQ PUSH2 0x43D JUMPI PUSH2 0x1B7 JUMP JUMPDEST DUP1 PUSH4 0x42842E0E EQ PUSH2 0x31B JUMPI DUP1 PUSH4 0x4F6CCCE7 EQ PUSH2 0x344 JUMPI DUP1 PUSH4 0x6352211E EQ PUSH2 0x381 JUMPI PUSH2 0x1B7 JUMP JUMPDEST DUP1 PUSH4 0x95EA7B3 GT PUSH2 0x195 JUMPI DUP1 PUSH4 0x95EA7B3 EQ PUSH2 0x261 JUMPI DUP1 PUSH4 0x18160DDD EQ PUSH2 0x28A JUMPI DUP1 PUSH4 0x23B872DD EQ PUSH2 0x2B5 JUMPI DUP1 PUSH4 0x2F745C59 EQ PUSH2 0x2DE JUMPI PUSH2 0x1B7 JUMP JUMPDEST DUP1 PUSH4 0x1FFC9A7 EQ PUSH2 0x1BC JUMPI DUP1 PUSH4 0x6FDDE03 EQ PUSH2 0x1F9 JUMPI DUP1 PUSH4 0x81812FC EQ PUSH2 0x224 JUMPI JUMPDEST PUSH1 0x0 DUP1 REVERT JUMPDEST CALLVALUE DUP1 ISZERO PUSH2 0x1C8 JUMPI PUSH1 0x0 DUP1 REVERT JUMPDEST POP PUSH2 0x1E3 PUSH1 0x4 DUP1 CALLDATASIZE SUB DUP2 ADD SWAP1 PUSH2 0x1DE SWAP2 SWAP1 PUSH2 0x3E2A JUMP JUMPDEST PUSH2 0x706 JUMP JUMPDEST PUSH1 0x40 MLOAD PUSH2 0x1F0 SWAP2 SWAP1 PUSH2 0x4770 JUMP JUMPDEST PUSH1 0x40 MLOAD DUP1 SWAP2 SUB SWAP1 RETURN JUMPDEST CALLVALUE DUP1 ISZERO PUSH2 0x205 JUMPI PUSH1 0x0 DUP1 REVERT JUMPDEST POP PUSH2 0x20E PUSH2 0x780 JUMP JUMPDEST PUSH1 0x40 MLOAD PUSH2 0x21B SWAP2 SWAP1 PUSH2 0x478B JUMP JUMPDEST PUSH1 0x40 MLOAD DUP1 SWAP2 SUB SWAP1 RETURN JUMPDEST CALLVALUE DUP1 ISZERO PUSH2 0x230 JUMPI PUSH1 0x0 DUP1 REVERT JUMPDEST POP PUSH2 0x24B PUSH1 0x4 DUP1 CALLDATASIZE SUB DUP2 ADD SWAP1 PUSH2 0x246 SWAP2 SWAP1 PUSH2 0x3EB1 JUMP JUMPDEST PUSH2 0x812 JUMP JUMPDEST PUSH1 0x40 MLOAD PUSH2 0x258 SWAP2 SWAP1 PUSH2 0x468E JUMP JUMPDEST PUSH1 0x40 MLOAD DUP1 SWAP2 SUB SWAP1 RETURN JUMPDEST CALLVALUE DUP1 ISZERO PUSH2 0x26D JUMPI PUSH1 0x0 DUP1 REVERT JUMPDEST POP PUSH2 0x288 PUSH1 0x4 DUP1 CALLDATASIZE SUB DUP2 ADD SWAP1 PUSH2 0x283 SWAP2 SWAP1 PUSH2 0x3DAA JUMP JUMPDEST PUSH2 0x897 JUMP JUMPDEST STOP JUMPDEST CALLVALUE DUP1 ISZERO PUSH2 0x296 JUMPI PUSH1 0x0 DUP1 REVERT JUMPDEST POP PUSH2 0x29F PUSH2 0x9AF JUMP JUMPDEST PUSH1 0x40 MLOAD PUSH2 0x2AC SWAP2 SWAP1 PUSH2 0x4BFE JUMP JUMPDEST PUSH1 0x40 MLOAD DUP1 SWAP2 SUB SWAP1 RETURN JUMPDEST CALLVALUE DUP1 ISZERO PUSH2 0x2C1 JUMPI PUSH1 0x0 DUP1 REVERT JUMPDEST POP PUSH2 0x2DC PUSH1 0x4 DUP1 CALLDATASIZE SUB DUP2 ADD SWAP1 PUSH2 0x2D7 SWAP2 SWAP1 PUSH2 0x3C94 JUMP JUMPDEST PUSH2 0x9BC JUMP JUMPDEST STOP JUMPDEST CALLVALUE DUP1 ISZERO PUSH2 0x2EA JUMPI PUSH1 0x0 DUP1 REVERT JUMPDEST POP PUSH2 0x305 PUSH1 0x4 DUP1 CALLDATASIZE SUB DUP2 ADD SWAP1 PUSH2 0x300 SWAP2 SWAP1 PUSH2 0x3DAA JUMP JUMPDEST PUSH2 0xA1C JUMP JUMPDEST PUSH1 0x40 MLOAD PUSH2 0x312 SWAP2 SWAP1 PUSH2 0x4BFE JUMP JUMPDEST PUSH1 0x40 MLOAD DUP1 SWAP2 SUB SWAP1 RETURN JUMPDEST CALLVALUE DUP1 ISZERO PUSH2 0x327 JUMPI PUSH1 0x0 DUP1 REVERT JUMPDEST POP PUSH2 0x342 PUSH1 0x4 DUP1 CALLDATASIZE SUB DUP2 ADD SWAP1 PUSH2 0x33D SWAP2 SWAP1 PUSH2 0x3C94 JUMP JUMPDEST PUSH2 0xAC1 JUMP JUMPDEST STOP JUMPDEST CALLVALUE DUP1 ISZERO PUSH2 0x350 JUMPI PUSH1 0x0 DUP1 REVERT JUMPDEST POP PUSH2 0x36B PUSH1 0x4 DUP1 CALLDATASIZE SUB DUP2 ADD SWAP1 PUSH2 0x366 SWAP2 SWAP1 PUSH2 0x3EB1 JUMP JUMPDEST PUSH2 0xAE1 JUMP JUMPDEST PUSH1 0x40 MLOAD PUSH2 0x378 SWAP2 SWAP1 PUSH2 0x4BFE JUMP JUMPDEST PUSH1 0x40 MLOAD DUP1 SWAP2 SUB SWAP1 RETURN JUMPDEST CALLVALUE DUP1 ISZERO PUSH2 0x38D JUMPI PUSH1 0x0 DUP1 REVERT JUMPDEST POP PUSH2 0x3A8 PUSH1 0x4 DUP1 CALLDATASIZE SUB DUP2 ADD SWAP1 PUSH2 0x3A3 SWAP2 SWAP1 PUSH2 0x3EB1 JUMP JUMPDEST PUSH2 0xB52 JUMP JUMPDEST PUSH1 0x40 MLOAD PUSH2 0x3B5 SWAP2 SWAP1 PUSH2 0x468E JUMP JUMPDEST PUSH1 0x40 MLOAD DUP1 SWAP2 SUB SWAP1 RETURN JUMPDEST CALLVALUE DUP1 ISZERO PUSH2 0x3CA JUMPI PUSH1 0x0 DUP1 REVERT JUMPDEST POP PUSH2 0x3E5 PUSH1 0x4 DUP1 CALLDATASIZE SUB DUP2 ADD SWAP1 PUSH2 0x3E0 SWAP2 SWAP1 PUSH2 0x3BFA JUMP JUMPDEST PUSH2 0xC04 JUMP JUMPDEST PUSH1 0x40 MLOAD PUSH2 0x3F2 SWAP2 SWAP1 PUSH2 0x4BFE JUMP JUMPDEST PUSH1 0x40 MLOAD DUP1 SWAP2 SUB SWAP1 RETURN JUMPDEST CALLVALUE DUP1 ISZERO PUSH2 0x407 JUMPI PUSH1 0x0 DUP1 REVERT JUMPDEST POP PUSH2 0x410 PUSH2 0xCBC JUMP JUMPDEST STOP JUMPDEST CALLVALUE DUP1 ISZERO PUSH2 0x41E JUMPI PUSH1 0x0 DUP1 REVERT JUMPDEST POP PUSH2 0x427 PUSH2 0xD44 JUMP JUMPDEST PUSH1 0x40 MLOAD PUSH2 0x434 SWAP2 SWAP1 PUSH2 0x4BFE JUMP JUMPDEST PUSH1 0x40 MLOAD DUP1 SWAP2 SUB SWAP1 RETURN JUMPDEST CALLVALUE DUP1 ISZERO PUSH2 0x449 JUMPI PUSH1 0x0 DUP1 REVERT JUMPDEST POP PUSH2 0x452 PUSH2 0xD4A JUMP JUMPDEST PUSH1 0x40 MLOAD PUSH2 0x45F SWAP2 SWAP1 PUSH2 0x468E JUMP JUMPDEST PUSH1 0x40 MLOAD DUP1 SWAP2 SUB SWAP1 RETURN JUMPDEST CALLVALUE DUP1 ISZERO PUSH2 0x474 JUMPI PUSH1 0x0 DUP1 REVERT JUMPDEST POP PUSH2 0x47D PUSH2 0xD74 JUMP JUMPDEST PUSH1 0x40 MLOAD PUSH2 0x48A SWAP2 SWAP1 PUSH2 0x478B JUMP JUMPDEST PUSH1 0x40 MLOAD DUP1 SWAP2 SUB SWAP1 RETURN JUMPDEST CALLVALUE DUP1 ISZERO PUSH2 0x49F JUMPI PUSH1 0x0 DUP1 REVERT JUMPDEST POP PUSH2 0x4BA PUSH1 0x4 DUP1 CALLDATASIZE SUB DUP2 ADD SWAP1 PUSH2 0x4B5 SWAP2 SWAP1 PUSH2 0x3F0B JUMP JUMPDEST PUSH2 0xE06 JUMP JUMPDEST PUSH1 0x40 MLOAD PUSH2 0x4C7 SWAP2 SWAP1 PUSH2 0x4BAD JUMP JUMPDEST PUSH1 0x40 MLOAD DUP1 SWAP2 SUB SWAP1 RETURN JUMPDEST CALLVALUE DUP1 ISZERO PUSH2 0x4DC JUMPI PUSH1 0x0 DUP1 REVERT JUMPDEST POP PUSH2 0x4F7 PUSH1 0x4 DUP1 CALLDATASIZE SUB DUP2 ADD SWAP1 PUSH2 0x4F2 SWAP2 SWAP1 PUSH2 0x3D6A JUMP JUMPDEST PUSH2 0x14A5 JUMP JUMPDEST STOP JUMPDEST CALLVALUE DUP1 ISZERO PUSH2 0x505 JUMPI PUSH1 0x0 DUP1 REVERT JUMPDEST POP PUSH2 0x50E PUSH2 0x14BB JUMP JUMPDEST PUSH1 0x40 MLOAD PUSH2 0x51B SWAP2 SWAP1 PUSH2 0x4BFE JUMP JUMPDEST PUSH1 0x40 MLOAD DUP1 SWAP2 SUB SWAP1 RETURN JUMPDEST CALLVALUE DUP1 ISZERO PUSH2 0x530 JUMPI PUSH1 0x0 DUP1 REVERT JUMPDEST POP PUSH2 0x54B PUSH1 0x4 DUP1 CALLDATASIZE SUB DUP2 ADD SWAP1 PUSH2 0x546 SWAP2 SWAP1 PUSH2 0x3CE7 JUMP JUMPDEST PUSH2 0x14C1 JUMP JUMPDEST STOP JUMPDEST CALLVALUE DUP1 ISZERO PUSH2 0x559 JUMPI PUSH1 0x0 DUP1 REVERT JUMPDEST POP PUSH2 0x562 PUSH2 0x1523 JUMP JUMPDEST PUSH1 0x40 MLOAD PUSH2 0x56F SWAP2 SWAP1 PUSH2 0x4BFE JUMP JUMPDEST PUSH1 0x40 MLOAD DUP1 SWAP2 SUB SWAP1 RETURN JUMPDEST CALLVALUE DUP1 ISZERO PUSH2 0x584 JUMPI PUSH1 0x0 DUP1 REVERT JUMPDEST POP PUSH2 0x59F PUSH1 0x4 DUP1 CALLDATASIZE SUB DUP2 ADD SWAP1 PUSH2 0x59A SWAP2 SWAP1 PUSH2 0x3EB1 JUMP JUMPDEST PUSH2 0x152F JUMP JUMPDEST PUSH1 0x40 MLOAD PUSH2 0x5AC SWAP2 SWAP1 PUSH2 0x478B JUMP JUMPDEST PUSH1 0x40 MLOAD DUP1 SWAP2 SUB SWAP1 RETURN JUMPDEST CALLVALUE DUP1 ISZERO PUSH2 0x5C1 JUMPI PUSH1 0x0 DUP1 REVERT JUMPDEST POP PUSH2 0x5CA PUSH2 0x1BFB JUMP JUMPDEST PUSH1 0x40 MLOAD PUSH2 0x5D8 SWAP3 SWAP2 SWAP1 PUSH2 0x4C19 JUMP JUMPDEST PUSH1 0x40 MLOAD DUP1 SWAP2 SUB SWAP1 RETURN JUMPDEST CALLVALUE DUP1 ISZERO PUSH2 0x5ED JUMPI PUSH1 0x0 DUP1 REVERT JUMPDEST POP PUSH2 0x608 PUSH1 0x4 DUP1 CALLDATASIZE SUB DUP2 ADD SWAP1 PUSH2 0x603 SWAP2 SWAP1 PUSH2 0x3EB1 JUMP JUMPDEST PUSH2 0x1C1A JUMP JUMPDEST STOP JUMPDEST PUSH2 0x624 PUSH1 0x4 DUP1 CALLDATASIZE SUB DUP2 ADD SWAP1 PUSH2 0x61F SWAP2 SWAP1 PUSH2 0x3DEA JUMP JUMPDEST PUSH2 0x1F8E JUMP JUMPDEST PUSH1 0x40 MLOAD PUSH2 0x631 SWAP2 SWAP1 PUSH2 0x4BAD JUMP JUMPDEST PUSH1 0x40 MLOAD DUP1 SWAP2 SUB SWAP1 RETURN JUMPDEST CALLVALUE DUP1 ISZERO PUSH2 0x646 JUMPI PUSH1 0x0 DUP1 REVERT JUMPDEST POP PUSH2 0x661 PUSH1 0x4 DUP1 CALLDATASIZE SUB DUP2 ADD SWAP1 PUSH2 0x65C SWAP2 SWAP1 PUSH2 0x3C54 JUMP JUMPDEST PUSH2 0x2448 JUMP JUMPDEST PUSH1 0x40 MLOAD PUSH2 0x66E SWAP2 SWAP1 PUSH2 0x4770 JUMP JUMPDEST PUSH1 0x40 MLOAD DUP1 SWAP2 SUB SWAP1 RETURN JUMPDEST CALLVALUE DUP1 ISZERO PUSH2 0x683 JUMPI PUSH1 0x0 DUP1 REVERT JUMPDEST POP PUSH2 0x69E PUSH1 0x4 DUP1 CALLDATASIZE SUB DUP2 ADD SWAP1 PUSH2 0x699 SWAP2 SWAP1 PUSH2 0x3EB1 JUMP JUMPDEST PUSH2 0x24DC JUMP JUMPDEST STOP JUMPDEST CALLVALUE DUP1 ISZERO PUSH2 0x6AC JUMPI PUSH1 0x0 DUP1 REVERT JUMPDEST POP PUSH2 0x6C7 PUSH1 0x4 DUP1 CALLDATASIZE SUB DUP2 ADD SWAP1 PUSH2 0x6C2 SWAP2 SWAP1 PUSH2 0x3EB1 JUMP JUMPDEST PUSH2 0x285A JUMP JUMPDEST PUSH1 0x40 MLOAD PUSH2 0x6D4 SWAP2 SWAP1 PUSH2 0x4BAD JUMP JUMPDEST PUSH1 0x40 MLOAD DUP1 SWAP2 SUB SWAP1 RETURN JUMPDEST CALLVALUE DUP1 ISZERO PUSH2 0x6E9 JUMPI PUSH1 0x0 DUP1 REVERT JUMPDEST POP PUSH2 0x704 PUSH1 0x4 DUP1 CALLDATASIZE SUB DUP2 ADD SWAP1 PUSH2 0x6FF SWAP2 SWAP1 PUSH2 0x3BFA JUMP JUMPDEST PUSH2 0x28D4 JUMP JUMPDEST STOP JUMPDEST PUSH1 0x0 PUSH32 0x780E9D6300000000000000000000000000000000000000000000000000000000 PUSH28 0xFFFFFFFFFFFFFFFFFFFFFFFFFFFFFFFFFFFFFFFFFFFFFFFFFFFFFFFF NOT AND DUP3 PUSH28 0xFFFFFFFFFFFFFFFFFFFFFFFFFFFFFFFFFFFFFFFFFFFFFFFFFFFFFFFF NOT AND EQ DUP1 PUSH2 0x779 JUMPI POP PUSH2 0x778 DUP3 PUSH2 0x29CC JUMP JUMPDEST JUMPDEST SWAP1 POP SWAP2 SWAP1 POP JUMP JUMPDEST PUSH1 0x60 PUSH1 0x0 DUP1 SLOAD PUSH2 0x78F SWAP1 PUSH2 0x4E5F JUMP JUMPDEST DUP1 PUSH1 0x1F ADD PUSH1 0x20 DUP1 SWAP2 DIV MUL PUSH1 0x20 ADD PUSH1 0x40 MLOAD SWAP1 DUP2 ADD PUSH1 0x40 MSTORE DUP1 SWAP3 SWAP2 SWAP1 DUP2 DUP2 MSTORE PUSH1 0x20 ADD DUP3 DUP1 SLOAD PUSH2 0x7BB SWAP1 PUSH2 0x4E5F JUMP JUMPDEST DUP1 ISZERO PUSH2 0x808 JUMPI DUP1 PUSH1 0x1F LT PUSH2 0x7DD JUMPI PUSH2 0x100 DUP1 DUP4 SLOAD DIV MUL DUP4 MSTORE SWAP2 PUSH1 0x20 ADD SWAP2 PUSH2 0x808 JUMP JUMPDEST DUP3 ADD SWAP2 SWAP1 PUSH1 0x0 MSTORE PUSH1 0x20 PUSH1 0x0 KECCAK256 SWAP1 JUMPDEST DUP2 SLOAD DUP2 MSTORE SWAP1 PUSH1 0x1 ADD SWAP1 PUSH1 0x20 ADD DUP1 DUP4 GT PUSH2 0x7EB JUMPI DUP3 SWAP1 SUB PUSH1 0x1F AND DUP3 ADD SWAP2 JUMPDEST POP POP POP POP POP SWAP1 POP SWAP1 JUMP JUMPDEST PUSH1 0x0 PUSH2 0x81D DUP3 PUSH2 0x2AAE JUMP JUMPDEST PUSH2 0x85C JUMPI PUSH1 0x40 MLOAD PUSH32 0x8C379A000000000000000000000000000000000000000000000000000000000 DUP2 MSTORE PUSH1 0x4 ADD PUSH2 0x853 SWAP1 PUSH2 0x4A6D JUMP JUMPDEST PUSH1 0x40 MLOAD DUP1 SWAP2 SUB SWAP1 REVERT JUMPDEST PUSH1 0x4 PUSH1 0x0 DUP4 DUP2 MSTORE PUSH1 0x20 ADD SWAP1 DUP2 MSTORE PUSH1 0x20 ADD PUSH1 0x0 KECCAK256 PUSH1 0x0 SWAP1 SLOAD SWAP1 PUSH2 0x100 EXP SWAP1 DIV PUSH20 0xFFFFFFFFFFFFFFFFFFFFFFFFFFFFFFFFFFFFFFFF AND SWAP1 POP SWAP2 SWAP1 POP JUMP JUMPDEST PUSH1 0x0 PUSH2 0x8A2 DUP3 PUSH2 0xB52 JUMP JUMPDEST SWAP1 POP DUP1 PUSH20 0xFFFFFFFFFFFFFFFFFFFFFFFFFFFFFFFFFFFFFFFF AND DUP4 PUSH20 0xFFFFFFFFFFFFFFFFFFFFFFFFFFFFFFFFFFFFFFFF AND EQ ISZERO PUSH2 0x913 JUMPI PUSH1 0x40 MLOAD PUSH32 0x8C379A000000000000000000000000000000000000000000000000000000000 DUP2 MSTORE PUSH1 0x4 ADD PUSH2 0x90A SWAP1 PUSH2 0x4AED JUMP JUMPDEST PUSH1 0x40 MLOAD DUP1 SWAP2 SUB SWAP1 REVERT JUMPDEST DUP1 PUSH20 0xFFFFFFFFFFFFFFFFFFFFFFFFFFFFFFFFFFFFFFFF AND PUSH2 0x932 PUSH2 0x2B1A JUMP JUMPDEST PUSH20 0xFFFFFFFFFFFFFFFFFFFFFFFFFFFFFFFFFFFFFFFF AND EQ DUP1 PUSH2 0x961 JUMPI POP PUSH2 0x960 DUP2 PUSH2 0x95B PUSH2 0x2B1A JUMP JUMPDEST PUSH2 0x2448 JUMP JUMPDEST JUMPDEST PUSH2 0x9A0 JUMPI PUSH1 0x40 MLOAD PUSH32 0x8C379A000000000000000000000000000000000000000000000000000000000 DUP2 MSTORE PUSH1 0x4 ADD PUSH2 0x997 SWAP1 PUSH2 0x496D JUMP JUMPDEST PUSH1 0x40 MLOAD DUP1 SWAP2 SUB SWAP1 REVERT JUMPDEST PUSH2 0x9AA DUP4 DUP4 PUSH2 0x2B22 JUMP JUMPDEST POP POP POP JUMP JUMPDEST PUSH1 0x0 PUSH1 0x8 DUP1 SLOAD SWAP1 POP SWAP1 POP SWAP1 JUMP JUMPDEST PUSH2 0x9CD PUSH2 0x9C7 PUSH2 0x2B1A JUMP JUMPDEST DUP3 PUSH2 0x2BDB JUMP JUMPDEST PUSH2 0xA0C JUMPI PUSH1 0x40 MLOAD PUSH32 0x8C379A000000000000000000000000000000000000000000000000000000000 DUP2 MSTORE PUSH1 0x4 ADD PUSH2 0xA03 SWAP1 PUSH2 0x4B0D JUMP JUMPDEST PUSH1 0x40 MLOAD DUP1 SWAP2 SUB SWAP1 REVERT JUMPDEST PUSH2 0xA17 DUP4 DUP4 DUP4 PUSH2 0x2CB9 JUMP JUMPDEST POP POP POP JUMP JUMPDEST PUSH1 0x0 PUSH2 0xA27 DUP4 PUSH2 0xC04 JUMP JUMPDEST DUP3 LT PUSH2 0xA68 JUMPI PUSH1 0x40 MLOAD PUSH32 0x8C379A000000000000000000000000000000000000000000000000000000000 DUP2 MSTORE PUSH1 0x4 ADD PUSH2 0xA5F SWAP1 PUSH2 0x47AD JUMP JUMPDEST PUSH1 0x40 MLOAD DUP1 SWAP2 SUB SWAP1 REVERT JUMPDEST PUSH1 0x6 PUSH1 0x0 DUP5 PUSH20 0xFFFFFFFFFFFFFFFFFFFFFFFFFFFFFFFFFFFFFFFF AND PUSH20 0xFFFFFFFFFFFFFFFFFFFFFFFFFFFFFFFFFFFFFFFF AND DUP2 MSTORE PUSH1 0x20 ADD SWAP1 DUP2 MSTORE PUSH1 0x20 ADD PUSH1 0x0 KECCAK256 PUSH1 0x0 DUP4 DUP2 MSTORE PUSH1 0x20 ADD SWAP1 DUP2 MSTORE PUSH1 0x20 ADD PUSH1 0x0 KECCAK256 SLOAD SWAP1 POP SWAP3 SWAP2 POP POP JUMP JUMPDEST PUSH2 0xADC DUP4 DUP4 DUP4 PUSH1 0x40 MLOAD DUP1 PUSH1 0x20 ADD PUSH1 0x40 MSTORE DUP1 PUSH1 0x0 DUP2 MSTORE POP PUSH2 0x14C1 JUMP JUMPDEST POP POP POP JUMP JUMPDEST PUSH1 0x0 PUSH2 0xAEB PUSH2 0x9AF JUMP JUMPDEST DUP3 LT PUSH2 0xB2C JUMPI PUSH1 0x40 MLOAD PUSH32 0x8C379A000000000000000000000000000000000000000000000000000000000 DUP2 MSTORE PUSH1 0x4 ADD PUSH2 0xB23 SWAP1 PUSH2 0x4B4D JUMP JUMPDEST PUSH1 0x40 MLOAD DUP1 SWAP2 SUB SWAP1 REVERT JUMPDEST PUSH1 0x8 DUP3 DUP2 SLOAD DUP2 LT PUSH2 0xB40 JUMPI PUSH2 0xB3F PUSH2 0x4FFD JUMP JUMPDEST JUMPDEST SWAP1 PUSH1 0x0 MSTORE PUSH1 0x20 PUSH1 0x0 KECCAK256 ADD SLOAD SWAP1 POP SWAP2 SWAP1 POP JUMP JUMPDEST PUSH1 0x0 DUP1 PUSH1 0x2 PUSH1 0x0 DUP5 DUP2 MSTORE PUSH1 0x20 ADD SWAP1 DUP2 MSTORE PUSH1 0x20 ADD PUSH1 0x0 KECCAK256 PUSH1 0x0 SWAP1 SLOAD SWAP1 PUSH2 0x100 EXP SWAP1 DIV PUSH20 0xFFFFFFFFFFFFFFFFFFFFFFFFFFFFFFFFFFFFFFFF AND SWAP1 POP PUSH1 0x0 PUSH20 0xFFFFFFFFFFFFFFFFFFFFFFFFFFFFFFFFFFFFFFFF AND DUP2 PUSH20 0xFFFFFFFFFFFFFFFFFFFFFFFFFFFFFFFFFFFFFFFF AND EQ ISZERO PUSH2 0xBFB JUMPI PUSH1 0x40 MLOAD PUSH32 0x8C379A000000000000000000000000000000000000000000000000000000000 DUP2 MSTORE PUSH1 0x4 ADD PUSH2 0xBF2 SWAP1 PUSH2 0x49CD JUMP JUMPDEST PUSH1 0x40 MLOAD DUP1 SWAP2 SUB SWAP1 REVERT JUMPDEST DUP1 SWAP2 POP POP SWAP2 SWAP1 POP JUMP JUMPDEST PUSH1 0x0 DUP1 PUSH20 0xFFFFFFFFFFFFFFFFFFFFFFFFFFFFFFFFFFFFFFFF AND DUP3 PUSH20 0xFFFFFFFFFFFFFFFFFFFFFFFFFFFFFFFFFFFFFFFF AND EQ ISZERO PUSH2 0xC75 JUMPI PUSH1 0x40 MLOAD PUSH32 0x8C379A000000000000000000000000000000000000000000000000000000000 DUP2 MSTORE PUSH1 0x4 ADD PUSH2 0xC6C SWAP1 PUSH2 0x498D JUMP JUMPDEST PUSH1 0x40 MLOAD DUP1 SWAP2 SUB SWAP1 REVERT JUMPDEST PUSH1 0x3 PUSH1 0x0 DUP4 PUSH20 0xFFFFFFFFFFFFFFFFFFFFFFFFFFFFFFFFFFFFFFFF AND PUSH20 0xFFFFFFFFFFFFFFFFFFFFFFFFFFFFFFFFFFFFFFFF AND DUP2 MSTORE PUSH1 0x20 ADD SWAP1 DUP2 MSTORE PUSH1 0x20 ADD PUSH1 0x0 KECCAK256 SLOAD SWAP1 POP SWAP2 SWAP1 POP JUMP JUMPDEST PUSH2 0xCC4 PUSH2 0x2B1A JUMP JUMPDEST PUSH20 0xFFFFFFFFFFFFFFFFFFFFFFFFFFFFFFFFFFFFFFFF AND PUSH2 0xCE2 PUSH2 0xD4A JUMP JUMPDEST PUSH20 0xFFFFFFFFFFFFFFFFFFFFFFFFFFFFFFFFFFFFFFFF AND EQ PUSH2 0xD38 JUMPI PUSH1 0x40 MLOAD PUSH32 0x8C379A000000000000000000000000000000000000000000000000000000000 DUP2 MSTORE PUSH1 0x4 ADD PUSH2 0xD2F SWAP1 PUSH2 0x4A8D JUMP JUMPDEST PUSH1 0x40 MLOAD DUP1 SWAP2 SUB SWAP1 REVERT JUMPDEST PUSH2 0xD42 PUSH1 0x0 PUSH2 0x2F15 JUMP JUMPDEST JUMP JUMPDEST PUSH2 0x1388 DUP2 JUMP JUMPDEST PUSH1 0x0 PUSH1 0xA PUSH1 0x0 SWAP1 SLOAD SWAP1 PUSH2 0x100 EXP SWAP1 DIV PUSH20 0xFFFFFFFFFFFFFFFFFFFFFFFFFFFFFFFFFFFFFFFF AND SWAP1 POP SWAP1 JUMP JUMPDEST PUSH1 0x60 PUSH1 0x1 DUP1 SLOAD PUSH2 0xD83 SWAP1 PUSH2 0x4E5F JUMP JUMPDEST DUP1 PUSH1 0x1F ADD PUSH1 0x20 DUP1 SWAP2 DIV MUL PUSH1 0x20 ADD PUSH1 0x40 MLOAD SWAP1 DUP2 ADD PUSH1 0x40 MSTORE DUP1 SWAP3 SWAP2 SWAP1 DUP2 DUP2 MSTORE PUSH1 0x20 ADD DUP3 DUP1 SLOAD PUSH2 0xDAF SWAP1 PUSH2 0x4E5F JUMP JUMPDEST DUP1 ISZERO PUSH2 0xDFC JUMPI DUP1 PUSH1 0x1F LT PUSH2 0xDD1 JUMPI PUSH2 0x100 DUP1 DUP4 SLOAD DIV MUL DUP4 MSTORE SWAP2 PUSH1 0x20 ADD SWAP2 PUSH2 0xDFC JUMP JUMPDEST DUP3 ADD SWAP2 SWAP1 PUSH1 0x0 MSTORE PUSH1 0x20 PUSH1 0x0 KECCAK256 SWAP1 JUMPDEST DUP2 SLOAD DUP2 MSTORE SWAP1 PUSH1 0x1 ADD SWAP1 PUSH1 0x20 ADD DUP1 DUP4 GT PUSH2 0xDDF JUMPI DUP3 SWAP1 SUB PUSH1 0x1F AND DUP3 ADD SWAP2 JUMPDEST POP POP POP POP POP SWAP1 POP SWAP1 JUMP JUMPDEST PUSH2 0xE0E PUSH2 0x3A88 JUMP JUMPDEST PUSH1 0x0 PUSH1 0x10 PUSH1 0x0 DUP6 DUP2 MSTORE PUSH1 0x20 ADD SWAP1 DUP2 MSTORE PUSH1 0x20 ADD PUSH1 0x0 KECCAK256 SWAP1 POP PUSH1 0x0 PUSH1 0x10 PUSH1 0x0 DUP6 DUP2 MSTORE PUSH1 0x20 ADD SWAP1 DUP2 MSTORE PUSH1 0x20 ADD PUSH1 0x0 KECCAK256 SWAP1 POP PUSH2 0xE45 DUP6 PUSH2 0x2AAE JUMP JUMPDEST DUP1 ISZERO PUSH2 0xE56 JUMPI POP PUSH2 0xE55 DUP5 PUSH2 0x2AAE JUMP JUMPDEST JUMPDEST PUSH2 0xE95 JUMPI PUSH1 0x40 MLOAD PUSH32 0x8C379A000000000000000000000000000000000000000000000000000000000 DUP2 MSTORE PUSH1 0x4 ADD PUSH2 0xE8C SWAP1 PUSH2 0x492D JUMP JUMPDEST PUSH1 0x40 MLOAD DUP1 SWAP2 SUB SWAP1 REVERT JUMPDEST CALLER PUSH20 0xFFFFFFFFFFFFFFFFFFFFFFFFFFFFFFFFFFFFFFFF AND PUSH2 0xEB5 DUP7 PUSH2 0xB52 JUMP JUMPDEST PUSH20 0xFFFFFFFFFFFFFFFFFFFFFFFFFFFFFFFFFFFFFFFF AND EQ DUP1 ISZERO PUSH2 0xF0B JUMPI POP CALLER PUSH20 0xFFFFFFFFFFFFFFFFFFFFFFFFFFFFFFFFFFFFFFFF AND PUSH2 0xEF3 DUP6 PUSH2 0xB52 JUMP JUMPDEST PUSH20 0xFFFFFFFFFFFFFFFFFFFFFFFFFFFFFFFFFFFFFFFF AND EQ JUMPDEST PUSH2 0xF14 JUMPI PUSH1 0x0 DUP1 REVERT JUMPDEST DUP1 PUSH1 0x0 ADD PUSH1 0x0 SWAP1 SLOAD SWAP1 PUSH2 0x100 EXP SWAP1 DIV PUSH1 0xFF AND ISZERO ISZERO DUP3 PUSH1 0x0 ADD PUSH1 0x0 SWAP1 SLOAD SWAP1 PUSH2 0x100 EXP SWAP1 DIV PUSH1 0xFF AND ISZERO ISZERO EQ ISZERO PUSH2 0xF7D JUMPI PUSH1 0x40 MLOAD PUSH32 0x8C379A000000000000000000000000000000000000000000000000000000000 DUP2 MSTORE PUSH1 0x4 ADD PUSH2 0xF74 SWAP1 PUSH2 0x494D JUMP JUMPDEST PUSH1 0x40 MLOAD DUP1 SWAP2 SUB SWAP1 REVERT JUMPDEST PUSH3 0xD2F00 DUP3 PUSH1 0x4 ADD SLOAD TIMESTAMP PUSH2 0xF91 SWAP2 SWAP1 PUSH2 0x4D26 JUMP JUMPDEST LT ISZERO DUP1 ISZERO PUSH2 0xFB1 JUMPI POP PUSH3 0xD2F00 DUP2 PUSH1 0x4 ADD SLOAD TIMESTAMP PUSH2 0xFAE SWAP2 SWAP1 PUSH2 0x4D26 JUMP JUMPDEST LT ISZERO JUMPDEST PUSH2 0xFF0 JUMPI PUSH1 0x40 MLOAD PUSH32 0x8C379A000000000000000000000000000000000000000000000000000000000 DUP2 MSTORE PUSH1 0x4 ADD PUSH2 0xFE7 SWAP1 PUSH2 0x4B2D JUMP JUMPDEST PUSH1 0x40 MLOAD DUP1 SWAP2 SUB SWAP1 REVERT JUMPDEST PUSH3 0xD2F00 DUP3 PUSH1 0x5 ADD SLOAD TIMESTAMP PUSH2 0x1004 SWAP2 SWAP1 PUSH2 0x4D26 JUMP JUMPDEST LT DUP1 ISZERO PUSH2 0x1022 JUMPI POP PUSH3 0xD2F00 DUP2 PUSH1 0x5 ADD SLOAD TIMESTAMP PUSH2 0x1020 SWAP2 SWAP1 PUSH2 0x4D26 JUMP JUMPDEST LT JUMPDEST PUSH2 0x1061 JUMPI PUSH1 0x40 MLOAD PUSH32 0x8C379A000000000000000000000000000000000000000000000000000000000 DUP2 MSTORE PUSH1 0x4 ADD PUSH2 0x1058 SWAP1 PUSH2 0x484D JUMP JUMPDEST PUSH1 0x40 MLOAD DUP1 SWAP2 SUB SWAP1 REVERT JUMPDEST PUSH1 0x0 DUP3 PUSH1 0x3 ADD SLOAD TIMESTAMP PUSH2 0x1073 SWAP2 SWAP1 PUSH2 0x4D26 JUMP JUMPDEST SWAP1 POP PUSH1 0x0 DUP3 PUSH1 0x3 ADD SLOAD TIMESTAMP PUSH2 0x1087 SWAP2 SWAP1 PUSH2 0x4D26 JUMP JUMPDEST SWAP1 POP PUSH3 0x4F1A00 DUP3 GT DUP1 ISZERO PUSH2 0x109D JUMPI POP PUSH3 0x76A700 DUP3 LT JUMPDEST DUP1 ISZERO PUSH2 0x10AB JUMPI POP PUSH3 0x4F1A00 DUP2 GT JUMPDEST DUP1 ISZERO PUSH2 0x10B9 JUMPI POP PUSH3 0x76A700 DUP2 LT JUMPDEST PUSH2 0x10F8 JUMPI PUSH1 0x40 MLOAD PUSH32 0x8C379A000000000000000000000000000000000000000000000000000000000 DUP2 MSTORE PUSH1 0x4 ADD PUSH2 0x10EF SWAP1 PUSH2 0x4A2D JUMP JUMPDEST PUSH1 0x40 MLOAD DUP1 SWAP2 SUB SWAP1 REVERT JUMPDEST PUSH1 0x0 PUSH1 0xE PUSH1 0x0 SWAP1 SLOAD SWAP1 PUSH2 0x100 EXP SWAP1 DIV PUSH20 0xFFFFFFFFFFFFFFFFFFFFFFFFFFFFFFFFFFFFFFFF AND PUSH20 0xFFFFFFFFFFFFFFFFFFFFFFFFFFFFFFFFFFFFFFFF AND PUSH4 0x1A4FB525 PUSH1 0x40 MLOAD DUP2 PUSH4 0xFFFFFFFF AND PUSH1 0xE0 SHL DUP2 MSTORE PUSH1 0x4 ADD PUSH1 0x20 PUSH1 0x40 MLOAD DUP1 DUP4 SUB DUP2 DUP7 DUP1 EXTCODESIZE ISZERO DUP1 ISZERO PUSH2 0x1162 JUMPI PUSH1 0x0 DUP1 REVERT JUMPDEST POP GAS STATICCALL ISZERO DUP1 ISZERO PUSH2 0x1176 JUMPI RETURNDATASIZE PUSH1 0x0 DUP1 RETURNDATACOPY RETURNDATASIZE PUSH1 0x0 REVERT JUMPDEST POP POP POP POP PUSH1 0x40 MLOAD RETURNDATASIZE PUSH1 0x1F NOT PUSH1 0x1F DUP3 ADD AND DUP3 ADD DUP1 PUSH1 0x40 MSTORE POP DUP2 ADD SWAP1 PUSH2 0x119A SWAP2 SWAP1 PUSH2 0x3C27 JUMP JUMPDEST SWAP1 POP PUSH2 0x11A6 PUSH1 0xB PUSH2 0x2FDB JUMP JUMPDEST PUSH2 0x11B9 CALLER PUSH2 0x11B4 PUSH1 0xB PUSH2 0x2FF1 JUMP JUMPDEST PUSH2 0x2FFF JUMP JUMPDEST PUSH1 0x0 DUP1 PUSH2 0x11C4 PUSH2 0x301D JUMP JUMPDEST SWAP1 POP PUSH1 0x0 PUSH1 0x2 DUP3 PUSH2 0x11D5 SWAP2 SWAP1 PUSH2 0x4F10 JUMP JUMPDEST EQ ISZERO PUSH2 0x11E0 JUMPI PUSH1 0x1 SWAP2 POP JUMPDEST PUSH1 0x0 DUP4 PUSH20 0xFFFFFFFFFFFFFFFFFFFFFFFFFFFFFFFFFFFFFFFF AND PUSH4 0x11372E42 PUSH1 0x40 MLOAD DUP2 PUSH4 0xFFFFFFFF AND PUSH1 0xE0 SHL DUP2 MSTORE PUSH1 0x4 ADD PUSH1 0x20 PUSH1 0x40 MLOAD DUP1 DUP4 SUB DUP2 DUP7 DUP1 EXTCODESIZE ISZERO DUP1 ISZERO PUSH2 0x1228 JUMPI PUSH1 0x0 DUP1 REVERT JUMPDEST POP GAS STATICCALL ISZERO DUP1 ISZERO PUSH2 0x123C JUMPI RETURNDATASIZE PUSH1 0x0 DUP1 RETURNDATACOPY RETURNDATASIZE PUSH1 0x0 REVERT JUMPDEST POP POP POP POP PUSH1 0x40 MLOAD RETURNDATASIZE PUSH1 0x1F NOT PUSH1 0x1F DUP3 ADD AND DUP3 ADD DUP1 PUSH1 0x40 MSTORE POP DUP2 ADD SWAP1 PUSH2 0x1260 SWAP2 SWAP1 PUSH2 0x3EDE JUMP JUMPDEST DUP3 PUSH2 0x126B SWAP2 SWAP1 PUSH2 0x4F10 JUMP JUMPDEST SWAP1 POP PUSH1 0x0 DUP5 PUSH20 0xFFFFFFFFFFFFFFFFFFFFFFFFFFFFFFFFFFFFFFFF AND PUSH4 0xF91D443F DUP4 PUSH1 0x40 MLOAD DUP3 PUSH4 0xFFFFFFFF AND PUSH1 0xE0 SHL DUP2 MSTORE PUSH1 0x4 ADD PUSH2 0x12A8 SWAP2 SWAP1 PUSH2 0x4BFE JUMP JUMPDEST PUSH1 0x20 PUSH1 0x40 MLOAD DUP1 DUP4 SUB DUP2 DUP7 DUP1 EXTCODESIZE ISZERO DUP1 ISZERO PUSH2 0x12C0 JUMPI PUSH1 0x0 DUP1 REVERT JUMPDEST POP GAS STATICCALL ISZERO DUP1 ISZERO PUSH2 0x12D4 JUMPI RETURNDATASIZE PUSH1 0x0 DUP1 RETURNDATACOPY RETURNDATASIZE PUSH1 0x0 REVERT JUMPDEST POP POP POP POP PUSH1 0x40 MLOAD RETURNDATASIZE PUSH1 0x1F NOT PUSH1 0x1F DUP3 ADD AND DUP3 ADD DUP1 PUSH1 0x40 MSTORE POP DUP2 ADD SWAP1 PUSH2 0x12F8 SWAP2 SWAP1 PUSH2 0x3E84 JUMP JUMPDEST SWAP1 POP TIMESTAMP DUP10 PUSH1 0x4 ADD DUP2 SWAP1 SSTORE POP TIMESTAMP DUP9 PUSH1 0x4 ADD DUP2 SWAP1 SSTORE POP PUSH1 0x40 MLOAD DUP1 PUSH1 0xC0 ADD PUSH1 0x40 MSTORE DUP1 DUP6 ISZERO ISZERO DUP2 MSTORE PUSH1 0x20 ADD DUP4 DUP2 MSTORE PUSH1 0x20 ADD DUP3 DUP2 MSTORE PUSH1 0x20 ADD TIMESTAMP DUP2 MSTORE PUSH1 0x20 ADD PUSH1 0x0 DUP2 MSTORE PUSH1 0x20 ADD TIMESTAMP DUP2 MSTORE POP PUSH1 0x10 PUSH1 0x0 PUSH2 0x134A PUSH1 0xB PUSH2 0x2FF1 JUMP JUMPDEST DUP2 MSTORE PUSH1 0x20 ADD SWAP1 DUP2 MSTORE PUSH1 0x20 ADD PUSH1 0x0 KECCAK256 PUSH1 0x0 DUP3 ADD MLOAD DUP2 PUSH1 0x0 ADD PUSH1 0x0 PUSH2 0x100 EXP DUP2 SLOAD DUP2 PUSH1 0xFF MUL NOT AND SWAP1 DUP4 ISZERO ISZERO MUL OR SWAP1 SSTORE POP PUSH1 0x20 DUP3 ADD MLOAD DUP2 PUSH1 0x1 ADD SSTORE PUSH1 0x40 DUP3 ADD MLOAD DUP2 PUSH1 0x2 ADD SSTORE PUSH1 0x60 DUP3 ADD MLOAD DUP2 PUSH1 0x3 ADD SSTORE PUSH1 0x80 DUP3 ADD MLOAD DUP2 PUSH1 0x4 ADD SSTORE PUSH1 0xA0 DUP3 ADD MLOAD DUP2 PUSH1 0x5 ADD SSTORE SWAP1 POP POP CALLER PUSH20 0xFFFFFFFFFFFFFFFFFFFFFFFFFFFFFFFFFFFFFFFF AND PUSH2 0x13CE PUSH1 0xB PUSH2 0x2FF1 JUMP JUMPDEST PUSH32 0xF3DAFA201B293AF34B31521A82FE34A6E291EEF2F203189DCA10838E0C30D820 PUSH1 0x10 PUSH1 0x0 PUSH2 0x13FD PUSH1 0xB PUSH2 0x2FF1 JUMP JUMPDEST DUP2 MSTORE PUSH1 0x20 ADD SWAP1 DUP2 MSTORE PUSH1 0x20 ADD PUSH1 0x0 KECCAK256 PUSH1 0x40 MLOAD PUSH2 0x1418 SWAP2 SWAP1 PUSH2 0x4BC8 JUMP JUMPDEST PUSH1 0x40 MLOAD DUP1 SWAP2 SUB SWAP1 LOG3 PUSH1 0x10 PUSH1 0x0 PUSH2 0x142E PUSH1 0xB PUSH2 0x2FF1 JUMP JUMPDEST DUP2 MSTORE PUSH1 0x20 ADD SWAP1 DUP2 MSTORE PUSH1 0x20 ADD PUSH1 0x0 KECCAK256 PUSH1 0x40 MLOAD DUP1 PUSH1 0xC0 ADD PUSH1 0x40 MSTORE SWAP1 DUP2 PUSH1 0x0 DUP3 ADD PUSH1 0x0 SWAP1 SLOAD SWAP1 PUSH2 0x100 EXP SWAP1 DIV PUSH1 0xFF AND ISZERO ISZERO ISZERO ISZERO DUP2 MSTORE PUSH1 0x20 ADD PUSH1 0x1 DUP3 ADD SLOAD DUP2 MSTORE PUSH1 0x20 ADD PUSH1 0x2 DUP3 ADD SLOAD DUP2 MSTORE PUSH1 0x20 ADD PUSH1 0x3 DUP3 ADD SLOAD DUP2 MSTORE PUSH1 0x20 ADD PUSH1 0x4 DUP3 ADD SLOAD DUP2 MSTORE PUSH1 0x20 ADD PUSH1 0x5 DUP3 ADD SLOAD DUP2 MSTORE POP POP SWAP10 POP POP POP POP POP POP POP POP POP POP SWAP3 SWAP2 POP POP JUMP JUMPDEST PUSH2 0x14B7 PUSH2 0x14B0 PUSH2 0x2B1A JUMP JUMPDEST DUP4 DUP4 PUSH2 0x3063 JUMP JUMPDEST POP POP JUMP JUMPDEST PUSH2 0x1388 DUP2 JUMP JUMPDEST PUSH2 0x14D2 PUSH2 0x14CC PUSH2 0x2B1A JUMP JUMPDEST DUP4 PUSH2 0x2BDB JUMP JUMPDEST PUSH2 0x1511 JUMPI PUSH1 0x40 MLOAD PUSH32 0x8C379A000000000000000000000000000000000000000000000000000000000 DUP2 MSTORE PUSH1 0x4 ADD PUSH2 0x1508 SWAP1 PUSH2 0x4B0D JUMP JUMPDEST PUSH1 0x40 MLOAD DUP1 SWAP2 SUB SWAP1 REVERT JUMPDEST PUSH2 0x151D DUP5 DUP5 DUP5 DUP5 PUSH2 0x31D0 JUMP JUMPDEST POP POP POP POP JUMP JUMPDEST PUSH8 0xDE0B6B3A7640000 DUP2 JUMP JUMPDEST PUSH1 0x60 PUSH2 0x153A DUP3 PUSH2 0x2AAE JUMP JUMPDEST PUSH2 0x1579 JUMPI PUSH1 0x40 MLOAD PUSH32 0x8C379A000000000000000000000000000000000000000000000000000000000 DUP2 MSTORE PUSH1 0x4 ADD PUSH2 0x1570 SWAP1 PUSH2 0x48AD JUMP JUMPDEST PUSH1 0x40 MLOAD DUP1 SWAP2 SUB SWAP1 REVERT JUMPDEST PUSH1 0x0 PUSH1 0x10 PUSH1 0x0 DUP5 DUP2 MSTORE PUSH1 0x20 ADD SWAP1 DUP2 MSTORE PUSH1 0x20 ADD PUSH1 0x0 KECCAK256 SWAP1 POP PUSH1 0x0 DUP2 PUSH1 0x3 ADD SLOAD TIMESTAMP PUSH2 0x15A2 SWAP2 SWAP1 PUSH2 0x4D26 JUMP JUMPDEST SWAP1 POP PUSH3 0x9E3400 DUP2 LT DUP1 ISZERO PUSH2 0x15C7 JUMPI POP PUSH3 0x1E5280 DUP3 PUSH1 0x5 ADD SLOAD TIMESTAMP PUSH2 0x15C5 SWAP2 SWAP1 PUSH2 0x4D26 JUMP JUMPDEST LT JUMPDEST ISZERO PUSH2 0x1B54 JUMPI DUP2 PUSH1 0x0 ADD PUSH1 0x0 SWAP1 SLOAD SWAP1 PUSH2 0x100 EXP SWAP1 DIV PUSH1 0xFF AND ISZERO PUSH2 0x189B JUMPI PUSH3 0x76A700 DUP2 GT ISZERO PUSH2 0x1694 JUMPI PUSH1 0x11 PUSH1 0x0 PUSH1 0x3 DUP2 MSTORE PUSH1 0x20 ADD SWAP1 DUP2 MSTORE PUSH1 0x20 ADD PUSH1 0x0 KECCAK256 DUP1 SLOAD PUSH2 0x160D SWAP1 PUSH2 0x4E5F JUMP JUMPDEST DUP1 PUSH1 0x1F ADD PUSH1 0x20 DUP1 SWAP2 DIV MUL PUSH1 0x20 ADD PUSH1 0x40 MLOAD SWAP1 DUP2 ADD PUSH1 0x40 MSTORE DUP1 SWAP3 SWAP2 SWAP1 DUP2 DUP2 MSTORE PUSH1 0x20 ADD DUP3 DUP1 SLOAD PUSH2 0x1639 SWAP1 PUSH2 0x4E5F JUMP JUMPDEST DUP1 ISZERO PUSH2 0x1686 JUMPI DUP1 PUSH1 0x1F LT PUSH2 0x165B JUMPI PUSH2 0x100 DUP1 DUP4 SLOAD DIV MUL DUP4 MSTORE SWAP2 PUSH1 0x20 ADD SWAP2 PUSH2 0x1686 JUMP JUMPDEST DUP3 ADD SWAP2 SWAP1 PUSH1 0x0 MSTORE PUSH1 0x20 PUSH1 0x0 KECCAK256 SWAP1 JUMPDEST DUP2 SLOAD DUP2 MSTORE SWAP1 PUSH1 0x1 ADD SWAP1 PUSH1 0x20 ADD DUP1 DUP4 GT PUSH2 0x1669 JUMPI DUP3 SWAP1 SUB PUSH1 0x1F AND DUP3 ADD SWAP2 JUMPDEST POP POP POP POP POP SWAP3 POP POP POP PUSH2 0x1BF6 JUMP JUMPDEST PUSH3 0x4F1A00 DUP2 GT ISZERO PUSH2 0x1745 JUMPI PUSH1 0x11 PUSH1 0x0 PUSH1 0x2 DUP2 MSTORE PUSH1 0x20 ADD SWAP1 DUP2 MSTORE PUSH1 0x20 ADD PUSH1 0x0 KECCAK256 DUP1 SLOAD PUSH2 0x16BE SWAP1 PUSH2 0x4E5F JUMP JUMPDEST DUP1 PUSH1 0x1F ADD PUSH1 0x20 DUP1 SWAP2 DIV MUL PUSH1 0x20 ADD PUSH1 0x40 MLOAD SWAP1 DUP2 ADD PUSH1 0x40 MSTORE DUP1 SWAP3 SWAP2 SWAP1 DUP2 DUP2 MSTORE PUSH1 0x20 ADD DUP3 DUP1 SLOAD PUSH2 0x16EA SWAP1 PUSH2 0x4E5F JUMP JUMPDEST DUP1 ISZERO PUSH2 0x1737 JUMPI DUP1 PUSH1 0x1F LT PUSH2 0x170C JUMPI PUSH2 0x100 DUP1 DUP4 SLOAD DIV MUL DUP4 MSTORE SWAP2 PUSH1 0x20 ADD SWAP2 PUSH2 0x1737 JUMP JUMPDEST DUP3 ADD SWAP2 SWAP1 PUSH1 0x0 MSTORE PUSH1 0x20 PUSH1 0x0 KECCAK256 SWAP1 JUMPDEST DUP2 SLOAD DUP2 MSTORE SWAP1 PUSH1 0x1 ADD SWAP1 PUSH1 0x20 ADD DUP1 DUP4 GT PUSH2 0x171A JUMPI DUP3 SWAP1 SUB PUSH1 0x1F AND DUP3 ADD SWAP2 JUMPDEST POP POP POP POP POP SWAP3 POP POP POP PUSH2 0x1BF6 JUMP JUMPDEST PUSH3 0x278D00 DUP2 GT ISZERO PUSH2 0x17F6 JUMPI PUSH1 0x11 PUSH1 0x0 PUSH1 0x1 DUP2 MSTORE PUSH1 0x20 ADD SWAP1 DUP2 MSTORE PUSH1 0x20 ADD PUSH1 0x0 KECCAK256 DUP1 SLOAD PUSH2 0x176F SWAP1 PUSH2 0x4E5F JUMP JUMPDEST DUP1 PUSH1 0x1F ADD PUSH1 0x20 DUP1 SWAP2 DIV MUL PUSH1 0x20 ADD PUSH1 0x40 MLOAD SWAP1 DUP2 ADD PUSH1 0x40 MSTORE DUP1 SWAP3 SWAP2 SWAP1 DUP2 DUP2 MSTORE PUSH1 0x20 ADD DUP3 DUP1 SLOAD PUSH2 0x179B SWAP1 PUSH2 0x4E5F JUMP JUMPDEST DUP1 ISZERO PUSH2 0x17E8 JUMPI DUP1 PUSH1 0x1F LT PUSH2 0x17BD JUMPI PUSH2 0x100 DUP1 DUP4 SLOAD DIV MUL DUP4 MSTORE SWAP2 PUSH1 0x20 ADD SWAP2 PUSH2 0x17E8 JUMP JUMPDEST DUP3 ADD SWAP2 SWAP1 PUSH1 0x0 MSTORE PUSH1 0x20 PUSH1 0x0 KECCAK256 SWAP1 JUMPDEST DUP2 SLOAD DUP2 MSTORE SWAP1 PUSH1 0x1 ADD SWAP1 PUSH1 0x20 ADD DUP1 DUP4 GT PUSH2 0x17CB JUMPI DUP3 SWAP1 SUB PUSH1 0x1F AND DUP3 ADD SWAP2 JUMPDEST POP POP POP POP POP SWAP3 POP POP POP PUSH2 0x1BF6 JUMP JUMPDEST PUSH1 0x11 PUSH1 0x0 DUP1 DUP2 MSTORE PUSH1 0x20 ADD SWAP1 DUP2 MSTORE PUSH1 0x20 ADD PUSH1 0x0 KECCAK256 DUP1 SLOAD PUSH2 0x1814 SWAP1 PUSH2 0x4E5F JUMP JUMPDEST DUP1 PUSH1 0x1F ADD PUSH1 0x20 DUP1 SWAP2 DIV MUL PUSH1 0x20 ADD PUSH1 0x40 MLOAD SWAP1 DUP2 ADD PUSH1 0x40 MSTORE DUP1 SWAP3 SWAP2 SWAP1 DUP2 DUP2 MSTORE PUSH1 0x20 ADD DUP3 DUP1 SLOAD PUSH2 0x1840 SWAP1 PUSH2 0x4E5F JUMP JUMPDEST DUP1 ISZERO PUSH2 0x188D JUMPI DUP1 PUSH1 0x1F LT PUSH2 0x1862 JUMPI PUSH2 0x100 DUP1 DUP4 SLOAD DIV MUL DUP4 MSTORE SWAP2 PUSH1 0x20 ADD SWAP2 PUSH2 0x188D JUMP JUMPDEST DUP3 ADD SWAP2 SWAP1 PUSH1 0x0 MSTORE PUSH1 0x20 PUSH1 0x0 KECCAK256 SWAP1 JUMPDEST DUP2 SLOAD DUP2 MSTORE SWAP1 PUSH1 0x1 ADD SWAP1 PUSH1 0x20 ADD DUP1 DUP4 GT PUSH2 0x1870 JUMPI DUP3 SWAP1 SUB PUSH1 0x1F AND DUP3 ADD SWAP2 JUMPDEST POP POP POP POP POP SWAP3 POP POP POP PUSH2 0x1BF6 JUMP JUMPDEST PUSH3 0x76A700 DUP2 GT ISZERO PUSH2 0x194C JUMPI PUSH1 0x11 PUSH1 0x0 PUSH1 0x7 DUP2 MSTORE PUSH1 0x20 ADD SWAP1 DUP2 MSTORE PUSH1 0x20 ADD PUSH1 0x0 KECCAK256 DUP1 SLOAD PUSH2 0x18C5 SWAP1 PUSH2 0x4E5F JUMP JUMPDEST DUP1 PUSH1 0x1F ADD PUSH1 0x20 DUP1 SWAP2 DIV MUL PUSH1 0x20 ADD PUSH1 0x40 MLOAD SWAP1 DUP2 ADD PUSH1 0x40 MSTORE DUP1 SWAP3 SWAP2 SWAP1 DUP2 DUP2 MSTORE PUSH1 0x20 ADD DUP3 DUP1 SLOAD PUSH2 0x18F1 SWAP1 PUSH2 0x4E5F JUMP JUMPDEST DUP1 ISZERO PUSH2 0x193E JUMPI DUP1 PUSH1 0x1F LT PUSH2 0x1913 JUMPI PUSH2 0x100 DUP1 DUP4 SLOAD DIV MUL DUP4 MSTORE SWAP2 PUSH1 0x20 ADD SWAP2 PUSH2 0x193E JUMP JUMPDEST DUP3 ADD SWAP2 SWAP1 PUSH1 0x0 MSTORE PUSH1 0x20 PUSH1 0x0 KECCAK256 SWAP1 JUMPDEST DUP2 SLOAD DUP2 MSTORE SWAP1 PUSH1 0x1 ADD SWAP1 PUSH1 0x20 ADD DUP1 DUP4 GT PUSH2 0x1921 JUMPI DUP3 SWAP1 SUB PUSH1 0x1F AND DUP3 ADD SWAP2 JUMPDEST POP POP POP POP POP SWAP3 POP POP POP PUSH2 0x1BF6 JUMP JUMPDEST PUSH3 0x4F1A00 DUP2 GT ISZERO PUSH2 0x19FD JUMPI PUSH1 0x11 PUSH1 0x0 PUSH1 0x6 DUP2 MSTORE PUSH1 0x20 ADD SWAP1 DUP2 MSTORE PUSH1 0x20 ADD PUSH1 0x0 KECCAK256 DUP1 SLOAD PUSH2 0x1976 SWAP1 PUSH2 0x4E5F JUMP JUMPDEST DUP1 PUSH1 0x1F ADD PUSH1 0x20 DUP1 SWAP2 DIV MUL PUSH1 0x20 ADD PUSH1 0x40 MLOAD SWAP1 DUP2 ADD PUSH1 0x40 MSTORE DUP1 SWAP3 SWAP2 SWAP1 DUP2 DUP2 MSTORE PUSH1 0x20 ADD DUP3 DUP1 SLOAD PUSH2 0x19A2 SWAP1 PUSH2 0x4E5F JUMP JUMPDEST DUP1 ISZERO PUSH2 0x19EF JUMPI DUP1 PUSH1 0x1F LT PUSH2 0x19C4 JUMPI PUSH2 0x100 DUP1 DUP4 SLOAD DIV MUL DUP4 MSTORE SWAP2 PUSH1 0x20 ADD SWAP2 PUSH2 0x19EF JUMP JUMPDEST DUP3 ADD SWAP2 SWAP1 PUSH1 0x0 MSTORE PUSH1 0x20 PUSH1 0x0 KECCAK256 SWAP1 JUMPDEST DUP2 SLOAD DUP2 MSTORE SWAP1 PUSH1 0x1 ADD SWAP1 PUSH1 0x20 ADD DUP1 DUP4 GT PUSH2 0x19D2 JUMPI DUP3 SWAP1 SUB PUSH1 0x1F AND DUP3 ADD SWAP2 JUMPDEST POP POP POP POP POP SWAP3 POP POP POP PUSH2 0x1BF6 JUMP JUMPDEST PUSH3 0x278D00 DUP2 GT ISZERO PUSH2 0x1AAE JUMPI PUSH1 0x11 PUSH1 0x0 PUSH1 0x5 DUP2 MSTORE PUSH1 0x20 ADD SWAP1 DUP2 MSTORE PUSH1 0x20 ADD PUSH1 0x0 KECCAK256 DUP1 SLOAD PUSH2 0x1A27 SWAP1 PUSH2 0x4E5F JUMP JUMPDEST DUP1 PUSH1 0x1F ADD PUSH1 0x20 DUP1 SWAP2 DIV MUL PUSH1 0x20 ADD PUSH1 0x40 MLOAD SWAP1 DUP2 ADD PUSH1 0x40 MSTORE DUP1 SWAP3 SWAP2 SWAP1 DUP2 DUP2 MSTORE PUSH1 0x20 ADD DUP3 DUP1 SLOAD PUSH2 0x1A53 SWAP1 PUSH2 0x4E5F JUMP JUMPDEST DUP1 ISZERO PUSH2 0x1AA0 JUMPI DUP1 PUSH1 0x1F LT PUSH2 0x1A75 JUMPI PUSH2 0x100 DUP1 DUP4 SLOAD DIV MUL DUP4 MSTORE SWAP2 PUSH1 0x20 ADD SWAP2 PUSH2 0x1AA0 JUMP JUMPDEST DUP3 ADD SWAP2 SWAP1 PUSH1 0x0 MSTORE PUSH1 0x20 PUSH1 0x0 KECCAK256 SWAP1 JUMPDEST DUP2 SLOAD DUP2 MSTORE SWAP1 PUSH1 0x1 ADD SWAP1 PUSH1 0x20 ADD DUP1 DUP4 GT PUSH2 0x1A83 JUMPI DUP3 SWAP1 SUB PUSH1 0x1F AND DUP3 ADD SWAP2 JUMPDEST POP POP POP POP POP SWAP3 POP POP POP PUSH2 0x1BF6 JUMP JUMPDEST PUSH1 0x11 PUSH1 0x0 PUSH1 0x4 DUP2 MSTORE PUSH1 0x20 ADD SWAP1 DUP2 MSTORE PUSH1 0x20 ADD PUSH1 0x0 KECCAK256 DUP1 SLOAD PUSH2 0x1ACD SWAP1 PUSH2 0x4E5F JUMP JUMPDEST DUP1 PUSH1 0x1F ADD PUSH1 0x20 DUP1 SWAP2 DIV MUL PUSH1 0x20 ADD PUSH1 0x40 MLOAD SWAP1 DUP2 ADD PUSH1 0x40 MSTORE DUP1 SWAP3 SWAP2 SWAP1 DUP2 DUP2 MSTORE PUSH1 0x20 ADD DUP3 DUP1 SLOAD PUSH2 0x1AF9 SWAP1 PUSH2 0x4E5F JUMP JUMPDEST DUP1 ISZERO PUSH2 0x1B46 JUMPI DUP1 PUSH1 0x1F LT PUSH2 0x1B1B JUMPI PUSH2 0x100 DUP1 DUP4 SLOAD DIV MUL DUP4 MSTORE SWAP2 PUSH1 0x20 ADD SWAP2 PUSH2 0x1B46 JUMP JUMPDEST DUP3 ADD SWAP2 SWAP1 PUSH1 0x0 MSTORE PUSH1 0x20 PUSH1 0x0 KECCAK256 SWAP1 JUMPDEST DUP2 SLOAD DUP2 MSTORE SWAP1 PUSH1 0x1 ADD SWAP1 PUSH1 0x20 ADD DUP1 DUP4 GT PUSH2 0x1B29 JUMPI DUP3 SWAP1 SUB PUSH1 0x1F AND DUP3 ADD SWAP2 JUMPDEST POP POP POP POP POP SWAP3 POP POP POP PUSH2 0x1BF6 JUMP JUMPDEST PUSH1 0x11 PUSH1 0x0 PUSH1 0x8 DUP2 MSTORE PUSH1 0x20 ADD SWAP1 DUP2 MSTORE PUSH1 0x20 ADD PUSH1 0x0 KECCAK256 DUP1 SLOAD PUSH2 0x1B73 SWAP1 PUSH2 0x4E5F JUMP JUMPDEST DUP1 PUSH1 0x1F ADD PUSH1 0x20 DUP1 SWAP2 DIV MUL PUSH1 0x20 ADD PUSH1 0x40 MLOAD SWAP1 DUP2 ADD PUSH1 0x40 MSTORE DUP1 SWAP3 SWAP2 SWAP1 DUP2 DUP2 MSTORE PUSH1 0x20 ADD DUP3 DUP1 SLOAD PUSH2 0x1B9F SWAP1 PUSH2 0x4E5F JUMP JUMPDEST DUP1 ISZERO PUSH2 0x1BEC JUMPI DUP1 PUSH1 0x1F LT PUSH2 0x1BC1 JUMPI PUSH2 0x100 DUP1 DUP4 SLOAD DIV MUL DUP4 MSTORE SWAP2 PUSH1 0x20 ADD SWAP2 PUSH2 0x1BEC JUMP JUMPDEST DUP3 ADD SWAP2 SWAP1 PUSH1 0x0 MSTORE PUSH1 0x20 PUSH1 0x0 KECCAK256 SWAP1 JUMPDEST DUP2 SLOAD DUP2 MSTORE SWAP1 PUSH1 0x1 ADD SWAP1 PUSH1 0x20 ADD DUP1 DUP4 GT PUSH2 0x1BCF JUMPI DUP3 SWAP1 SUB PUSH1 0x1F AND DUP3 ADD SWAP2 JUMPDEST POP POP POP POP POP SWAP3 POP POP POP JUMPDEST SWAP2 SWAP1 POP JUMP JUMPDEST PUSH1 0x0 DUP1 PUSH2 0x1C08 PUSH1 0xC PUSH2 0x2FF1 JUMP JUMPDEST PUSH2 0x1C12 PUSH1 0xD PUSH2 0x2FF1 JUMP JUMPDEST SWAP2 POP SWAP2 POP SWAP1 SWAP2 JUMP JUMPDEST PUSH2 0x1C23 DUP2 PUSH2 0x2AAE JUMP JUMPDEST PUSH2 0x1C62 JUMPI PUSH1 0x40 MLOAD PUSH32 0x8C379A000000000000000000000000000000000000000000000000000000000 DUP2 MSTORE PUSH1 0x4 ADD PUSH2 0x1C59 SWAP1 PUSH2 0x48CD JUMP JUMPDEST PUSH1 0x40 MLOAD DUP1 SWAP2 SUB SWAP1 REVERT JUMPDEST PUSH1 0x64 PUSH1 0xF PUSH1 0x0 SWAP1 SLOAD SWAP1 PUSH2 0x100 EXP SWAP1 DIV PUSH20 0xFFFFFFFFFFFFFFFFFFFFFFFFFFFFFFFFFFFFFFFF AND PUSH20 0xFFFFFFFFFFFFFFFFFFFFFFFFFFFFFFFFFFFFFFFF AND PUSH4 0x70A08231 CALLER PUSH1 0x40 MLOAD DUP3 PUSH4 0xFFFFFFFF AND PUSH1 0xE0 SHL DUP2 MSTORE PUSH1 0x4 ADD PUSH2 0x1CBF SWAP2 SWAP1 PUSH2 0x468E JUMP JUMPDEST PUSH1 0x20 PUSH1 0x40 MLOAD DUP1 DUP4 SUB DUP2 DUP7 DUP1 EXTCODESIZE ISZERO DUP1 ISZERO PUSH2 0x1CD7 JUMPI PUSH1 0x0 DUP1 REVERT JUMPDEST POP GAS STATICCALL ISZERO DUP1 ISZERO PUSH2 0x1CEB JUMPI RETURNDATASIZE PUSH1 0x0 DUP1 RETURNDATACOPY RETURNDATASIZE PUSH1 0x0 REVERT JUMPDEST POP POP POP POP PUSH1 0x40 MLOAD RETURNDATASIZE PUSH1 0x1F NOT PUSH1 0x1F DUP3 ADD AND DUP3 ADD DUP1 PUSH1 0x40 MSTORE POP DUP2 ADD SWAP1 PUSH2 0x1D0F SWAP2 SWAP1 PUSH2 0x3EDE JUMP JUMPDEST LT ISZERO PUSH2 0x1D50 JUMPI PUSH1 0x40 MLOAD PUSH32 0x8C379A000000000000000000000000000000000000000000000000000000000 DUP2 MSTORE PUSH1 0x4 ADD PUSH2 0x1D47 SWAP1 PUSH2 0x4A0D JUMP JUMPDEST PUSH1 0x40 MLOAD DUP1 SWAP2 SUB SWAP1 REVERT JUMPDEST PUSH1 0x64 PUSH1 0xF PUSH1 0x0 SWAP1 SLOAD SWAP1 PUSH2 0x100 EXP SWAP1 DIV PUSH20 0xFFFFFFFFFFFFFFFFFFFFFFFFFFFFFFFFFFFFFFFF AND PUSH20 0xFFFFFFFFFFFFFFFFFFFFFFFFFFFFFFFFFFFFFFFF AND PUSH4 0xDD62ED3E CALLER ADDRESS PUSH1 0x40 MLOAD DUP4 PUSH4 0xFFFFFFFF AND PUSH1 0xE0 SHL DUP2 MSTORE PUSH1 0x4 ADD PUSH2 0x1DAF SWAP3 SWAP2 SWAP1 PUSH2 0x46A9 JUMP JUMPDEST PUSH1 0x20 PUSH1 0x40 MLOAD DUP1 DUP4 SUB DUP2 DUP7 DUP1 EXTCODESIZE ISZERO DUP1 ISZERO PUSH2 0x1DC7 JUMPI PUSH1 0x0 DUP1 REVERT JUMPDEST POP GAS STATICCALL ISZERO DUP1 ISZERO PUSH2 0x1DDB JUMPI RETURNDATASIZE PUSH1 0x0 DUP1 RETURNDATACOPY RETURNDATASIZE PUSH1 0x0 REVERT JUMPDEST POP POP POP POP PUSH1 0x40 MLOAD RETURNDATASIZE PUSH1 0x1F NOT PUSH1 0x1F DUP3 ADD AND DUP3 ADD DUP1 PUSH1 0x40 MSTORE POP DUP2 ADD SWAP1 PUSH2 0x1DFF SWAP2 SWAP1 PUSH2 0x3EDE JUMP JUMPDEST LT ISZERO PUSH2 0x1E40 JUMPI PUSH1 0x40 MLOAD PUSH32 0x8C379A000000000000000000000000000000000000000000000000000000000 DUP2 MSTORE PUSH1 0x4 ADD PUSH2 0x1E37 SWAP1 PUSH2 0x4AAD JUMP JUMPDEST PUSH1 0x40 MLOAD DUP1 SWAP2 SUB SWAP1 REVERT JUMPDEST PUSH1 0x0 PUSH1 0x10 PUSH1 0x0 DUP4 DUP2 MSTORE PUSH1 0x20 ADD SWAP1 DUP2 MSTORE PUSH1 0x20 ADD PUSH1 0x0 KECCAK256 SWAP1 POP PUSH3 0x1A5E00 DUP2 PUSH1 0x5 ADD SLOAD TIMESTAMP PUSH2 0x1E6B SWAP2 SWAP1 PUSH2 0x4D26 JUMP JUMPDEST GT PUSH2 0x1EAB JUMPI PUSH1 0x40 MLOAD PUSH32 0x8C379A000000000000000000000000000000000000000000000000000000000 DUP2 MSTORE PUSH1 0x4 ADD PUSH2 0x1EA2 SWAP1 PUSH2 0x4B8D JUMP JUMPDEST PUSH1 0x40 MLOAD DUP1 SWAP2 SUB SWAP1 REVERT JUMPDEST PUSH1 0xF PUSH1 0x0 SWAP1 SLOAD SWAP1 PUSH2 0x100 EXP SWAP1 DIV PUSH20 0xFFFFFFFFFFFFFFFFFFFFFFFFFFFFFFFFFFFFFFFF AND PUSH20 0xFFFFFFFFFFFFFFFFFFFFFFFFFFFFFFFFFFFFFFFF AND PUSH4 0x79CC6790 CALLER PUSH1 0x64 PUSH1 0x40 MLOAD DUP4 PUSH4 0xFFFFFFFF AND PUSH1 0xE0 SHL DUP2 MSTORE PUSH1 0x4 ADD PUSH2 0x1F09 SWAP3 SWAP2 SWAP1 PUSH2 0x471E JUMP JUMPDEST PUSH1 0x0 PUSH1 0x40 MLOAD DUP1 DUP4 SUB DUP2 PUSH1 0x0 DUP8 DUP1 EXTCODESIZE ISZERO DUP1 ISZERO PUSH2 0x1F23 JUMPI PUSH1 0x0 DUP1 REVERT JUMPDEST POP GAS CALL ISZERO DUP1 ISZERO PUSH2 0x1F37 JUMPI RETURNDATASIZE PUSH1 0x0 DUP1 RETURNDATACOPY RETURNDATASIZE PUSH1 0x0 REVERT JUMPDEST POP POP POP POP CALLER PUSH20 0xFFFFFFFFFFFFFFFFFFFFFFFFFFFFFFFFFFFFFFFF AND DUP3 PUSH32 0x6F7A49A22ABD119415401B35BBFEAE26A8C978DF5A985C2D01CCE147275BC5D0 DUP4 PUSH1 0x40 MLOAD PUSH2 0x1F82 SWAP2 SWAP1 PUSH2 0x4BE3 JUMP JUMPDEST PUSH1 0x40 MLOAD DUP1 SWAP2 SUB SWAP1 LOG3 POP POP JUMP JUMPDEST PUSH2 0x1F96 PUSH2 0x3A88 JUMP JUMPDEST DUP3 ISZERO PUSH2 0x1FF8 JUMPI PUSH2 0x1388 PUSH2 0x1FA9 PUSH1 0xC PUSH2 0x2FF1 JUMP JUMPDEST LT PUSH2 0x1FE9 JUMPI PUSH1 0x40 MLOAD PUSH32 0x8C379A000000000000000000000000000000000000000000000000000000000 DUP2 MSTORE PUSH1 0x4 ADD PUSH2 0x1FE0 SWAP1 PUSH2 0x49AD JUMP JUMPDEST PUSH1 0x40 MLOAD DUP1 SWAP2 SUB SWAP1 REVERT JUMPDEST PUSH2 0x1FF3 PUSH1 0xC PUSH2 0x2FDB JUMP JUMPDEST PUSH2 0x2050 JUMP JUMPDEST PUSH2 0x1388 PUSH2 0x2005 PUSH1 0xD PUSH2 0x2FF1 JUMP JUMPDEST LT PUSH2 0x2045 JUMPI PUSH1 0x40 MLOAD PUSH32 0x8C379A000000000000000000000000000000000000000000000000000000000 DUP2 MSTORE PUSH1 0x4 ADD PUSH2 0x203C SWAP1 PUSH2 0x47ED JUMP JUMPDEST PUSH1 0x40 MLOAD DUP1 SWAP2 SUB SWAP1 REVERT JUMPDEST PUSH2 0x204F PUSH1 0xD PUSH2 0x2FDB JUMP JUMPDEST JUMPDEST PUSH1 0x0 PUSH1 0xE PUSH1 0x0 SWAP1 SLOAD SWAP1 PUSH2 0x100 EXP SWAP1 DIV PUSH20 0xFFFFFFFFFFFFFFFFFFFFFFFFFFFFFFFFFFFFFFFF AND PUSH20 0xFFFFFFFFFFFFFFFFFFFFFFFFFFFFFFFFFFFFFFFF AND PUSH4 0x1A4FB525 PUSH1 0x40 MLOAD DUP2 PUSH4 0xFFFFFFFF AND PUSH1 0xE0 SHL DUP2 MSTORE PUSH1 0x4 ADD PUSH1 0x20 PUSH1 0x40 MLOAD DUP1 DUP4 SUB DUP2 DUP7 DUP1 EXTCODESIZE ISZERO DUP1 ISZERO PUSH2 0x20BA JUMPI PUSH1 0x0 DUP1 REVERT JUMPDEST POP GAS STATICCALL ISZERO DUP1 ISZERO PUSH2 0x20CE JUMPI RETURNDATASIZE PUSH1 0x0 DUP1 RETURNDATACOPY RETURNDATASIZE PUSH1 0x0 REVERT JUMPDEST POP POP POP POP PUSH1 0x40 MLOAD RETURNDATASIZE PUSH1 0x1F NOT PUSH1 0x1F DUP3 ADD AND DUP3 ADD DUP1 PUSH1 0x40 MSTORE POP DUP2 ADD SWAP1 PUSH2 0x20F2 SWAP2 SWAP1 PUSH2 0x3C27 JUMP JUMPDEST SWAP1 POP DUP1 PUSH20 0xFFFFFFFFFFFFFFFFFFFFFFFFFFFFFFFFFFFFFFFF AND PUSH4 0x11372E42 PUSH1 0x40 MLOAD DUP2 PUSH4 0xFFFFFFFF AND PUSH1 0xE0 SHL DUP2 MSTORE PUSH1 0x4 ADD PUSH1 0x20 PUSH1 0x40 MLOAD DUP1 DUP4 SUB DUP2 DUP7 DUP1 EXTCODESIZE ISZERO DUP1 ISZERO PUSH2 0x213A JUMPI PUSH1 0x0 DUP1 REVERT JUMPDEST POP GAS STATICCALL ISZERO DUP1 ISZERO PUSH2 0x214E JUMPI RETURNDATASIZE PUSH1 0x0 DUP1 RETURNDATACOPY RETURNDATASIZE PUSH1 0x0 REVERT JUMPDEST POP POP POP POP PUSH1 0x40 MLOAD RETURNDATASIZE PUSH1 0x1F NOT PUSH1 0x1F DUP3 ADD AND DUP3 ADD DUP1 PUSH1 0x40 MSTORE POP DUP2 ADD SWAP1 PUSH2 0x2172 SWAP2 SWAP1 PUSH2 0x3EDE JUMP JUMPDEST DUP4 LT PUSH2 0x21B3 JUMPI PUSH1 0x40 MLOAD PUSH32 0x8C379A000000000000000000000000000000000000000000000000000000000 DUP2 MSTORE PUSH1 0x4 ADD PUSH2 0x21AA SWAP1 PUSH2 0x49ED JUMP JUMPDEST PUSH1 0x40 MLOAD DUP1 SWAP2 SUB SWAP1 REVERT JUMPDEST PUSH8 0xDE0B6B3A7640000 CALLVALUE LT ISZERO PUSH2 0x21FE JUMPI PUSH1 0x40 MLOAD PUSH32 0x8C379A000000000000000000000000000000000000000000000000000000000 DUP2 MSTORE PUSH1 0x4 ADD PUSH2 0x21F5 SWAP1 PUSH2 0x4B6D JUMP JUMPDEST PUSH1 0x40 MLOAD DUP1 SWAP2 SUB SWAP1 REVERT JUMPDEST PUSH2 0x2208 PUSH1 0xB PUSH2 0x2FDB JUMP JUMPDEST PUSH1 0x0 DUP2 PUSH20 0xFFFFFFFFFFFFFFFFFFFFFFFFFFFFFFFFFFFFFFFF AND PUSH4 0xF91D443F DUP6 PUSH1 0x40 MLOAD DUP3 PUSH4 0xFFFFFFFF AND PUSH1 0xE0 SHL DUP2 MSTORE PUSH1 0x4 ADD PUSH2 0x2243 SWAP2 SWAP1 PUSH2 0x4BFE JUMP JUMPDEST PUSH1 0x20 PUSH1 0x40 MLOAD DUP1 DUP4 SUB DUP2 DUP7 DUP1 EXTCODESIZE ISZERO DUP1 ISZERO PUSH2 0x225B JUMPI PUSH1 0x0 DUP1 REVERT JUMPDEST POP GAS STATICCALL ISZERO DUP1 ISZERO PUSH2 0x226F JUMPI RETURNDATASIZE PUSH1 0x0 DUP1 RETURNDATACOPY RETURNDATASIZE PUSH1 0x0 REVERT JUMPDEST POP POP POP POP PUSH1 0x40 MLOAD RETURNDATASIZE PUSH1 0x1F NOT PUSH1 0x1F DUP3 ADD AND DUP3 ADD DUP1 PUSH1 0x40 MSTORE POP DUP2 ADD SWAP1 PUSH2 0x2293 SWAP2 SWAP1 PUSH2 0x3E84 JUMP JUMPDEST SWAP1 POP PUSH1 0x40 MLOAD DUP1 PUSH1 0xC0 ADD PUSH1 0x40 MSTORE DUP1 DUP7 ISZERO ISZERO DUP2 MSTORE PUSH1 0x20 ADD DUP6 DUP2 MSTORE PUSH1 0x20 ADD DUP3 DUP2 MSTORE PUSH1 0x20 ADD PUSH3 0x4F1A00 TIMESTAMP PUSH2 0x22C3 SWAP2 SWAP1 PUSH2 0x4D26 JUMP JUMPDEST DUP2 MSTORE PUSH1 0x20 ADD PUSH1 0x0 DUP2 MSTORE PUSH1 0x20 ADD TIMESTAMP DUP2 MSTORE POP PUSH1 0x10 PUSH1 0x0 PUSH2 0x22E1 PUSH1 0xB PUSH2 0x2FF1 JUMP JUMPDEST DUP2 MSTORE PUSH1 0x20 ADD SWAP1 DUP2 MSTORE PUSH1 0x20 ADD PUSH1 0x0 KECCAK256 PUSH1 0x0 DUP3 ADD MLOAD DUP2 PUSH1 0x0 ADD PUSH1 0x0 PUSH2 0x100 EXP DUP2 SLOAD DUP2 PUSH1 0xFF MUL NOT AND SWAP1 DUP4 ISZERO ISZERO MUL OR SWAP1 SSTORE POP PUSH1 0x20 DUP3 ADD MLOAD DUP2 PUSH1 0x1 ADD SSTORE PUSH1 0x40 DUP3 ADD MLOAD DUP2 PUSH1 0x2 ADD SSTORE PUSH1 0x60 DUP3 ADD MLOAD DUP2 PUSH1 0x3 ADD SSTORE PUSH1 0x80 DUP3 ADD MLOAD DUP2 PUSH1 0x4 ADD SSTORE PUSH1 0xA0 DUP3 ADD MLOAD DUP2 PUSH1 0x5 ADD SSTORE SWAP1 POP POP PUSH2 0x2357 CALLER PUSH2 0x2352 PUSH1 0xB PUSH2 0x2FF1 JUMP JUMPDEST PUSH2 0x2FFF JUMP JUMPDEST CALLER PUSH20 0xFFFFFFFFFFFFFFFFFFFFFFFFFFFFFFFFFFFFFFFF AND PUSH2 0x2378 PUSH1 0xB PUSH2 0x2FF1 JUMP JUMPDEST PUSH32 0x6D627EA064F66E7BB278B4A01B28C7AB24CBAEAE11B0C5E434EDC91DB4D904C7 PUSH1 0x10 PUSH1 0x0 PUSH2 0x23A7 PUSH1 0xB PUSH2 0x2FF1 JUMP JUMPDEST DUP2 MSTORE PUSH1 0x20 ADD SWAP1 DUP2 MSTORE PUSH1 0x20 ADD PUSH1 0x0 KECCAK256 PUSH1 0x40 MLOAD PUSH2 0x23C2 SWAP2 SWAP1 PUSH2 0x4BC8 JUMP JUMPDEST PUSH1 0x40 MLOAD DUP1 SWAP2 SUB SWAP1 LOG3 PUSH1 0x10 PUSH1 0x0 PUSH2 0x23D8 PUSH1 0xB PUSH2 0x2FF1 JUMP JUMPDEST DUP2 MSTORE PUSH1 0x20 ADD SWAP1 DUP2 MSTORE PUSH1 0x20 ADD PUSH1 0x0 KECCAK256 PUSH1 0x40 MLOAD DUP1 PUSH1 0xC0 ADD PUSH1 0x40 MSTORE SWAP1 DUP2 PUSH1 0x0 DUP3 ADD PUSH1 0x0 SWAP1 SLOAD SWAP1 PUSH2 0x100 EXP SWAP1 DIV PUSH1 0xFF AND ISZERO ISZERO ISZERO ISZERO DUP2 MSTORE PUSH1 0x20 ADD PUSH1 0x1 DUP3 ADD SLOAD DUP2 MSTORE PUSH1 0x20 ADD PUSH1 0x2 DUP3 ADD SLOAD DUP2 MSTORE PUSH1 0x20 ADD PUSH1 0x3 DUP3 ADD SLOAD DUP2 MSTORE PUSH1 0x20 ADD PUSH1 0x4 DUP3 ADD SLOAD DUP2 MSTORE PUSH1 0x20 ADD PUSH1 0x5 DUP3 ADD SLOAD DUP2 MSTORE POP POP SWAP3 POP POP POP SWAP3 SWAP2 POP POP JUMP JUMPDEST PUSH1 0x0 PUSH1 0x5 PUSH1 0x0 DUP5 PUSH20 0xFFFFFFFFFFFFFFFFFFFFFFFFFFFFFFFFFFFFFFFF AND PUSH20 0xFFFFFFFFFFFFFFFFFFFFFFFFFFFFFFFFFFFFFFFF AND DUP2 MSTORE PUSH1 0x20 ADD SWAP1 DUP2 MSTORE PUSH1 0x20 ADD PUSH1 0x0 KECCAK256 PUSH1 0x0 DUP4 PUSH20 0xFFFFFFFFFFFFFFFFFFFFFFFFFFFFFFFFFFFFFFFF AND PUSH20 0xFFFFFFFFFFFFFFFFFFFFFFFFFFFFFFFFFFFFFFFF AND DUP2 MSTORE PUSH1 0x20 ADD SWAP1 DUP2 MSTORE PUSH1 0x20 ADD PUSH1 0x0 KECCAK256 PUSH1 0x0 SWAP1 SLOAD SWAP1 PUSH2 0x100 EXP SWAP1 DIV PUSH1 0xFF AND SWAP1 POP SWAP3 SWAP2 POP POP JUMP JUMPDEST PUSH2 0x24E5 DUP2 PUSH2 0x2AAE JUMP JUMPDEST PUSH2 0x2524 JUMPI PUSH1 0x40 MLOAD PUSH32 0x8C379A000000000000000000000000000000000000000000000000000000000 DUP2 MSTORE PUSH1 0x4 ADD PUSH2 0x251B SWAP1 PUSH2 0x48CD JUMP JUMPDEST PUSH1 0x40 MLOAD DUP1 SWAP2 SUB SWAP1 REVERT JUMPDEST PUSH1 0x14 PUSH1 0xF PUSH1 0x0 SWAP1 SLOAD SWAP1 PUSH2 0x100 EXP SWAP1 DIV PUSH20 0xFFFFFFFFFFFFFFFFFFFFFFFFFFFFFFFFFFFFFFFF AND PUSH20 0xFFFFFFFFFFFFFFFFFFFFFFFFFFFFFFFFFFFFFFFF AND PUSH4 0x70A08231 CALLER PUSH1 0x40 MLOAD DUP3 PUSH4 0xFFFFFFFF AND PUSH1 0xE0 SHL DUP2 MSTORE PUSH1 0x4 ADD PUSH2 0x2581 SWAP2 SWAP1 PUSH2 0x468E JUMP JUMPDEST PUSH1 0x20 PUSH1 0x40 MLOAD DUP1 DUP4 SUB DUP2 DUP7 DUP1 EXTCODESIZE ISZERO DUP1 ISZERO PUSH2 0x2599 JUMPI PUSH1 0x0 DUP1 REVERT JUMPDEST POP GAS STATICCALL ISZERO DUP1 ISZERO PUSH2 0x25AD JUMPI RETURNDATASIZE PUSH1 0x0 DUP1 RETURNDATACOPY RETURNDATASIZE PUSH1 0x0 REVERT JUMPDEST POP POP POP POP PUSH1 0x40 MLOAD RETURNDATASIZE PUSH1 0x1F NOT PUSH1 0x1F DUP3 ADD AND DUP3 ADD DUP1 PUSH1 0x40 MSTORE POP DUP2 ADD SWAP1 PUSH2 0x25D1 SWAP2 SWAP1 PUSH2 0x3EDE JUMP JUMPDEST LT ISZERO PUSH2 0x2612 JUMPI PUSH1 0x40 MLOAD PUSH32 0x8C379A000000000000000000000000000000000000000000000000000000000 DUP2 MSTORE PUSH1 0x4 ADD PUSH2 0x2609 SWAP1 PUSH2 0x4A0D JUMP JUMPDEST PUSH1 0x40 MLOAD DUP1 SWAP2 SUB SWAP1 REVERT JUMPDEST PUSH1 0x14 PUSH1 0xF PUSH1 0x0 SWAP1 SLOAD SWAP1 PUSH2 0x100 EXP SWAP1 DIV PUSH20 0xFFFFFFFFFFFFFFFFFFFFFFFFFFFFFFFFFFFFFFFF AND PUSH20 0xFFFFFFFFFFFFFFFFFFFFFFFFFFFFFFFFFFFFFFFF AND PUSH4 0xDD62ED3E CALLER ADDRESS PUSH1 0x40 MLOAD DUP4 PUSH4 0xFFFFFFFF AND PUSH1 0xE0 SHL DUP2 MSTORE PUSH1 0x4 ADD PUSH2 0x2671 SWAP3 SWAP2 SWAP1 PUSH2 0x46A9 JUMP JUMPDEST PUSH1 0x20 PUSH1 0x40 MLOAD DUP1 DUP4 SUB DUP2 DUP7 DUP1 EXTCODESIZE ISZERO DUP1 ISZERO PUSH2 0x2689 JUMPI PUSH1 0x0 DUP1 REVERT JUMPDEST POP GAS STATICCALL ISZERO DUP1 ISZERO PUSH2 0x269D JUMPI RETURNDATASIZE PUSH1 0x0 DUP1 RETURNDATACOPY RETURNDATASIZE PUSH1 0x0 REVERT JUMPDEST POP POP POP POP PUSH1 0x40 MLOAD RETURNDATASIZE PUSH1 0x1F NOT PUSH1 0x1F DUP3 ADD AND DUP3 ADD DUP1 PUSH1 0x40 MSTORE POP DUP2 ADD SWAP1 PUSH2 0x26C1 SWAP2 SWAP1 PUSH2 0x3EDE JUMP JUMPDEST LT ISZERO PUSH2 0x2702 JUMPI PUSH1 0x40 MLOAD PUSH32 0x8C379A000000000000000000000000000000000000000000000000000000000 DUP2 MSTORE PUSH1 0x4 ADD PUSH2 0x26F9 SWAP1 PUSH2 0x4AAD JUMP JUMPDEST PUSH1 0x40 MLOAD DUP1 SWAP2 SUB SWAP1 REVERT JUMPDEST PUSH1 0x0 PUSH1 0x10 PUSH1 0x0 DUP4 DUP2 MSTORE PUSH1 0x20 ADD SWAP1 DUP2 MSTORE PUSH1 0x20 ADD PUSH1 0x0 KECCAK256 SWAP1 POP PUSH3 0x1A5E00 DUP2 PUSH1 0x5 ADD SLOAD TIMESTAMP PUSH2 0x272D SWAP2 SWAP1 PUSH2 0x4D26 JUMP JUMPDEST GT ISZERO PUSH2 0x276E JUMPI PUSH1 0x40 MLOAD PUSH32 0x8C379A000000000000000000000000000000000000000000000000000000000 DUP2 MSTORE PUSH1 0x4 ADD PUSH2 0x2765 SWAP1 PUSH2 0x490D JUMP JUMPDEST PUSH1 0x40 MLOAD DUP1 SWAP2 SUB SWAP1 REVERT JUMPDEST TIMESTAMP DUP2 PUSH1 0x5 ADD DUP2 SWAP1 SSTORE POP PUSH1 0xF PUSH1 0x0 SWAP1 SLOAD SWAP1 PUSH2 0x100 EXP SWAP1 DIV PUSH20 0xFFFFFFFFFFFFFFFFFFFFFFFFFFFFFFFFFFFFFFFF AND PUSH20 0xFFFFFFFFFFFFFFFFFFFFFFFFFFFFFFFFFFFFFFFF AND PUSH4 0x79CC6790 CALLER PUSH1 0x14 PUSH1 0x40 MLOAD DUP4 PUSH4 0xFFFFFFFF AND PUSH1 0xE0 SHL DUP2 MSTORE PUSH1 0x4 ADD PUSH2 0x27D5 SWAP3 SWAP2 SWAP1 PUSH2 0x4747 JUMP JUMPDEST PUSH1 0x0 PUSH1 0x40 MLOAD DUP1 DUP4 SUB DUP2 PUSH1 0x0 DUP8 DUP1 EXTCODESIZE ISZERO DUP1 ISZERO PUSH2 0x27EF JUMPI PUSH1 0x0 DUP1 REVERT JUMPDEST POP GAS CALL ISZERO DUP1 ISZERO PUSH2 0x2803 JUMPI RETURNDATASIZE PUSH1 0x0 DUP1 RETURNDATACOPY RETURNDATASIZE PUSH1 0x0 REVERT JUMPDEST POP POP POP POP CALLER PUSH20 0xFFFFFFFFFFFFFFFFFFFFFFFFFFFFFFFFFFFFFFFF AND DUP3 PUSH32 0x906CBF5D92215112150DB031468AB9191DD94C3E405DEE221CE6F797D34BF44 DUP4 PUSH1 0x40 MLOAD PUSH2 0x284E SWAP2 SWAP1 PUSH2 0x4BE3 JUMP JUMPDEST PUSH1 0x40 MLOAD DUP1 SWAP2 SUB SWAP1 LOG3 POP POP JUMP JUMPDEST PUSH2 0x2862 PUSH2 0x3A88 JUMP JUMPDEST PUSH1 0x10 PUSH1 0x0 DUP4 DUP2 MSTORE PUSH1 0x20 ADD SWAP1 DUP2 MSTORE PUSH1 0x20 ADD PUSH1 0x0 KECCAK256 PUSH1 0x40 MLOAD DUP1 PUSH1 0xC0 ADD PUSH1 0x40 MSTORE SWAP1 DUP2 PUSH1 0x0 DUP3 ADD PUSH1 0x0 SWAP1 SLOAD SWAP1 PUSH2 0x100 EXP SWAP1 DIV PUSH1 0xFF AND ISZERO ISZERO ISZERO ISZERO DUP2 MSTORE PUSH1 0x20 ADD PUSH1 0x1 DUP3 ADD SLOAD DUP2 MSTORE PUSH1 0x20 ADD PUSH1 0x2 DUP3 ADD SLOAD DUP2 MSTORE PUSH1 0x20 ADD PUSH1 0x3 DUP3 ADD SLOAD DUP2 MSTORE PUSH1 0x20 ADD PUSH1 0x4 DUP3 ADD SLOAD DUP2 MSTORE PUSH1 0x20 ADD PUSH1 0x5 DUP3 ADD SLOAD DUP2 MSTORE POP POP SWAP1 POP SWAP2 SWAP1 POP JUMP JUMPDEST PUSH2 0x28DC PUSH2 0x2B1A JUMP JUMPDEST PUSH20 0xFFFFFFFFFFFFFFFFFFFFFFFFFFFFFFFFFFFFFFFF AND PUSH2 0x28FA PUSH2 0xD4A JUMP JUMPDEST PUSH20 0xFFFFFFFFFFFFFFFFFFFFFFFFFFFFFFFFFFFFFFFF AND EQ PUSH2 0x2950 JUMPI PUSH1 0x40 MLOAD PUSH32 0x8C379A000000000000000000000000000000000000000000000000000000000 DUP2 MSTORE PUSH1 0x4 ADD PUSH2 0x2947 SWAP1 PUSH2 0x4A8D JUMP JUMPDEST PUSH1 0x40 MLOAD DUP1 SWAP2 SUB SWAP1 REVERT JUMPDEST PUSH1 0x0 PUSH20 0xFFFFFFFFFFFFFFFFFFFFFFFFFFFFFFFFFFFFFFFF AND DUP2 PUSH20 0xFFFFFFFFFFFFFFFFFFFFFFFFFFFFFFFFFFFFFFFF AND EQ ISZERO PUSH2 0x29C0 JUMPI PUSH1 0x40 MLOAD PUSH32 0x8C379A000000000000000000000000000000000000000000000000000000000 DUP2 MSTORE PUSH1 0x4 ADD PUSH2 0x29B7 SWAP1 PUSH2 0x480D JUMP JUMPDEST PUSH1 0x40 MLOAD DUP1 SWAP2 SUB SWAP1 REVERT JUMPDEST PUSH2 0x29C9 DUP2 PUSH2 0x2F15 JUMP JUMPDEST POP JUMP JUMPDEST PUSH1 0x0 PUSH32 0x80AC58CD00000000000000000000000000000000000000000000000000000000 PUSH28 0xFFFFFFFFFFFFFFFFFFFFFFFFFFFFFFFFFFFFFFFFFFFFFFFFFFFFFFFF NOT AND DUP3 PUSH28 0xFFFFFFFFFFFFFFFFFFFFFFFFFFFFFFFFFFFFFFFFFFFFFFFFFFFFFFFF NOT AND EQ DUP1 PUSH2 0x2A97 JUMPI POP PUSH32 0x5B5E139F00000000000000000000000000000000000000000000000000000000 PUSH28 0xFFFFFFFFFFFFFFFFFFFFFFFFFFFFFFFFFFFFFFFFFFFFFFFFFFFFFFFF NOT AND DUP3 PUSH28 0xFFFFFFFFFFFFFFFFFFFFFFFFFFFFFFFFFFFFFFFFFFFFFFFFFFFFFFFF NOT AND EQ JUMPDEST DUP1 PUSH2 0x2AA7 JUMPI POP PUSH2 0x2AA6 DUP3 PUSH2 0x322C JUMP JUMPDEST JUMPDEST SWAP1 POP SWAP2 SWAP1 POP JUMP JUMPDEST PUSH1 0x0 DUP1 PUSH20 0xFFFFFFFFFFFFFFFFFFFFFFFFFFFFFFFFFFFFFFFF AND PUSH1 0x2 PUSH1 0x0 DUP5 DUP2 MSTORE PUSH1 0x20 ADD SWAP1 DUP2 MSTORE PUSH1 0x20 ADD PUSH1 0x0 KECCAK256 PUSH1 0x0 SWAP1 SLOAD SWAP1 PUSH2 0x100 EXP SWAP1 DIV PUSH20 0xFFFFFFFFFFFFFFFFFFFFFFFFFFFFFFFFFFFFFFFF AND PUSH20 0xFFFFFFFFFFFFFFFFFFFFFFFFFFFFFFFFFFFFFFFF AND EQ ISZERO SWAP1 POP SWAP2 SWAP1 POP JUMP JUMPDEST PUSH1 0x0 CALLER SWAP1 POP SWAP1 JUMP JUMPDEST DUP2 PUSH1 0x4 PUSH1 0x0 DUP4 DUP2 MSTORE PUSH1 0x20 ADD SWAP1 DUP2 MSTORE PUSH1 0x20 ADD PUSH1 0x0 KECCAK256 PUSH1 0x0 PUSH2 0x100 EXP DUP2 SLOAD DUP2 PUSH20 0xFFFFFFFFFFFFFFFFFFFFFFFFFFFFFFFFFFFFFFFF MUL NOT AND SWAP1 DUP4 PUSH20 0xFFFFFFFFFFFFFFFFFFFFFFFFFFFFFFFFFFFFFFFF AND MUL OR SWAP1 SSTORE POP DUP1 DUP3 PUSH20 0xFFFFFFFFFFFFFFFFFFFFFFFFFFFFFFFFFFFFFFFF AND PUSH2 0x2B95 DUP4 PUSH2 0xB52 JUMP JUMPDEST PUSH20 0xFFFFFFFFFFFFFFFFFFFFFFFFFFFFFFFFFFFFFFFF AND PUSH32 0x8C5BE1E5EBEC7D5BD14F71427D1E84F3DD0314C0F7B2291E5B200AC8C7C3B925 PUSH1 0x40 MLOAD PUSH1 0x40 MLOAD DUP1 SWAP2 SUB SWAP1 LOG4 POP POP JUMP JUMPDEST PUSH1 0x0 PUSH2 0x2BE6 DUP3 PUSH2 0x2AAE JUMP JUMPDEST PUSH2 0x2C25 JUMPI PUSH1 0x40 MLOAD PUSH32 0x8C379A000000000000000000000000000000000000000000000000000000000 DUP2 MSTORE PUSH1 0x4 ADD PUSH2 0x2C1C SWAP1 PUSH2 0x48ED JUMP JUMPDEST PUSH1 0x40 MLOAD DUP1 SWAP2 SUB SWAP1 REVERT JUMPDEST PUSH1 0x0 PUSH2 0x2C30 DUP4 PUSH2 0xB52 JUMP JUMPDEST SWAP1 POP DUP1 PUSH20 0xFFFFFFFFFFFFFFFFFFFFFFFFFFFFFFFFFFFFFFFF AND DUP5 PUSH20 0xFFFFFFFFFFFFFFFFFFFFFFFFFFFFFFFFFFFFFFFF AND EQ DUP1 PUSH2 0x2C9F JUMPI POP DUP4 PUSH20 0xFFFFFFFFFFFFFFFFFFFFFFFFFFFFFFFFFFFFFFFF AND PUSH2 0x2C87 DUP5 PUSH2 0x812 JUMP JUMPDEST PUSH20 0xFFFFFFFFFFFFFFFFFFFFFFFFFFFFFFFFFFFFFFFF AND EQ JUMPDEST DUP1 PUSH2 0x2CB0 JUMPI POP PUSH2 0x2CAF DUP2 DUP6 PUSH2 0x2448 JUMP JUMPDEST JUMPDEST SWAP2 POP POP SWAP3 SWAP2 POP POP JUMP JUMPDEST DUP3 PUSH20 0xFFFFFFFFFFFFFFFFFFFFFFFFFFFFFFFFFFFFFFFF AND PUSH2 0x2CD9 DUP3 PUSH2 0xB52 JUMP JUMPDEST PUSH20 0xFFFFFFFFFFFFFFFFFFFFFFFFFFFFFFFFFFFFFFFF AND EQ PUSH2 0x2D2F JUMPI PUSH1 0x40 MLOAD PUSH32 0x8C379A000000000000000000000000000000000000000000000000000000000 DUP2 MSTORE PUSH1 0x4 ADD PUSH2 0x2D26 SWAP1 PUSH2 0x4ACD JUMP JUMPDEST PUSH1 0x40 MLOAD DUP1 SWAP2 SUB SWAP1 REVERT JUMPDEST PUSH1 0x0 PUSH20 0xFFFFFFFFFFFFFFFFFFFFFFFFFFFFFFFFFFFFFFFF AND DUP3 PUSH20 0xFFFFFFFFFFFFFFFFFFFFFFFFFFFFFFFFFFFFFFFF AND EQ ISZERO PUSH2 0x2D9F JUMPI PUSH1 0x40 MLOAD PUSH32 0x8C379A000000000000000000000000000000000000000000000000000000000 DUP2 MSTORE PUSH1 0x4 ADD PUSH2 0x2D96 SWAP1 PUSH2 0x486D JUMP JUMPDEST PUSH1 0x40 MLOAD DUP1 SWAP2 SUB SWAP1 REVERT JUMPDEST PUSH2 0x2DAA DUP4 DUP4 DUP4 PUSH2 0x3296 JUMP JUMPDEST PUSH2 0x2DB5 PUSH1 0x0 DUP3 PUSH2 0x2B22 JUMP JUMPDEST PUSH1 0x1 PUSH1 0x3 PUSH1 0x0 DUP6 PUSH20 0xFFFFFFFFFFFFFFFFFFFFFFFFFFFFFFFFFFFFFFFF AND PUSH20 0xFFFFFFFFFFFFFFFFFFFFFFFFFFFFFFFFFFFFFFFF AND DUP2 MSTORE PUSH1 0x20 ADD SWAP1 DUP2 MSTORE PUSH1 0x20 ADD PUSH1 0x0 KECCAK256 PUSH1 0x0 DUP3 DUP3 SLOAD PUSH2 0x2E05 SWAP2 SWAP1 PUSH2 0x4D26 JUMP JUMPDEST SWAP3 POP POP DUP2 SWAP1 SSTORE POP PUSH1 0x1 PUSH1 0x3 PUSH1 0x0 DUP5 PUSH20 0xFFFFFFFFFFFFFFFFFFFFFFFFFFFFFFFFFFFFFFFF AND PUSH20 0xFFFFFFFFFFFFFFFFFFFFFFFFFFFFFFFFFFFFFFFF AND DUP2 MSTORE PUSH1 0x20 ADD SWAP1 DUP2 MSTORE PUSH1 0x20 ADD PUSH1 0x0 KECCAK256 PUSH1 0x0 DUP3 DUP3 SLOAD PUSH2 0x2E5C SWAP2 SWAP1 PUSH2 0x4CD0 JUMP JUMPDEST SWAP3 POP POP DUP2 SWAP1 SSTORE POP DUP2 PUSH1 0x2 PUSH1 0x0 DUP4 DUP2 MSTORE PUSH1 0x20 ADD SWAP1 DUP2 MSTORE PUSH1 0x20 ADD PUSH1 0x0 KECCAK256 PUSH1 0x0 PUSH2 0x100 EXP DUP2 SLOAD DUP2 PUSH20 0xFFFFFFFFFFFFFFFFFFFFFFFFFFFFFFFFFFFFFFFF MUL NOT AND SWAP1 DUP4 PUSH20 0xFFFFFFFFFFFFFFFFFFFFFFFFFFFFFFFFFFFFFFFF AND MUL OR SWAP1 SSTORE POP DUP1 DUP3 PUSH20 0xFFFFFFFFFFFFFFFFFFFFFFFFFFFFFFFFFFFFFFFF AND DUP5 PUSH20 0xFFFFFFFFFFFFFFFFFFFFFFFFFFFFFFFFFFFFFFFF AND PUSH32 0xDDF252AD1BE2C89B69C2B068FC378DAA952BA7F163C4A11628F55A4DF523B3EF PUSH1 0x40 MLOAD PUSH1 0x40 MLOAD DUP1 SWAP2 SUB SWAP1 LOG4 POP POP POP JUMP JUMPDEST PUSH1 0x0 PUSH1 0xA PUSH1 0x0 SWAP1 SLOAD SWAP1 PUSH2 0x100 EXP SWAP1 DIV PUSH20 0xFFFFFFFFFFFFFFFFFFFFFFFFFFFFFFFFFFFFFFFF AND SWAP1 POP DUP2 PUSH1 0xA PUSH1 0x0 PUSH2 0x100 EXP DUP2 SLOAD DUP2 PUSH20 0xFFFFFFFFFFFFFFFFFFFFFFFFFFFFFFFFFFFFFFFF MUL NOT AND SWAP1 DUP4 PUSH20 0xFFFFFFFFFFFFFFFFFFFFFFFFFFFFFFFFFFFFFFFF AND MUL OR SWAP1 SSTORE POP DUP2 PUSH20 0xFFFFFFFFFFFFFFFFFFFFFFFFFFFFFFFFFFFFFFFF AND DUP2 PUSH20 0xFFFFFFFFFFFFFFFFFFFFFFFFFFFFFFFFFFFFFFFF AND PUSH32 0x8BE0079C531659141344CD1FD0A4F28419497F9722A3DAAFE3B4186F6B6457E0 PUSH1 0x40 MLOAD PUSH1 0x40 MLOAD DUP1 SWAP2 SUB SWAP1 LOG3 POP POP JUMP JUMPDEST PUSH1 0x1 DUP2 PUSH1 0x0 ADD PUSH1 0x0 DUP3 DUP3 SLOAD ADD SWAP3 POP POP DUP2 SWAP1 SSTORE POP POP JUMP JUMPDEST PUSH1 0x0 DUP2 PUSH1 0x0 ADD SLOAD SWAP1 POP SWAP2 SWAP1 POP JUMP JUMPDEST PUSH2 0x3019 DUP3 DUP3 PUSH1 0x40 MLOAD DUP1 PUSH1 0x20 ADD PUSH1 0x40 MSTORE DUP1 PUSH1 0x0 DUP2 MSTORE POP PUSH2 0x33AA JUMP JUMPDEST POP POP JUMP JUMPDEST PUSH1 0x0 PUSH2 0x3027 PUSH2 0x3AC0 JUMP JUMPDEST NUMBER DUP2 PUSH1 0x0 PUSH1 0x1 DUP2 LT PUSH2 0x303C JUMPI PUSH2 0x303B PUSH2 0x4FFD JUMP JUMPDEST JUMPDEST PUSH1 0x20 MUL ADD DUP2 DUP2 MSTORE POP POP PUSH1 0x40 MLOAD PUSH1 0x20 DUP2 PUSH1 0x20 DUP5 PUSH1 0xFF PUSH1 0x0 NOT STATICCALL PUSH2 0x305A JUMPI INVALID JUMPDEST DUP1 MLOAD SWAP3 POP POP POP SWAP1 JUMP JUMPDEST DUP2 PUSH20 0xFFFFFFFFFFFFFFFFFFFFFFFFFFFFFFFFFFFFFFFF AND DUP4 PUSH20 0xFFFFFFFFFFFFFFFFFFFFFFFFFFFFFFFFFFFFFFFF AND EQ ISZERO PUSH2 0x30D2 JUMPI PUSH1 0x40 MLOAD PUSH32 0x8C379A000000000000000000000000000000000000000000000000000000000 DUP2 MSTORE PUSH1 0x4 ADD PUSH2 0x30C9 SWAP1 PUSH2 0x488D JUMP JUMPDEST PUSH1 0x40 MLOAD DUP1 SWAP2 SUB SWAP1 REVERT JUMPDEST DUP1 PUSH1 0x5 PUSH1 0x0 DUP6 PUSH20 0xFFFFFFFFFFFFFFFFFFFFFFFFFFFFFFFFFFFFFFFF AND PUSH20 0xFFFFFFFFFFFFFFFFFFFFFFFFFFFFFFFFFFFFFFFF AND DUP2 MSTORE PUSH1 0x20 ADD SWAP1 DUP2 MSTORE PUSH1 0x20 ADD PUSH1 0x0 KECCAK256 PUSH1 0x0 DUP5 PUSH20 0xFFFFFFFFFFFFFFFFFFFFFFFFFFFFFFFFFFFFFFFF AND PUSH20 0xFFFFFFFFFFFFFFFFFFFFFFFFFFFFFFFFFFFFFFFF AND DUP2 MSTORE PUSH1 0x20 ADD SWAP1 DUP2 MSTORE PUSH1 0x20 ADD PUSH1 0x0 KECCAK256 PUSH1 0x0 PUSH2 0x100 EXP DUP2 SLOAD DUP2 PUSH1 0xFF MUL NOT AND SWAP1 DUP4 ISZERO ISZERO MUL OR SWAP1 SSTORE POP DUP2 PUSH20 0xFFFFFFFFFFFFFFFFFFFFFFFFFFFFFFFFFFFFFFFF AND DUP4 PUSH20 0xFFFFFFFFFFFFFFFFFFFFFFFFFFFFFFFFFFFFFFFF AND PUSH32 0x17307EAB39AB6107E8899845AD3D59BD9653F200F220920489CA2B5937696C31 DUP4 PUSH1 0x40 MLOAD PUSH2 0x31C3 SWAP2 SWAP1 PUSH2 0x4770 JUMP JUMPDEST PUSH1 0x40 MLOAD DUP1 SWAP2 SUB SWAP1 LOG3 POP POP POP JUMP JUMPDEST PUSH2 0x31DB DUP5 DUP5 DUP5 PUSH2 0x2CB9 JUMP JUMPDEST PUSH2 0x31E7 DUP5 DUP5 DUP5 DUP5 PUSH2 0x3405 JUMP JUMPDEST PUSH2 0x3226 JUMPI PUSH1 0x40 MLOAD PUSH32 0x8C379A000000000000000000000000000000000000000000000000000000000 DUP2 MSTORE PUSH1 0x4 ADD PUSH2 0x321D SWAP1 PUSH2 0x47CD JUMP JUMPDEST PUSH1 0x40 MLOAD DUP1 SWAP2 SUB SWAP1 REVERT JUMPDEST POP POP POP POP JUMP JUMPDEST PUSH1 0x0 PUSH32 0x1FFC9A700000000000000000000000000000000000000000000000000000000 PUSH28 0xFFFFFFFFFFFFFFFFFFFFFFFFFFFFFFFFFFFFFFFFFFFFFFFFFFFFFFFF NOT AND DUP3 PUSH28 0xFFFFFFFFFFFFFFFFFFFFFFFFFFFFFFFFFFFFFFFFFFFFFFFFFFFFFFFF NOT AND EQ SWAP1 POP SWAP2 SWAP1 POP JUMP JUMPDEST PUSH2 0x32A1 DUP4 DUP4 DUP4 PUSH2 0x359C JUMP JUMPDEST PUSH1 0x0 PUSH20 0xFFFFFFFFFFFFFFFFFFFFFFFFFFFFFFFFFFFFFFFF AND DUP4 PUSH20 0xFFFFFFFFFFFFFFFFFFFFFFFFFFFFFFFFFFFFFFFF AND EQ ISZERO PUSH2 0x32E4 JUMPI PUSH2 0x32DF DUP2 PUSH2 0x35A1 JUMP JUMPDEST PUSH2 0x3323 JUMP JUMPDEST DUP2 PUSH20 0xFFFFFFFFFFFFFFFFFFFFFFFFFFFFFFFFFFFFFFFF AND DUP4 PUSH20 0xFFFFFFFFFFFFFFFFFFFFFFFFFFFFFFFFFFFFFFFF AND EQ PUSH2 0x3322 JUMPI PUSH2 0x3321 DUP4 DUP3 PUSH2 0x35EA JUMP JUMPDEST JUMPDEST JUMPDEST PUSH1 0x0 PUSH20 0xFFFFFFFFFFFFFFFFFFFFFFFFFFFFFFFFFFFFFFFF AND DUP3 PUSH20 0xFFFFFFFFFFFFFFFFFFFFFFFFFFFFFFFFFFFFFFFF AND EQ ISZERO PUSH2 0x3366 JUMPI PUSH2 0x3361 DUP2 PUSH2 0x3757 JUMP JUMPDEST PUSH2 0x33A5 JUMP JUMPDEST DUP3 PUSH20 0xFFFFFFFFFFFFFFFFFFFFFFFFFFFFFFFFFFFFFFFF AND DUP3 PUSH20 0xFFFFFFFFFFFFFFFFFFFFFFFFFFFFFFFFFFFFFFFF AND EQ PUSH2 0x33A4 JUMPI PUSH2 0x33A3 DUP3 DUP3 PUSH2 0x3828 JUMP JUMPDEST JUMPDEST JUMPDEST POP POP POP JUMP JUMPDEST PUSH2 0x33B4 DUP4 DUP4 PUSH2 0x38A7 JUMP JUMPDEST PUSH2 0x33C1 PUSH1 0x0 DUP5 DUP5 DUP5 PUSH2 0x3405 JUMP JUMPDEST PUSH2 0x3400 JUMPI PUSH1 0x40 MLOAD PUSH32 0x8C379A000000000000000000000000000000000000000000000000000000000 DUP2 MSTORE PUSH1 0x4 ADD PUSH2 0x33F7 SWAP1 PUSH2 0x47CD JUMP JUMPDEST PUSH1 0x40 MLOAD DUP1 SWAP2 SUB SWAP1 REVERT JUMPDEST POP POP POP JUMP JUMPDEST PUSH1 0x0 PUSH2 0x3426 DUP5 PUSH20 0xFFFFFFFFFFFFFFFFFFFFFFFFFFFFFFFFFFFFFFFF AND PUSH2 0x3A75 JUMP JUMPDEST ISZERO PUSH2 0x358F JUMPI DUP4 PUSH20 0xFFFFFFFFFFFFFFFFFFFFFFFFFFFFFFFFFFFFFFFF AND PUSH4 0x150B7A02 PUSH2 0x344F PUSH2 0x2B1A JUMP JUMPDEST DUP8 DUP7 DUP7 PUSH1 0x40 MLOAD DUP6 PUSH4 0xFFFFFFFF AND PUSH1 0xE0 SHL DUP2 MSTORE PUSH1 0x4 ADD PUSH2 0x3471 SWAP5 SWAP4 SWAP3 SWAP2 SWAP1 PUSH2 0x46D2 JUMP JUMPDEST PUSH1 0x20 PUSH1 0x40 MLOAD DUP1 DUP4 SUB DUP2 PUSH1 0x0 DUP8 DUP1 EXTCODESIZE ISZERO DUP1 ISZERO PUSH2 0x348B JUMPI PUSH1 0x0 DUP1 REVERT JUMPDEST POP GAS CALL SWAP3 POP POP POP DUP1 ISZERO PUSH2 0x34BC JUMPI POP PUSH1 0x40 MLOAD RETURNDATASIZE PUSH1 0x1F NOT PUSH1 0x1F DUP3 ADD AND DUP3 ADD DUP1 PUSH1 0x40 MSTORE POP DUP2 ADD SWAP1 PUSH2 0x34B9 SWAP2 SWAP1 PUSH2 0x3E57 JUMP JUMPDEST PUSH1 0x1 JUMPDEST PUSH2 0x353F JUMPI RETURNDATASIZE DUP1 PUSH1 0x0 DUP2 EQ PUSH2 0x34EC JUMPI PUSH1 0x40 MLOAD SWAP2 POP PUSH1 0x1F NOT PUSH1 0x3F RETURNDATASIZE ADD AND DUP3 ADD PUSH1 0x40 MSTORE RETURNDATASIZE DUP3 MSTORE RETURNDATASIZE PUSH1 0x0 PUSH1 0x20 DUP5 ADD RETURNDATACOPY PUSH2 0x34F1 JUMP JUMPDEST PUSH1 0x60 SWAP2 POP JUMPDEST POP PUSH1 0x0 DUP2 MLOAD EQ ISZERO PUSH2 0x3537 JUMPI PUSH1 0x40 MLOAD PUSH32 0x8C379A000000000000000000000000000000000000000000000000000000000 DUP2 MSTORE PUSH1 0x4 ADD PUSH2 0x352E SWAP1 PUSH2 0x47CD JUMP JUMPDEST PUSH1 0x40 MLOAD DUP1 SWAP2 SUB SWAP1 REVERT JUMPDEST DUP1 MLOAD DUP2 PUSH1 0x20 ADD REVERT JUMPDEST PUSH4 0x150B7A02 PUSH1 0xE0 SHL PUSH28 0xFFFFFFFFFFFFFFFFFFFFFFFFFFFFFFFFFFFFFFFFFFFFFFFFFFFFFFFF NOT AND DUP2 PUSH28 0xFFFFFFFFFFFFFFFFFFFFFFFFFFFFFFFFFFFFFFFFFFFFFFFFFFFFFFFF NOT AND EQ SWAP2 POP POP PUSH2 0x3594 JUMP JUMPDEST PUSH1 0x1 SWAP1 POP JUMPDEST SWAP5 SWAP4 POP POP POP POP JUMP JUMPDEST POP POP POP JUMP JUMPDEST PUSH1 0x8 DUP1 SLOAD SWAP1 POP PUSH1 0x9 PUSH1 0x0 DUP4 DUP2 MSTORE PUSH1 0x20 ADD SWAP1 DUP2 MSTORE PUSH1 0x20 ADD PUSH1 0x0 KECCAK256 DUP2 SWAP1 SSTORE POP PUSH1 0x8 DUP2 SWAP1 DUP1 PUSH1 0x1 DUP2 SLOAD ADD DUP1 DUP3 SSTORE DUP1 SWAP2 POP POP PUSH1 0x1 SWAP1 SUB SWAP1 PUSH1 0x0 MSTORE PUSH1 0x20 PUSH1 0x0 KECCAK256 ADD PUSH1 0x0 SWAP1 SWAP2 SWAP1 SWAP2 SWAP1 SWAP2 POP SSTORE POP JUMP JUMPDEST PUSH1 0x0 PUSH1 0x1 PUSH2 0x35F7 DUP5 PUSH2 0xC04 JUMP JUMPDEST PUSH2 0x3601 SWAP2 SWAP1 PUSH2 0x4D26 JUMP JUMPDEST SWAP1 POP PUSH1 0x0 PUSH1 0x7 PUSH1 0x0 DUP5 DUP2 MSTORE PUSH1 0x20 ADD SWAP1 DUP2 MSTORE PUSH1 0x20 ADD PUSH1 0x0 KECCAK256 SLOAD SWAP1 POP DUP2 DUP2 EQ PUSH2 0x36E6 JUMPI PUSH1 0x0 PUSH1 0x6 PUSH1 0x0 DUP7 PUSH20 0xFFFFFFFFFFFFFFFFFFFFFFFFFFFFFFFFFFFFFFFF AND PUSH20 0xFFFFFFFFFFFFFFFFFFFFFFFFFFFFFFFFFFFFFFFF AND DUP2 MSTORE PUSH1 0x20 ADD SWAP1 DUP2 MSTORE PUSH1 0x20 ADD PUSH1 0x0 KECCAK256 PUSH1 0x0 DUP5 DUP2 MSTORE PUSH1 0x20 ADD SWAP1 DUP2 MSTORE PUSH1 0x20 ADD PUSH1 0x0 KECCAK256 SLOAD SWAP1 POP DUP1 PUSH1 0x6 PUSH1 0x0 DUP8 PUSH20 0xFFFFFFFFFFFFFFFFFFFFFFFFFFFFFFFFFFFFFFFF AND PUSH20 0xFFFFFFFFFFFFFFFFFFFFFFFFFFFFFFFFFFFFFFFF AND DUP2 MSTORE PUSH1 0x20 ADD SWAP1 DUP2 MSTORE PUSH1 0x20 ADD PUSH1 0x0 KECCAK256 PUSH1 0x0 DUP5 DUP2 MSTORE PUSH1 0x20 ADD SWAP1 DUP2 MSTORE PUSH1 0x20 ADD PUSH1 0x0 KECCAK256 DUP2 SWAP1 SSTORE POP DUP2 PUSH1 0x7 PUSH1 0x0 DUP4 DUP2 MSTORE PUSH1 0x20 ADD SWAP1 DUP2 MSTORE PUSH1 0x20 ADD PUSH1 0x0 KECCAK256 DUP2 SWAP1 SSTORE POP POP JUMPDEST PUSH1 0x7 PUSH1 0x0 DUP5 DUP2 MSTORE PUSH1 0x20 ADD SWAP1 DUP2 MSTORE PUSH1 0x20 ADD PUSH1 0x0 KECCAK256 PUSH1 0x0 SWAP1 SSTORE PUSH1 0x6 PUSH1 0x0 DUP6 PUSH20 0xFFFFFFFFFFFFFFFFFFFFFFFFFFFFFFFFFFFFFFFF AND PUSH20 0xFFFFFFFFFFFFFFFFFFFFFFFFFFFFFFFFFFFFFFFF AND DUP2 MSTORE PUSH1 0x20 ADD SWAP1 DUP2 MSTORE PUSH1 0x20 ADD PUSH1 0x0 KECCAK256 PUSH1 0x0 DUP4 DUP2 MSTORE PUSH1 0x20 ADD SWAP1 DUP2 MSTORE PUSH1 0x20 ADD PUSH1 0x0 KECCAK256 PUSH1 0x0 SWAP1 SSTORE POP POP POP POP JUMP JUMPDEST PUSH1 0x0 PUSH1 0x1 PUSH1 0x8 DUP1 SLOAD SWAP1 POP PUSH2 0x376B SWAP2 SWAP1 PUSH2 0x4D26 JUMP JUMPDEST SWAP1 POP PUSH1 0x0 PUSH1 0x9 PUSH1 0x0 DUP5 DUP2 MSTORE PUSH1 0x20 ADD SWAP1 DUP2 MSTORE PUSH1 0x20 ADD PUSH1 0x0 KECCAK256 SLOAD SWAP1 POP PUSH1 0x0 PUSH1 0x8 DUP4 DUP2 SLOAD DUP2 LT PUSH2 0x379B JUMPI PUSH2 0x379A PUSH2 0x4FFD JUMP JUMPDEST JUMPDEST SWAP1 PUSH1 0x0 MSTORE PUSH1 0x20 PUSH1 0x0 KECCAK256 ADD SLOAD SWAP1 POP DUP1 PUSH1 0x8 DUP4 DUP2 SLOAD DUP2 LT PUSH2 0x37BD JUMPI PUSH2 0x37BC PUSH2 0x4FFD JUMP JUMPDEST JUMPDEST SWAP1 PUSH1 0x0 MSTORE PUSH1 0x20 PUSH1 0x0 KECCAK256 ADD DUP2 SWAP1 SSTORE POP DUP2 PUSH1 0x9 PUSH1 0x0 DUP4 DUP2 MSTORE PUSH1 0x20 ADD SWAP1 DUP2 MSTORE PUSH1 0x20 ADD PUSH1 0x0 KECCAK256 DUP2 SWAP1 SSTORE POP PUSH1 0x9 PUSH1 0x0 DUP6 DUP2 MSTORE PUSH1 0x20 ADD SWAP1 DUP2 MSTORE PUSH1 0x20 ADD PUSH1 0x0 KECCAK256 PUSH1 0x0 SWAP1 SSTORE PUSH1 0x8 DUP1 SLOAD DUP1 PUSH2 0x380C JUMPI PUSH2 0x380B PUSH2 0x4FCE JUMP JUMPDEST JUMPDEST PUSH1 0x1 SWAP1 SUB DUP2 DUP2 SWAP1 PUSH1 0x0 MSTORE PUSH1 0x20 PUSH1 0x0 KECCAK256 ADD PUSH1 0x0 SWAP1 SSTORE SWAP1 SSTORE POP POP POP POP JUMP JUMPDEST PUSH1 0x0 PUSH2 0x3833 DUP4 PUSH2 0xC04 JUMP JUMPDEST SWAP1 POP DUP2 PUSH1 0x6 PUSH1 0x0 DUP6 PUSH20 0xFFFFFFFFFFFFFFFFFFFFFFFFFFFFFFFFFFFFFFFF AND PUSH20 0xFFFFFFFFFFFFFFFFFFFFFFFFFFFFFFFFFFFFFFFF AND DUP2 MSTORE PUSH1 0x20 ADD SWAP1 DUP2 MSTORE PUSH1 0x20 ADD PUSH1 0x0 KECCAK256 PUSH1 0x0 DUP4 DUP2 MSTORE PUSH1 0x20 ADD SWAP1 DUP2 MSTORE PUSH1 0x20 ADD PUSH1 0x0 KECCAK256 DUP2 SWAP1 SSTORE POP DUP1 PUSH1 0x7 PUSH1 0x0 DUP5 DUP2 MSTORE PUSH1 0x20 ADD SWAP1 DUP2 MSTORE PUSH1 0x20 ADD PUSH1 0x0 KECCAK256 DUP2 SWAP1 SSTORE POP POP POP POP JUMP JUMPDEST PUSH1 0x0 PUSH20 0xFFFFFFFFFFFFFFFFFFFFFFFFFFFFFFFFFFFFFFFF AND DUP3 PUSH20 0xFFFFFFFFFFFFFFFFFFFFFFFFFFFFFFFFFFFFFFFF AND EQ ISZERO PUSH2 0x3917 JUMPI PUSH1 0x40 MLOAD PUSH32 0x8C379A000000000000000000000000000000000000000000000000000000000 DUP2 MSTORE PUSH1 0x4 ADD PUSH2 0x390E SWAP1 PUSH2 0x4A4D JUMP JUMPDEST PUSH1 0x40 MLOAD DUP1 SWAP2 SUB SWAP1 REVERT JUMPDEST PUSH2 0x3920 DUP2 PUSH2 0x2AAE JUMP JUMPDEST ISZERO PUSH2 0x3960 JUMPI PUSH1 0x40 MLOAD PUSH32 0x8C379A000000000000000000000000000000000000000000000000000000000 DUP2 MSTORE PUSH1 0x4 ADD PUSH2 0x3957 SWAP1 PUSH2 0x482D JUMP JUMPDEST PUSH1 0x40 MLOAD DUP1 SWAP2 SUB SWAP1 REVERT JUMPDEST PUSH2 0x396C PUSH1 0x0 DUP4 DUP4 PUSH2 0x3296 JUMP JUMPDEST PUSH1 0x1 PUSH1 0x3 PUSH1 0x0 DUP5 PUSH20 0xFFFFFFFFFFFFFFFFFFFFFFFFFFFFFFFFFFFFFFFF AND PUSH20 0xFFFFFFFFFFFFFFFFFFFFFFFFFFFFFFFFFFFFFFFF AND DUP2 MSTORE PUSH1 0x20 ADD SWAP1 DUP2 MSTORE PUSH1 0x20 ADD PUSH1 0x0 KECCAK256 PUSH1 0x0 DUP3 DUP3 SLOAD PUSH2 0x39BC SWAP2 SWAP1 PUSH2 0x4CD0 JUMP JUMPDEST SWAP3 POP POP DUP2 SWAP1 SSTORE POP DUP2 PUSH1 0x2 PUSH1 0x0 DUP4 DUP2 MSTORE PUSH1 0x20 ADD SWAP1 DUP2 MSTORE PUSH1 0x20 ADD PUSH1 0x0 KECCAK256 PUSH1 0x0 PUSH2 0x100 EXP DUP2 SLOAD DUP2 PUSH20 0xFFFFFFFFFFFFFFFFFFFFFFFFFFFFFFFFFFFFFFFF MUL NOT AND SWAP1 DUP4 PUSH20 0xFFFFFFFFFFFFFFFFFFFFFFFFFFFFFFFFFFFFFFFF AND MUL OR SWAP1 SSTORE POP DUP1 DUP3 PUSH20 0xFFFFFFFFFFFFFFFFFFFFFFFFFFFFFFFFFFFFFFFF AND PUSH1 0x0 PUSH20 0xFFFFFFFFFFFFFFFFFFFFFFFFFFFFFFFFFFFFFFFF AND PUSH32 0xDDF252AD1BE2C89B69C2B068FC378DAA952BA7F163C4A11628F55A4DF523B3EF PUSH1 0x40 MLOAD PUSH1 0x40 MLOAD DUP1 SWAP2 SUB SWAP1 LOG4 POP POP JUMP JUMPDEST PUSH1 0x0 DUP1 DUP3 EXTCODESIZE SWAP1 POP PUSH1 0x0 DUP2 GT SWAP2 POP POP SWAP2 SWAP1 POP JUMP JUMPDEST PUSH1 0x40 MLOAD DUP1 PUSH1 0xC0 ADD PUSH1 0x40 MSTORE DUP1 PUSH1 0x0 ISZERO ISZERO DUP2 MSTORE PUSH1 0x20 ADD PUSH1 0x0 DUP2 MSTORE PUSH1 0x20 ADD PUSH1 0x0 DUP2 MSTORE PUSH1 0x20 ADD PUSH1 0x0 DUP2 MSTORE PUSH1 0x20 ADD PUSH1 0x0 DUP2 MSTORE PUSH1 0x20 ADD PUSH1 0x0 DUP2 MSTORE POP SWAP1 JUMP JUMPDEST PUSH1 0x40 MLOAD DUP1 PUSH1 0x20 ADD PUSH1 0x40 MSTORE DUP1 PUSH1 0x1 SWAP1 PUSH1 0x20 DUP3 MUL DUP1 CALLDATASIZE DUP4 CALLDATACOPY DUP1 DUP3 ADD SWAP2 POP POP SWAP1 POP POP SWAP1 JUMP JUMPDEST PUSH1 0x0 PUSH2 0x3AF5 PUSH2 0x3AF0 DUP5 PUSH2 0x4C67 JUMP JUMPDEST PUSH2 0x4C42 JUMP JUMPDEST SWAP1 POP DUP3 DUP2 MSTORE PUSH1 0x20 DUP2 ADD DUP5 DUP5 DUP5 ADD GT ISZERO PUSH2 0x3B11 JUMPI PUSH2 0x3B10 PUSH2 0x5060 JUMP JUMPDEST JUMPDEST PUSH2 0x3B1C DUP5 DUP3 DUP6 PUSH2 0x4E1D JUMP JUMPDEST POP SWAP4 SWAP3 POP POP POP JUMP JUMPDEST PUSH1 0x0 DUP2 CALLDATALOAD SWAP1 POP PUSH2 0x3B33 DUP2 PUSH2 0x5859 JUMP JUMPDEST SWAP3 SWAP2 POP POP JUMP JUMPDEST PUSH1 0x0 DUP2 MLOAD SWAP1 POP PUSH2 0x3B48 DUP2 PUSH2 0x5859 JUMP JUMPDEST SWAP3 SWAP2 POP POP JUMP JUMPDEST PUSH1 0x0 DUP2 CALLDATALOAD SWAP1 POP PUSH2 0x3B5D DUP2 PUSH2 0x5870 JUMP JUMPDEST SWAP3 SWAP2 POP POP JUMP JUMPDEST PUSH1 0x0 DUP2 CALLDATALOAD SWAP1 POP PUSH2 0x3B72 DUP2 PUSH2 0x5887 JUMP JUMPDEST SWAP3 SWAP2 POP POP JUMP JUMPDEST PUSH1 0x0 DUP2 MLOAD SWAP1 POP PUSH2 0x3B87 DUP2 PUSH2 0x5887 JUMP JUMPDEST SWAP3 SWAP2 POP POP JUMP JUMPDEST PUSH1 0x0 DUP3 PUSH1 0x1F DUP4 ADD SLT PUSH2 0x3BA2 JUMPI PUSH2 0x3BA1 PUSH2 0x505B JUMP JUMPDEST JUMPDEST DUP2 CALLDATALOAD PUSH2 0x3BB2 DUP5 DUP3 PUSH1 0x20 DUP7 ADD PUSH2 0x3AE2 JUMP JUMPDEST SWAP2 POP POP SWAP3 SWAP2 POP POP JUMP JUMPDEST PUSH1 0x0 DUP2 MLOAD SWAP1 POP PUSH2 0x3BCA DUP2 PUSH2 0x589E JUMP JUMPDEST SWAP3 SWAP2 POP POP JUMP JUMPDEST PUSH1 0x0 DUP2 CALLDATALOAD SWAP1 POP PUSH2 0x3BDF DUP2 PUSH2 0x58B5 JUMP JUMPDEST SWAP3 SWAP2 POP POP JUMP JUMPDEST PUSH1 0x0 DUP2 MLOAD SWAP1 POP PUSH2 0x3BF4 DUP2 PUSH2 0x58B5 JUMP JUMPDEST SWAP3 SWAP2 POP POP JUMP JUMPDEST PUSH1 0x0 PUSH1 0x20 DUP3 DUP5 SUB SLT ISZERO PUSH2 0x3C10 JUMPI PUSH2 0x3C0F PUSH2 0x506A JUMP JUMPDEST JUMPDEST PUSH1 0x0 PUSH2 0x3C1E DUP5 DUP3 DUP6 ADD PUSH2 0x3B24 JUMP JUMPDEST SWAP2 POP POP SWAP3 SWAP2 POP POP JUMP JUMPDEST PUSH1 0x0 PUSH1 0x20 DUP3 DUP5 SUB SLT ISZERO PUSH2 0x3C3D JUMPI PUSH2 0x3C3C PUSH2 0x506A JUMP JUMPDEST JUMPDEST PUSH1 0x0 PUSH2 0x3C4B DUP5 DUP3 DUP6 ADD PUSH2 0x3B39 JUMP JUMPDEST SWAP2 POP POP SWAP3 SWAP2 POP POP JUMP JUMPDEST PUSH1 0x0 DUP1 PUSH1 0x40 DUP4 DUP6 SUB SLT ISZERO PUSH2 0x3C6B JUMPI PUSH2 0x3C6A PUSH2 0x506A JUMP JUMPDEST JUMPDEST PUSH1 0x0 PUSH2 0x3C79 DUP6 DUP3 DUP7 ADD PUSH2 0x3B24 JUMP JUMPDEST SWAP3 POP POP PUSH1 0x20 PUSH2 0x3C8A DUP6 DUP3 DUP7 ADD PUSH2 0x3B24 JUMP JUMPDEST SWAP2 POP POP SWAP3 POP SWAP3 SWAP1 POP JUMP JUMPDEST PUSH1 0x0 DUP1 PUSH1 0x0 PUSH1 0x60 DUP5 DUP7 SUB SLT ISZERO PUSH2 0x3CAD JUMPI PUSH2 0x3CAC PUSH2 0x506A JUMP JUMPDEST JUMPDEST PUSH1 0x0 PUSH2 0x3CBB DUP7 DUP3 DUP8 ADD PUSH2 0x3B24 JUMP JUMPDEST SWAP4 POP POP PUSH1 0x20 PUSH2 0x3CCC DUP7 DUP3 DUP8 ADD PUSH2 0x3B24 JUMP JUMPDEST SWAP3 POP POP PUSH1 0x40 PUSH2 0x3CDD DUP7 DUP3 DUP8 ADD PUSH2 0x3BD0 JUMP JUMPDEST SWAP2 POP POP SWAP3 POP SWAP3 POP SWAP3 JUMP JUMPDEST PUSH1 0x0 DUP1 PUSH1 0x0 DUP1 PUSH1 0x80 DUP6 DUP8 SUB SLT ISZERO PUSH2 0x3D01 JUMPI PUSH2 0x3D00 PUSH2 0x506A JUMP JUMPDEST JUMPDEST PUSH1 0x0 PUSH2 0x3D0F DUP8 DUP3 DUP9 ADD PUSH2 0x3B24 JUMP JUMPDEST SWAP5 POP POP PUSH1 0x20 PUSH2 0x3D20 DUP8 DUP3 DUP9 ADD PUSH2 0x3B24 JUMP JUMPDEST SWAP4 POP POP PUSH1 0x40 PUSH2 0x3D31 DUP8 DUP3 DUP9 ADD PUSH2 0x3BD0 JUMP JUMPDEST SWAP3 POP POP PUSH1 0x60 DUP6 ADD CALLDATALOAD PUSH8 0xFFFFFFFFFFFFFFFF DUP2 GT ISZERO PUSH2 0x3D52 JUMPI PUSH2 0x3D51 PUSH2 0x5065 JUMP JUMPDEST JUMPDEST PUSH2 0x3D5E DUP8 DUP3 DUP9 ADD PUSH2 0x3B8D JUMP JUMPDEST SWAP2 POP POP SWAP3 SWAP6 SWAP2 SWAP5 POP SWAP3 POP JUMP JUMPDEST PUSH1 0x0 DUP1 PUSH1 0x40 DUP4 DUP6 SUB SLT ISZERO PUSH2 0x3D81 JUMPI PUSH2 0x3D80 PUSH2 0x506A JUMP JUMPDEST JUMPDEST PUSH1 0x0 PUSH2 0x3D8F DUP6 DUP3 DUP7 ADD PUSH2 0x3B24 JUMP JUMPDEST SWAP3 POP POP PUSH1 0x20 PUSH2 0x3DA0 DUP6 DUP3 DUP7 ADD PUSH2 0x3B4E JUMP JUMPDEST SWAP2 POP POP SWAP3 POP SWAP3 SWAP1 POP JUMP JUMPDEST PUSH1 0x0 DUP1 PUSH1 0x40 DUP4 DUP6 SUB SLT ISZERO PUSH2 0x3DC1 JUMPI PUSH2 0x3DC0 PUSH2 0x506A JUMP JUMPDEST JUMPDEST PUSH1 0x0 PUSH2 0x3DCF DUP6 DUP3 DUP7 ADD PUSH2 0x3B24 JUMP JUMPDEST SWAP3 POP POP PUSH1 0x20 PUSH2 0x3DE0 DUP6 DUP3 DUP7 ADD PUSH2 0x3BD0 JUMP JUMPDEST SWAP2 POP POP SWAP3 POP SWAP3 SWAP1 POP JUMP JUMPDEST PUSH1 0x0 DUP1 PUSH1 0x40 DUP4 DUP6 SUB SLT ISZERO PUSH2 0x3E01 JUMPI PUSH2 0x3E00 PUSH2 0x506A JUMP JUMPDEST JUMPDEST PUSH1 0x0 PUSH2 0x3E0F DUP6 DUP3 DUP7 ADD PUSH2 0x3B4E JUMP JUMPDEST SWAP3 POP POP PUSH1 0x20 PUSH2 0x3E20 DUP6 DUP3 DUP7 ADD PUSH2 0x3BD0 JUMP JUMPDEST SWAP2 POP POP SWAP3 POP SWAP3 SWAP1 POP JUMP JUMPDEST PUSH1 0x0 PUSH1 0x20 DUP3 DUP5 SUB SLT ISZERO PUSH2 0x3E40 JUMPI PUSH2 0x3E3F PUSH2 0x506A JUMP JUMPDEST JUMPDEST PUSH1 0x0 PUSH2 0x3E4E DUP5 DUP3 DUP6 ADD PUSH2 0x3B63 JUMP JUMPDEST SWAP2 POP POP SWAP3 SWAP2 POP POP JUMP JUMPDEST PUSH1 0x0 PUSH1 0x20 DUP3 DUP5 SUB SLT ISZERO PUSH2 0x3E6D JUMPI PUSH2 0x3E6C PUSH2 0x506A JUMP JUMPDEST JUMPDEST PUSH1 0x0 PUSH2 0x3E7B DUP5 DUP3 DUP6 ADD PUSH2 0x3B78 JUMP JUMPDEST SWAP2 POP POP SWAP3 SWAP2 POP POP JUMP JUMPDEST PUSH1 0x0 PUSH1 0x20 DUP3 DUP5 SUB SLT ISZERO PUSH2 0x3E9A JUMPI PUSH2 0x3E99 PUSH2 0x506A JUMP JUMPDEST JUMPDEST PUSH1 0x0 PUSH2 0x3EA8 DUP5 DUP3 DUP6 ADD PUSH2 0x3BBB JUMP JUMPDEST SWAP2 POP POP SWAP3 SWAP2 POP POP JUMP JUMPDEST PUSH1 0x0 PUSH1 0x20 DUP3 DUP5 SUB SLT ISZERO PUSH2 0x3EC7 JUMPI PUSH2 0x3EC6 PUSH2 0x506A JUMP JUMPDEST JUMPDEST PUSH1 0x0 PUSH2 0x3ED5 DUP5 DUP3 DUP6 ADD PUSH2 0x3BD0 JUMP JUMPDEST SWAP2 POP POP SWAP3 SWAP2 POP POP JUMP JUMPDEST PUSH1 0x0 PUSH1 0x20 DUP3 DUP5 SUB SLT ISZERO PUSH2 0x3EF4 JUMPI PUSH2 0x3EF3 PUSH2 0x506A JUMP JUMPDEST JUMPDEST PUSH1 0x0 PUSH2 0x3F02 DUP5 DUP3 DUP6 ADD PUSH2 0x3BE5 JUMP JUMPDEST SWAP2 POP POP SWAP3 SWAP2 POP POP JUMP JUMPDEST PUSH1 0x0 DUP1 PUSH1 0x40 DUP4 DUP6 SUB SLT ISZERO PUSH2 0x3F22 JUMPI PUSH2 0x3F21 PUSH2 0x506A JUMP JUMPDEST JUMPDEST PUSH1 0x0 PUSH2 0x3F30 DUP6 DUP3 DUP7 ADD PUSH2 0x3BD0 JUMP JUMPDEST SWAP3 POP POP PUSH1 0x20 PUSH2 0x3F41 DUP6 DUP3 DUP7 ADD PUSH2 0x3BD0 JUMP JUMPDEST SWAP2 POP POP SWAP3 POP SWAP3 SWAP1 POP JUMP JUMPDEST PUSH2 0x3F54 DUP2 PUSH2 0x4D7B JUMP JUMPDEST DUP3 MSTORE POP POP JUMP JUMPDEST PUSH2 0x3F63 DUP2 PUSH2 0x4D8D JUMP JUMPDEST DUP3 MSTORE POP POP JUMP JUMPDEST PUSH2 0x3F72 DUP2 PUSH2 0x4D8D JUMP JUMPDEST DUP3 MSTORE POP POP JUMP JUMPDEST PUSH1 0x0 PUSH2 0x3F83 DUP3 PUSH2 0x4C98 JUMP JUMPDEST PUSH2 0x3F8D DUP2 DUP6 PUSH2 0x4CAE JUMP JUMPDEST SWAP4 POP PUSH2 0x3F9D DUP2 DUP6 PUSH1 0x20 DUP7 ADD PUSH2 0x4E2C JUMP JUMPDEST PUSH2 0x3FA6 DUP2 PUSH2 0x506F JUMP JUMPDEST DUP5 ADD SWAP2 POP POP SWAP3 SWAP2 POP POP JUMP JUMPDEST PUSH2 0x3FBA DUP2 PUSH2 0x4DC5 JUMP JUMPDEST DUP3 MSTORE POP POP JUMP JUMPDEST PUSH2 0x3FC9 DUP2 PUSH2 0x4DF9 JUMP JUMPDEST DUP3 MSTORE POP POP JUMP JUMPDEST PUSH2 0x3FD8 DUP2 PUSH2 0x4E0B JUMP JUMPDEST DUP3 MSTORE POP POP JUMP JUMPDEST PUSH1 0x0 PUSH2 0x3FE9 DUP3 PUSH2 0x4CA3 JUMP JUMPDEST PUSH2 0x3FF3 DUP2 DUP6 PUSH2 0x4CBF JUMP JUMPDEST SWAP4 POP PUSH2 0x4003 DUP2 DUP6 PUSH1 0x20 DUP7 ADD PUSH2 0x4E2C JUMP JUMPDEST PUSH2 0x400C DUP2 PUSH2 0x506F JUMP JUMPDEST DUP5 ADD SWAP2 POP POP SWAP3 SWAP2 POP POP JUMP JUMPDEST PUSH1 0x0 PUSH2 0x4024 PUSH1 0x2B DUP4 PUSH2 0x4CBF JUMP JUMPDEST SWAP2 POP PUSH2 0x402F DUP3 PUSH2 0x508D JUMP JUMPDEST PUSH1 0x40 DUP3 ADD SWAP1 POP SWAP2 SWAP1 POP JUMP JUMPDEST PUSH1 0x0 PUSH2 0x4047 PUSH1 0x32 DUP4 PUSH2 0x4CBF JUMP JUMPDEST SWAP2 POP PUSH2 0x4052 DUP3 PUSH2 0x50DC JUMP JUMPDEST PUSH1 0x40 DUP3 ADD SWAP1 POP SWAP2 SWAP1 POP JUMP JUMPDEST PUSH1 0x0 PUSH2 0x406A PUSH1 0x1D DUP4 PUSH2 0x4CBF JUMP JUMPDEST SWAP2 POP PUSH2 0x4075 DUP3 PUSH2 0x512B JUMP JUMPDEST PUSH1 0x20 DUP3 ADD SWAP1 POP SWAP2 SWAP1 POP JUMP JUMPDEST PUSH1 0x0 PUSH2 0x408D PUSH1 0x26 DUP4 PUSH2 0x4CBF JUMP JUMPDEST SWAP2 POP PUSH2 0x4098 DUP3 PUSH2 0x5154 JUMP JUMPDEST PUSH1 0x40 DUP3 ADD SWAP1 POP SWAP2 SWAP1 POP JUMP JUMPDEST PUSH1 0x0 PUSH2 0x40B0 PUSH1 0x1C DUP4 PUSH2 0x4CBF JUMP JUMPDEST SWAP2 POP PUSH2 0x40BB DUP3 PUSH2 0x51A3 JUMP JUMPDEST PUSH1 0x20 DUP3 ADD SWAP1 POP SWAP2 SWAP1 POP JUMP JUMPDEST PUSH1 0x0 PUSH2 0x40D3 PUSH1 0x27 DUP4 PUSH2 0x4CBF JUMP JUMPDEST SWAP2 POP PUSH2 0x40DE DUP3 PUSH2 0x51CC JUMP JUMPDEST PUSH1 0x40 DUP3 ADD SWAP1 POP SWAP2 SWAP1 POP JUMP JUMPDEST PUSH1 0x0 PUSH2 0x40F6 PUSH1 0x24 DUP4 PUSH2 0x4CBF JUMP JUMPDEST SWAP2 POP PUSH2 0x4101 DUP3 PUSH2 0x521B JUMP JUMPDEST PUSH1 0x40 DUP3 ADD SWAP1 POP SWAP2 SWAP1 POP JUMP JUMPDEST PUSH1 0x0 PUSH2 0x4119 PUSH1 0x19 DUP4 PUSH2 0x4CBF JUMP JUMPDEST SWAP2 POP PUSH2 0x4124 DUP3 PUSH2 0x526A JUMP JUMPDEST PUSH1 0x20 DUP3 ADD SWAP1 POP SWAP2 SWAP1 POP JUMP JUMPDEST PUSH1 0x0 PUSH2 0x413C PUSH1 0x17 DUP4 PUSH2 0x4CBF JUMP JUMPDEST SWAP2 POP PUSH2 0x4147 DUP3 PUSH2 0x5293 JUMP JUMPDEST PUSH1 0x20 DUP3 ADD SWAP1 POP SWAP2 SWAP1 POP JUMP JUMPDEST PUSH1 0x0 PUSH2 0x415F PUSH1 0x14 DUP4 PUSH2 0x4CBF JUMP JUMPDEST SWAP2 POP PUSH2 0x416A DUP3 PUSH2 0x52BC JUMP JUMPDEST PUSH1 0x20 DUP3 ADD SWAP1 POP SWAP2 SWAP1 POP JUMP JUMPDEST PUSH1 0x0 PUSH2 0x4182 PUSH1 0x2C DUP4 PUSH2 0x4CBF JUMP JUMPDEST SWAP2 POP PUSH2 0x418D DUP3 PUSH2 0x52E5 JUMP JUMPDEST PUSH1 0x40 DUP3 ADD SWAP1 POP SWAP2 SWAP1 POP JUMP JUMPDEST PUSH1 0x0 PUSH2 0x41A5 PUSH1 0x14 DUP4 PUSH2 0x4CBF JUMP JUMPDEST SWAP2 POP PUSH2 0x41B0 DUP3 PUSH2 0x5334 JUMP JUMPDEST PUSH1 0x20 DUP3 ADD SWAP1 POP SWAP2 SWAP1 POP JUMP JUMPDEST PUSH1 0x0 PUSH2 0x41C8 PUSH1 0x11 DUP4 PUSH2 0x4CBF JUMP JUMPDEST SWAP2 POP PUSH2 0x41D3 DUP3 PUSH2 0x535D JUMP JUMPDEST PUSH1 0x20 DUP3 ADD SWAP1 POP SWAP2 SWAP1 POP JUMP JUMPDEST PUSH1 0x0 PUSH2 0x41EB PUSH1 0x27 DUP4 PUSH2 0x4CBF JUMP JUMPDEST SWAP2 POP PUSH2 0x41F6 DUP3 PUSH2 0x5386 JUMP JUMPDEST PUSH1 0x40 DUP3 ADD SWAP1 POP SWAP2 SWAP1 POP JUMP JUMPDEST PUSH1 0x0 PUSH2 0x420E PUSH1 0x38 DUP4 PUSH2 0x4CBF JUMP JUMPDEST SWAP2 POP PUSH2 0x4219 DUP3 PUSH2 0x53D5 JUMP JUMPDEST PUSH1 0x40 DUP3 ADD SWAP1 POP SWAP2 SWAP1 POP JUMP JUMPDEST PUSH1 0x0 PUSH2 0x4231 PUSH1 0x2A DUP4 PUSH2 0x4CBF JUMP JUMPDEST SWAP2 POP PUSH2 0x423C DUP3 PUSH2 0x5424 JUMP JUMPDEST PUSH1 0x40 DUP3 ADD SWAP1 POP SWAP2 SWAP1 POP JUMP JUMPDEST PUSH1 0x0 PUSH2 0x4254 PUSH1 0x1B DUP4 PUSH2 0x4CBF JUMP JUMPDEST SWAP2 POP PUSH2 0x425F DUP3 PUSH2 0x5473 JUMP JUMPDEST PUSH1 0x20 DUP3 ADD SWAP1 POP SWAP2 SWAP1 POP JUMP JUMPDEST PUSH1 0x0 PUSH2 0x4277 PUSH1 0x29 DUP4 PUSH2 0x4CBF JUMP JUMPDEST SWAP2 POP PUSH2 0x4282 DUP3 PUSH2 0x549C JUMP JUMPDEST PUSH1 0x40 DUP3 ADD SWAP1 POP SWAP2 SWAP1 POP JUMP JUMPDEST PUSH1 0x0 PUSH2 0x429A PUSH1 0x16 DUP4 PUSH2 0x4CBF JUMP JUMPDEST SWAP2 POP PUSH2 0x42A5 DUP3 PUSH2 0x54EB JUMP JUMPDEST PUSH1 0x20 DUP3 ADD SWAP1 POP SWAP2 SWAP1 POP JUMP JUMPDEST PUSH1 0x0 PUSH2 0x42BD PUSH1 0x35 DUP4 PUSH2 0x4CBF JUMP JUMPDEST SWAP2 POP PUSH2 0x42C8 DUP3 PUSH2 0x5514 JUMP JUMPDEST PUSH1 0x40 DUP3 ADD SWAP1 POP SWAP2 SWAP1 POP JUMP JUMPDEST PUSH1 0x0 PUSH2 0x42E0 PUSH1 0x18 DUP4 PUSH2 0x4CBF JUMP JUMPDEST SWAP2 POP PUSH2 0x42EB DUP3 PUSH2 0x5563 JUMP JUMPDEST PUSH1 0x20 DUP3 ADD SWAP1 POP SWAP2 SWAP1 POP JUMP JUMPDEST PUSH1 0x0 PUSH2 0x4303 PUSH1 0x20 DUP4 PUSH2 0x4CBF JUMP JUMPDEST SWAP2 POP PUSH2 0x430E DUP3 PUSH2 0x558C JUMP JUMPDEST PUSH1 0x20 DUP3 ADD SWAP1 POP SWAP2 SWAP1 POP JUMP JUMPDEST PUSH1 0x0 PUSH2 0x4326 PUSH1 0x2C DUP4 PUSH2 0x4CBF JUMP JUMPDEST SWAP2 POP PUSH2 0x4331 DUP3 PUSH2 0x55B5 JUMP JUMPDEST PUSH1 0x40 DUP3 ADD SWAP1 POP SWAP2 SWAP1 POP JUMP JUMPDEST PUSH1 0x0 PUSH2 0x4349 PUSH1 0x20 DUP4 PUSH2 0x4CBF JUMP JUMPDEST SWAP2 POP PUSH2 0x4354 DUP3 PUSH2 0x5604 JUMP JUMPDEST PUSH1 0x20 DUP3 ADD SWAP1 POP SWAP2 SWAP1 POP JUMP JUMPDEST PUSH1 0x0 PUSH2 0x436C PUSH1 0x26 DUP4 PUSH2 0x4CBF JUMP JUMPDEST SWAP2 POP PUSH2 0x4377 DUP3 PUSH2 0x562D JUMP JUMPDEST PUSH1 0x40 DUP3 ADD SWAP1 POP SWAP2 SWAP1 POP JUMP JUMPDEST PUSH1 0x0 PUSH2 0x438F PUSH1 0x29 DUP4 PUSH2 0x4CBF JUMP JUMPDEST SWAP2 POP PUSH2 0x439A DUP3 PUSH2 0x567C JUMP JUMPDEST PUSH1 0x40 DUP3 ADD SWAP1 POP SWAP2 SWAP1 POP JUMP JUMPDEST PUSH1 0x0 PUSH2 0x43B2 PUSH1 0x21 DUP4 PUSH2 0x4CBF JUMP JUMPDEST SWAP2 POP PUSH2 0x43BD DUP3 PUSH2 0x56CB JUMP JUMPDEST PUSH1 0x40 DUP3 ADD SWAP1 POP SWAP2 SWAP1 POP JUMP JUMPDEST PUSH1 0x0 PUSH2 0x43D5 PUSH1 0x31 DUP4 PUSH2 0x4CBF JUMP JUMPDEST SWAP2 POP PUSH2 0x43E0 DUP3 PUSH2 0x571A JUMP JUMPDEST PUSH1 0x40 DUP3 ADD SWAP1 POP SWAP2 SWAP1 POP JUMP JUMPDEST PUSH1 0x0 PUSH2 0x43F8 PUSH1 0x2A DUP4 PUSH2 0x4CBF JUMP JUMPDEST SWAP2 POP PUSH2 0x4403 DUP3 PUSH2 0x5769 JUMP JUMPDEST PUSH1 0x40 DUP3 ADD SWAP1 POP SWAP2 SWAP1 POP JUMP JUMPDEST PUSH1 0x0 PUSH2 0x441B PUSH1 0x2C DUP4 PUSH2 0x4CBF JUMP JUMPDEST SWAP2 POP PUSH2 0x4426 DUP3 PUSH2 0x57B8 JUMP JUMPDEST PUSH1 0x40 DUP3 ADD SWAP1 POP SWAP2 SWAP1 POP JUMP JUMPDEST PUSH1 0x0 PUSH2 0x443E PUSH1 0x13 DUP4 PUSH2 0x4CBF JUMP JUMPDEST SWAP2 POP PUSH2 0x4449 DUP3 PUSH2 0x5807 JUMP JUMPDEST PUSH1 0x20 DUP3 ADD SWAP1 POP SWAP2 SWAP1 POP JUMP JUMPDEST PUSH1 0x0 PUSH2 0x4461 PUSH1 0x1A DUP4 PUSH2 0x4CBF JUMP JUMPDEST SWAP2 POP PUSH2 0x446C DUP3 PUSH2 0x5830 JUMP JUMPDEST PUSH1 0x20 DUP3 ADD SWAP1 POP SWAP2 SWAP1 POP JUMP JUMPDEST PUSH1 0xC0 DUP3 ADD PUSH1 0x0 DUP3 ADD MLOAD PUSH2 0x448D PUSH1 0x0 DUP6 ADD DUP3 PUSH2 0x3F5A JUMP JUMPDEST POP PUSH1 0x20 DUP3 ADD MLOAD PUSH2 0x44A0 PUSH1 0x20 DUP6 ADD DUP3 PUSH2 0x4670 JUMP JUMPDEST POP PUSH1 0x40 DUP3 ADD MLOAD PUSH2 0x44B3 PUSH1 0x40 DUP6 ADD DUP3 PUSH2 0x3FB1 JUMP JUMPDEST POP PUSH1 0x60 DUP3 ADD MLOAD PUSH2 0x44C6 PUSH1 0x60 DUP6 ADD DUP3 PUSH2 0x4670 JUMP JUMPDEST POP PUSH1 0x80 DUP3 ADD MLOAD PUSH2 0x44D9 PUSH1 0x80 DUP6 ADD DUP3 PUSH2 0x4670 JUMP JUMPDEST POP PUSH1 0xA0 DUP3 ADD MLOAD PUSH2 0x44EC PUSH1 0xA0 DUP6 ADD DUP3 PUSH2 0x4670 JUMP JUMPDEST POP POP POP POP JUMP JUMPDEST PUSH1 0xC0 DUP3 ADD PUSH1 0x0 DUP1 DUP4 ADD SLOAD SWAP1 POP PUSH2 0x4507 DUP2 PUSH2 0x4E91 JUMP JUMPDEST PUSH2 0x4514 PUSH1 0x0 DUP7 ADD DUP3 PUSH2 0x3F5A JUMP JUMPDEST POP PUSH1 0x1 DUP4 ADD SLOAD SWAP1 POP PUSH2 0x4525 DUP2 PUSH2 0x4EC5 JUMP JUMPDEST PUSH2 0x4532 PUSH1 0x20 DUP7 ADD DUP3 PUSH2 0x4670 JUMP JUMPDEST POP PUSH1 0x2 DUP4 ADD SLOAD SWAP1 POP PUSH2 0x4543 DUP2 PUSH2 0x4EAB JUMP JUMPDEST PUSH2 0x4550 PUSH1 0x40 DUP7 ADD DUP3 PUSH2 0x3FB1 JUMP JUMPDEST POP PUSH1 0x3 DUP4 ADD SLOAD SWAP1 POP PUSH2 0x4561 DUP2 PUSH2 0x4EC5 JUMP JUMPDEST PUSH2 0x456E PUSH1 0x60 DUP7 ADD DUP3 PUSH2 0x4670 JUMP JUMPDEST POP PUSH1 0x4 DUP4 ADD SLOAD SWAP1 POP PUSH2 0x457F DUP2 PUSH2 0x4EC5 JUMP JUMPDEST PUSH2 0x458C PUSH1 0x80 DUP7 ADD DUP3 PUSH2 0x4670 JUMP JUMPDEST POP PUSH1 0x5 DUP4 ADD SLOAD SWAP1 POP PUSH2 0x459D DUP2 PUSH2 0x4EC5 JUMP JUMPDEST PUSH2 0x45AA PUSH1 0xA0 DUP7 ADD DUP3 PUSH2 0x4670 JUMP JUMPDEST POP POP POP POP POP JUMP JUMPDEST PUSH1 0xC0 DUP3 ADD PUSH1 0x0 DUP1 DUP4 ADD SLOAD SWAP1 POP PUSH2 0x45C6 DUP2 PUSH2 0x4E91 JUMP JUMPDEST PUSH2 0x45D3 PUSH1 0x0 DUP7 ADD DUP3 PUSH2 0x3F5A JUMP JUMPDEST POP PUSH1 0x1 DUP4 ADD SLOAD SWAP1 POP PUSH2 0x45E4 DUP2 PUSH2 0x4EC5 JUMP JUMPDEST PUSH2 0x45F1 PUSH1 0x20 DUP7 ADD DUP3 PUSH2 0x4670 JUMP JUMPDEST POP PUSH1 0x2 DUP4 ADD SLOAD SWAP1 POP PUSH2 0x4602 DUP2 PUSH2 0x4EAB JUMP JUMPDEST PUSH2 0x460F PUSH1 0x40 DUP7 ADD DUP3 PUSH2 0x3FB1 JUMP JUMPDEST POP PUSH1 0x3 DUP4 ADD SLOAD SWAP1 POP PUSH2 0x4620 DUP2 PUSH2 0x4EC5 JUMP JUMPDEST PUSH2 0x462D PUSH1 0x60 DUP7 ADD DUP3 PUSH2 0x4670 JUMP JUMPDEST POP PUSH1 0x4 DUP4 ADD SLOAD SWAP1 POP PUSH2 0x463E DUP2 PUSH2 0x4EC5 JUMP JUMPDEST PUSH2 0x464B PUSH1 0x80 DUP7 ADD DUP3 PUSH2 0x4670 JUMP JUMPDEST POP PUSH1 0x5 DUP4 ADD SLOAD SWAP1 POP PUSH2 0x465C DUP2 PUSH2 0x4EC5 JUMP JUMPDEST PUSH2 0x4669 PUSH1 0xA0 DUP7 ADD DUP3 PUSH2 0x4670 JUMP JUMPDEST POP POP POP POP POP JUMP JUMPDEST PUSH2 0x4679 DUP2 PUSH2 0x4DEF JUMP JUMPDEST DUP3 MSTORE POP POP JUMP JUMPDEST PUSH2 0x4688 DUP2 PUSH2 0x4DEF JUMP JUMPDEST DUP3 MSTORE POP POP JUMP JUMPDEST PUSH1 0x0 PUSH1 0x20 DUP3 ADD SWAP1 POP PUSH2 0x46A3 PUSH1 0x0 DUP4 ADD DUP5 PUSH2 0x3F4B JUMP JUMPDEST SWAP3 SWAP2 POP POP JUMP JUMPDEST PUSH1 0x0 PUSH1 0x40 DUP3 ADD SWAP1 POP PUSH2 0x46BE PUSH1 0x0 DUP4 ADD DUP6 PUSH2 0x3F4B JUMP JUMPDEST PUSH2 0x46CB PUSH1 0x20 DUP4 ADD DUP5 PUSH2 0x3F4B JUMP JUMPDEST SWAP4 SWAP3 POP POP POP JUMP JUMPDEST PUSH1 0x0 PUSH1 0x80 DUP3 ADD SWAP1 POP PUSH2 0x46E7 PUSH1 0x0 DUP4 ADD DUP8 PUSH2 0x3F4B JUMP JUMPDEST PUSH2 0x46F4 PUSH1 0x20 DUP4 ADD DUP7 PUSH2 0x3F4B JUMP JUMPDEST PUSH2 0x4701 PUSH1 0x40 DUP4 ADD DUP6 PUSH2 0x467F JUMP JUMPDEST DUP2 DUP2 SUB PUSH1 0x60 DUP4 ADD MSTORE PUSH2 0x4713 DUP2 DUP5 PUSH2 0x3F78 JUMP JUMPDEST SWAP1 POP SWAP6 SWAP5 POP POP POP POP POP JUMP JUMPDEST PUSH1 0x0 PUSH1 0x40 DUP3 ADD SWAP1 POP PUSH2 0x4733 PUSH1 0x0 DUP4 ADD DUP6 PUSH2 0x3F4B JUMP JUMPDEST PUSH2 0x4740 PUSH1 0x20 DUP4 ADD DUP5 PUSH2 0x3FC0 JUMP JUMPDEST SWAP4 SWAP3 POP POP POP JUMP JUMPDEST PUSH1 0x0 PUSH1 0x40 DUP3 ADD SWAP1 POP PUSH2 0x475C PUSH1 0x0 DUP4 ADD DUP6 PUSH2 0x3F4B JUMP JUMPDEST PUSH2 0x4769 PUSH1 0x20 DUP4 ADD DUP5 PUSH2 0x3FCF JUMP JUMPDEST SWAP4 SWAP3 POP POP POP JUMP JUMPDEST PUSH1 0x0 PUSH1 0x20 DUP3 ADD SWAP1 POP PUSH2 0x4785 PUSH1 0x0 DUP4 ADD DUP5 PUSH2 0x3F69 JUMP JUMPDEST SWAP3 SWAP2 POP POP JUMP JUMPDEST PUSH1 0x0 PUSH1 0x20 DUP3 ADD SWAP1 POP DUP2 DUP2 SUB PUSH1 0x0 DUP4 ADD MSTORE PUSH2 0x47A5 DUP2 DUP5 PUSH2 0x3FDE JUMP JUMPDEST SWAP1 POP SWAP3 SWAP2 POP POP JUMP JUMPDEST PUSH1 0x0 PUSH1 0x20 DUP3 ADD SWAP1 POP DUP2 DUP2 SUB PUSH1 0x0 DUP4 ADD MSTORE PUSH2 0x47C6 DUP2 PUSH2 0x4017 JUMP JUMPDEST SWAP1 POP SWAP2 SWAP1 POP JUMP JUMPDEST PUSH1 0x0 PUSH1 0x20 DUP3 ADD SWAP1 POP DUP2 DUP2 SUB PUSH1 0x0 DUP4 ADD MSTORE PUSH2 0x47E6 DUP2 PUSH2 0x403A JUMP JUMPDEST SWAP1 POP SWAP2 SWAP1 POP JUMP JUMPDEST PUSH1 0x0 PUSH1 0x20 DUP3 ADD SWAP1 POP DUP2 DUP2 SUB PUSH1 0x0 DUP4 ADD MSTORE PUSH2 0x4806 DUP2 PUSH2 0x405D JUMP JUMPDEST SWAP1 POP SWAP2 SWAP1 POP JUMP JUMPDEST PUSH1 0x0 PUSH1 0x20 DUP3 ADD SWAP1 POP DUP2 DUP2 SUB PUSH1 0x0 DUP4 ADD MSTORE PUSH2 0x4826 DUP2 PUSH2 0x4080 JUMP JUMPDEST SWAP1 POP SWAP2 SWAP1 POP JUMP JUMPDEST PUSH1 0x0 PUSH1 0x20 DUP3 ADD SWAP1 POP DUP2 DUP2 SUB PUSH1 0x0 DUP4 ADD MSTORE PUSH2 0x4846 DUP2 PUSH2 0x40A3 JUMP JUMPDEST SWAP1 POP SWAP2 SWAP1 POP JUMP JUMPDEST PUSH1 0x0 PUSH1 0x20 DUP3 ADD SWAP1 POP DUP2 DUP2 SUB PUSH1 0x0 DUP4 ADD MSTORE PUSH2 0x4866 DUP2 PUSH2 0x40C6 JUMP JUMPDEST SWAP1 POP SWAP2 SWAP1 POP JUMP JUMPDEST PUSH1 0x0 PUSH1 0x20 DUP3 ADD SWAP1 POP DUP2 DUP2 SUB PUSH1 0x0 DUP4 ADD MSTORE PUSH2 0x4886 DUP2 PUSH2 0x40E9 JUMP JUMPDEST SWAP1 POP SWAP2 SWAP1 POP JUMP JUMPDEST PUSH1 0x0 PUSH1 0x20 DUP3 ADD SWAP1 POP DUP2 DUP2 SUB PUSH1 0x0 DUP4 ADD MSTORE PUSH2 0x48A6 DUP2 PUSH2 0x410C JUMP JUMPDEST SWAP1 POP SWAP2 SWAP1 POP JUMP JUMPDEST PUSH1 0x0 PUSH1 0x20 DUP3 ADD SWAP1 POP DUP2 DUP2 SUB PUSH1 0x0 DUP4 ADD MSTORE PUSH2 0x48C6 DUP2 PUSH2 0x412F JUMP JUMPDEST SWAP1 POP SWAP2 SWAP1 POP JUMP JUMPDEST PUSH1 0x0 PUSH1 0x20 DUP3 ADD SWAP1 POP DUP2 DUP2 SUB PUSH1 0x0 DUP4 ADD MSTORE PUSH2 0x48E6 DUP2 PUSH2 0x4152 JUMP JUMPDEST SWAP1 POP SWAP2 SWAP1 POP JUMP JUMPDEST PUSH1 0x0 PUSH1 0x20 DUP3 ADD SWAP1 POP DUP2 DUP2 SUB PUSH1 0x0 DUP4 ADD MSTORE PUSH2 0x4906 DUP2 PUSH2 0x4175 JUMP JUMPDEST SWAP1 POP SWAP2 SWAP1 POP JUMP JUMPDEST PUSH1 0x0 PUSH1 0x20 DUP3 ADD SWAP1 POP DUP2 DUP2 SUB PUSH1 0x0 DUP4 ADD MSTORE PUSH2 0x4926 DUP2 PUSH2 0x4198 JUMP JUMPDEST SWAP1 POP SWAP2 SWAP1 POP JUMP JUMPDEST PUSH1 0x0 PUSH1 0x20 DUP3 ADD SWAP1 POP DUP2 DUP2 SUB PUSH1 0x0 DUP4 ADD MSTORE PUSH2 0x4946 DUP2 PUSH2 0x41BB JUMP JUMPDEST SWAP1 POP SWAP2 SWAP1 POP JUMP JUMPDEST PUSH1 0x0 PUSH1 0x20 DUP3 ADD SWAP1 POP DUP2 DUP2 SUB PUSH1 0x0 DUP4 ADD MSTORE PUSH2 0x4966 DUP2 PUSH2 0x41DE JUMP JUMPDEST SWAP1 POP SWAP2 SWAP1 POP JUMP JUMPDEST PUSH1 0x0 PUSH1 0x20 DUP3 ADD SWAP1 POP DUP2 DUP2 SUB PUSH1 0x0 DUP4 ADD MSTORE PUSH2 0x4986 DUP2 PUSH2 0x4201 JUMP JUMPDEST SWAP1 POP SWAP2 SWAP1 POP JUMP JUMPDEST PUSH1 0x0 PUSH1 0x20 DUP3 ADD SWAP1 POP DUP2 DUP2 SUB PUSH1 0x0 DUP4 ADD MSTORE PUSH2 0x49A6 DUP2 PUSH2 0x4224 JUMP JUMPDEST SWAP1 POP SWAP2 SWAP1 POP JUMP JUMPDEST PUSH1 0x0 PUSH1 0x20 DUP3 ADD SWAP1 POP DUP2 DUP2 SUB PUSH1 0x0 DUP4 ADD MSTORE PUSH2 0x49C6 DUP2 PUSH2 0x4247 JUMP JUMPDEST SWAP1 POP SWAP2 SWAP1 POP JUMP JUMPDEST PUSH1 0x0 PUSH1 0x20 DUP3 ADD SWAP1 POP DUP2 DUP2 SUB PUSH1 0x0 DUP4 ADD MSTORE PUSH2 0x49E6 DUP2 PUSH2 0x426A JUMP JUMPDEST SWAP1 POP SWAP2 SWAP1 POP JUMP JUMPDEST PUSH1 0x0 PUSH1 0x20 DUP3 ADD SWAP1 POP DUP2 DUP2 SUB PUSH1 0x0 DUP4 ADD MSTORE PUSH2 0x4A06 DUP2 PUSH2 0x428D JUMP JUMPDEST SWAP1 POP SWAP2 SWAP1 POP JUMP JUMPDEST PUSH1 0x0 PUSH1 0x20 DUP3 ADD SWAP1 POP DUP2 DUP2 SUB PUSH1 0x0 DUP4 ADD MSTORE PUSH2 0x4A26 DUP2 PUSH2 0x42B0 JUMP JUMPDEST SWAP1 POP SWAP2 SWAP1 POP JUMP JUMPDEST PUSH1 0x0 PUSH1 0x20 DUP3 ADD SWAP1 POP DUP2 DUP2 SUB PUSH1 0x0 DUP4 ADD MSTORE PUSH2 0x4A46 DUP2 PUSH2 0x42D3 JUMP JUMPDEST SWAP1 POP SWAP2 SWAP1 POP JUMP JUMPDEST PUSH1 0x0 PUSH1 0x20 DUP3 ADD SWAP1 POP DUP2 DUP2 SUB PUSH1 0x0 DUP4 ADD MSTORE PUSH2 0x4A66 DUP2 PUSH2 0x42F6 JUMP JUMPDEST SWAP1 POP SWAP2 SWAP1 POP JUMP JUMPDEST PUSH1 0x0 PUSH1 0x20 DUP3 ADD SWAP1 POP DUP2 DUP2 SUB PUSH1 0x0 DUP4 ADD MSTORE PUSH2 0x4A86 DUP2 PUSH2 0x4319 JUMP JUMPDEST SWAP1 POP SWAP2 SWAP1 POP JUMP JUMPDEST PUSH1 0x0 PUSH1 0x20 DUP3 ADD SWAP1 POP DUP2 DUP2 SUB PUSH1 0x0 DUP4 ADD MSTORE PUSH2 0x4AA6 DUP2 PUSH2 0x433C JUMP JUMPDEST SWAP1 POP SWAP2 SWAP1 POP JUMP JUMPDEST PUSH1 0x0 PUSH1 0x20 DUP3 ADD SWAP1 POP DUP2 DUP2 SUB PUSH1 0x0 DUP4 ADD MSTORE PUSH2 0x4AC6 DUP2 PUSH2 0x435F JUMP JUMPDEST SWAP1 POP SWAP2 SWAP1 POP JUMP JUMPDEST PUSH1 0x0 PUSH1 0x20 DUP3 ADD SWAP1 POP DUP2 DUP2 SUB PUSH1 0x0 DUP4 ADD MSTORE PUSH2 0x4AE6 DUP2 PUSH2 0x4382 JUMP JUMPDEST SWAP1 POP SWAP2 SWAP1 POP JUMP JUMPDEST PUSH1 0x0 PUSH1 0x20 DUP3 ADD SWAP1 POP DUP2 DUP2 SUB PUSH1 0x0 DUP4 ADD MSTORE PUSH2 0x4B06 DUP2 PUSH2 0x43A5 JUMP JUMPDEST SWAP1 POP SWAP2 SWAP1 POP JUMP JUMPDEST PUSH1 0x0 PUSH1 0x20 DUP3 ADD SWAP1 POP DUP2 DUP2 SUB PUSH1 0x0 DUP4 ADD MSTORE PUSH2 0x4B26 DUP2 PUSH2 0x43C8 JUMP JUMPDEST SWAP1 POP SWAP2 SWAP1 POP JUMP JUMPDEST PUSH1 0x0 PUSH1 0x20 DUP3 ADD SWAP1 POP DUP2 DUP2 SUB PUSH1 0x0 DUP4 ADD MSTORE PUSH2 0x4B46 DUP2 PUSH2 0x43EB JUMP JUMPDEST SWAP1 POP SWAP2 SWAP1 POP JUMP JUMPDEST PUSH1 0x0 PUSH1 0x20 DUP3 ADD SWAP1 POP DUP2 DUP2 SUB PUSH1 0x0 DUP4 ADD MSTORE PUSH2 0x4B66 DUP2 PUSH2 0x440E JUMP JUMPDEST SWAP1 POP SWAP2 SWAP1 POP JUMP JUMPDEST PUSH1 0x0 PUSH1 0x20 DUP3 ADD SWAP1 POP DUP2 DUP2 SUB PUSH1 0x0 DUP4 ADD MSTORE PUSH2 0x4B86 DUP2 PUSH2 0x4431 JUMP JUMPDEST SWAP1 POP SWAP2 SWAP1 POP JUMP JUMPDEST PUSH1 0x0 PUSH1 0x20 DUP3 ADD SWAP1 POP DUP2 DUP2 SUB PUSH1 0x0 DUP4 ADD MSTORE PUSH2 0x4BA6 DUP2 PUSH2 0x4454 JUMP JUMPDEST SWAP1 POP SWAP2 SWAP1 POP JUMP JUMPDEST PUSH1 0x0 PUSH1 0xC0 DUP3 ADD SWAP1 POP PUSH2 0x4BC2 PUSH1 0x0 DUP4 ADD DUP5 PUSH2 0x4477 JUMP JUMPDEST SWAP3 SWAP2 POP POP JUMP JUMPDEST PUSH1 0x0 PUSH1 0xC0 DUP3 ADD SWAP1 POP PUSH2 0x4BDD PUSH1 0x0 DUP4 ADD DUP5 PUSH2 0x45B1 JUMP JUMPDEST SWAP3 SWAP2 POP POP JUMP JUMPDEST PUSH1 0x0 PUSH1 0xC0 DUP3 ADD SWAP1 POP PUSH2 0x4BF8 PUSH1 0x0 DUP4 ADD DUP5 PUSH2 0x44F2 JUMP JUMPDEST SWAP3 SWAP2 POP POP JUMP JUMPDEST PUSH1 0x0 PUSH1 0x20 DUP3 ADD SWAP1 POP PUSH2 0x4C13 PUSH1 0x0 DUP4 ADD DUP5 PUSH2 0x467F JUMP JUMPDEST SWAP3 SWAP2 POP POP JUMP JUMPDEST PUSH1 0x0 PUSH1 0x40 DUP3 ADD SWAP1 POP PUSH2 0x4C2E PUSH1 0x0 DUP4 ADD DUP6 PUSH2 0x467F JUMP JUMPDEST PUSH2 0x4C3B PUSH1 0x20 DUP4 ADD DUP5 PUSH2 0x467F JUMP JUMPDEST SWAP4 SWAP3 POP POP POP JUMP JUMPDEST PUSH1 0x0 PUSH2 0x4C4C PUSH2 0x4C5D JUMP JUMPDEST SWAP1 POP PUSH2 0x4C58 DUP3 DUP3 PUSH2 0x4EDF JUMP JUMPDEST SWAP2 SWAP1 POP JUMP JUMPDEST PUSH1 0x0 PUSH1 0x40 MLOAD SWAP1 POP SWAP1 JUMP JUMPDEST PUSH1 0x0 PUSH8 0xFFFFFFFFFFFFFFFF DUP3 GT ISZERO PUSH2 0x4C82 JUMPI PUSH2 0x4C81 PUSH2 0x502C JUMP JUMPDEST JUMPDEST PUSH2 0x4C8B DUP3 PUSH2 0x506F JUMP JUMPDEST SWAP1 POP PUSH1 0x20 DUP2 ADD SWAP1 POP SWAP2 SWAP1 POP JUMP JUMPDEST PUSH1 0x0 DUP2 MLOAD SWAP1 POP SWAP2 SWAP1 POP JUMP JUMPDEST PUSH1 0x0 DUP2 MLOAD SWAP1 POP SWAP2 SWAP1 POP JUMP JUMPDEST PUSH1 0x0 DUP3 DUP3 MSTORE PUSH1 0x20 DUP3 ADD SWAP1 POP SWAP3 SWAP2 POP POP JUMP JUMPDEST PUSH1 0x0 DUP3 DUP3 MSTORE PUSH1 0x20 DUP3 ADD SWAP1 POP SWAP3 SWAP2 POP POP JUMP JUMPDEST PUSH1 0x0 PUSH2 0x4CDB DUP3 PUSH2 0x4DEF JUMP JUMPDEST SWAP2 POP PUSH2 0x4CE6 DUP4 PUSH2 0x4DEF JUMP JUMPDEST SWAP3 POP DUP3 PUSH32 0xFFFFFFFFFFFFFFFFFFFFFFFFFFFFFFFFFFFFFFFFFFFFFFFFFFFFFFFFFFFFFFFF SUB DUP3 GT ISZERO PUSH2 0x4D1B JUMPI PUSH2 0x4D1A PUSH2 0x4F41 JUMP JUMPDEST JUMPDEST DUP3 DUP3 ADD SWAP1 POP SWAP3 SWAP2 POP POP JUMP JUMPDEST PUSH1 0x0 PUSH2 0x4D31 DUP3 PUSH2 0x4DEF JUMP JUMPDEST SWAP2 POP PUSH2 0x4D3C DUP4 PUSH2 0x4DEF JUMP JUMPDEST SWAP3 POP DUP3 DUP3 LT ISZERO PUSH2 0x4D4F JUMPI PUSH2 0x4D4E PUSH2 0x4F41 JUMP JUMPDEST JUMPDEST DUP3 DUP3 SUB SWAP1 POP SWAP3 SWAP2 POP POP JUMP JUMPDEST PUSH1 0x0 PUSH1 0xFF DUP3 AND SWAP1 POP SWAP2 SWAP1 POP JUMP JUMPDEST PUSH1 0x0 DUP2 SWAP1 POP SWAP2 SWAP1 POP JUMP JUMPDEST PUSH1 0x0 DUP2 SWAP1 POP SWAP2 SWAP1 POP JUMP JUMPDEST PUSH1 0x0 PUSH2 0x4D86 DUP3 PUSH2 0x4DCF JUMP JUMPDEST SWAP1 POP SWAP2 SWAP1 POP JUMP JUMPDEST PUSH1 0x0 DUP2 ISZERO ISZERO SWAP1 POP SWAP2 SWAP1 POP JUMP JUMPDEST PUSH1 0x0 PUSH32 0xFFFFFFFF00000000000000000000000000000000000000000000000000000000 DUP3 AND SWAP1 POP SWAP2 SWAP1 POP JUMP JUMPDEST PUSH1 0x0 DUP2 SWAP1 POP SWAP2 SWAP1 POP JUMP JUMPDEST PUSH1 0x0 PUSH20 0xFFFFFFFFFFFFFFFFFFFFFFFFFFFFFFFFFFFFFFFF DUP3 AND SWAP1 POP SWAP2 SWAP1 POP JUMP JUMPDEST PUSH1 0x0 DUP2 SWAP1 POP SWAP2 SWAP1 POP JUMP JUMPDEST PUSH1 0x0 PUSH2 0x4E04 DUP3 PUSH2 0x4DEF JUMP JUMPDEST SWAP1 POP SWAP2 SWAP1 POP JUMP JUMPDEST PUSH1 0x0 PUSH2 0x4E16 DUP3 PUSH2 0x4DEF JUMP JUMPDEST SWAP1 POP SWAP2 SWAP1 POP JUMP JUMPDEST DUP3 DUP2 DUP4 CALLDATACOPY PUSH1 0x0 DUP4 DUP4 ADD MSTORE POP POP POP JUMP JUMPDEST PUSH1 0x0 JUMPDEST DUP4 DUP2 LT ISZERO PUSH2 0x4E4A JUMPI DUP1 DUP3 ADD MLOAD DUP2 DUP5 ADD MSTORE PUSH1 0x20 DUP2 ADD SWAP1 POP PUSH2 0x4E2F JUMP JUMPDEST DUP4 DUP2 GT ISZERO PUSH2 0x4E59 JUMPI PUSH1 0x0 DUP5 DUP5 ADD MSTORE JUMPDEST POP POP POP POP JUMP JUMPDEST PUSH1 0x0 PUSH1 0x2 DUP3 DIV SWAP1 POP PUSH1 0x1 DUP3 AND DUP1 PUSH2 0x4E77 JUMPI PUSH1 0x7F DUP3 AND SWAP2 POP JUMPDEST PUSH1 0x20 DUP3 LT DUP2 EQ ISZERO PUSH2 0x4E8B JUMPI PUSH2 0x4E8A PUSH2 0x4F9F JUMP JUMPDEST JUMPDEST POP SWAP2 SWAP1 POP JUMP JUMPDEST PUSH1 0x0 PUSH2 0x4EA4 PUSH2 0x4E9F DUP4 PUSH2 0x5080 JUMP JUMPDEST PUSH2 0x4D5A JUMP JUMPDEST SWAP1 POP SWAP2 SWAP1 POP JUMP JUMPDEST PUSH1 0x0 PUSH2 0x4EBE PUSH2 0x4EB9 DUP4 PUSH2 0x5080 JUMP JUMPDEST PUSH2 0x4D67 JUMP JUMPDEST SWAP1 POP SWAP2 SWAP1 POP JUMP JUMPDEST PUSH1 0x0 PUSH2 0x4ED8 PUSH2 0x4ED3 DUP4 PUSH2 0x5080 JUMP JUMPDEST PUSH2 0x4D71 JUMP JUMPDEST SWAP1 POP SWAP2 SWAP1 POP JUMP JUMPDEST PUSH2 0x4EE8 DUP3 PUSH2 0x506F JUMP JUMPDEST DUP2 ADD DUP2 DUP2 LT PUSH8 0xFFFFFFFFFFFFFFFF DUP3 GT OR ISZERO PUSH2 0x4F07 JUMPI PUSH2 0x4F06 PUSH2 0x502C JUMP JUMPDEST JUMPDEST DUP1 PUSH1 0x40 MSTORE POP POP POP JUMP JUMPDEST PUSH1 0x0 PUSH2 0x4F1B DUP3 PUSH2 0x4DEF JUMP JUMPDEST SWAP2 POP PUSH2 0x4F26 DUP4 PUSH2 0x4DEF JUMP JUMPDEST SWAP3 POP DUP3 PUSH2 0x4F36 JUMPI PUSH2 0x4F35 PUSH2 0x4F70 JUMP JUMPDEST JUMPDEST DUP3 DUP3 MOD SWAP1 POP SWAP3 SWAP2 POP POP JUMP JUMPDEST PUSH32 0x4E487B7100000000000000000000000000000000000000000000000000000000 PUSH1 0x0 MSTORE PUSH1 0x11 PUSH1 0x4 MSTORE PUSH1 0x24 PUSH1 0x0 REVERT JUMPDEST PUSH32 0x4E487B7100000000000000000000000000000000000000000000000000000000 PUSH1 0x0 MSTORE PUSH1 0x12 PUSH1 0x4 MSTORE PUSH1 0x24 PUSH1 0x0 REVERT JUMPDEST PUSH32 0x4E487B7100000000000000000000000000000000000000000000000000000000 PUSH1 0x0 MSTORE PUSH1 0x22 PUSH1 0x4 MSTORE PUSH1 0x24 PUSH1 0x0 REVERT JUMPDEST PUSH32 0x4E487B7100000000000000000000000000000000000000000000000000000000 PUSH1 0x0 MSTORE PUSH1 0x31 PUSH1 0x4 MSTORE PUSH1 0x24 PUSH1 0x0 REVERT JUMPDEST PUSH32 0x4E487B7100000000000000000000000000000000000000000000000000000000 PUSH1 0x0 MSTORE PUSH1 0x32 PUSH1 0x4 MSTORE PUSH1 0x24 PUSH1 0x0 REVERT JUMPDEST PUSH32 0x4E487B7100000000000000000000000000000000000000000000000000000000 PUSH1 0x0 MSTORE PUSH1 0x41 PUSH1 0x4 MSTORE PUSH1 0x24 PUSH1 0x0 REVERT JUMPDEST PUSH1 0x0 DUP1 REVERT JUMPDEST PUSH1 0x0 DUP1 REVERT JUMPDEST PUSH1 0x0 DUP1 REVERT JUMPDEST PUSH1 0x0 DUP1 REVERT JUMPDEST PUSH1 0x0 PUSH1 0x1F NOT PUSH1 0x1F DUP4 ADD AND SWAP1 POP SWAP2 SWAP1 POP JUMP JUMPDEST PUSH1 0x0 DUP2 PUSH1 0x0 SHR SWAP1 POP SWAP2 SWAP1 POP JUMP JUMPDEST PUSH32 0x455243373231456E756D657261626C653A206F776E657220696E646578206F75 PUSH1 0x0 DUP3 ADD MSTORE PUSH32 0x74206F6620626F756E6473000000000000000000000000000000000000000000 PUSH1 0x20 DUP3 ADD MSTORE POP JUMP JUMPDEST PUSH32 0x4552433732313A207472616E7366657220746F206E6F6E204552433732315265 PUSH1 0x0 DUP3 ADD MSTORE PUSH32 0x63656976657220696D706C656D656E7465720000000000000000000000000000 PUSH1 0x20 DUP3 ADD MSTORE POP JUMP JUMPDEST PUSH32 0x4E6F206D6F72652066656D616C65732063616E206265206D696E746564000000 PUSH1 0x0 DUP3 ADD MSTORE POP JUMP JUMPDEST PUSH32 0x4F776E61626C653A206E6577206F776E657220697320746865207A65726F2061 PUSH1 0x0 DUP3 ADD MSTORE PUSH32 0x6464726573730000000000000000000000000000000000000000000000000000 PUSH1 0x20 DUP3 ADD MSTORE POP JUMP JUMPDEST PUSH32 0x4552433732313A20746F6B656E20616C7265616479206D696E74656400000000 PUSH1 0x0 DUP3 ADD MSTORE POP JUMP JUMPDEST PUSH32 0x596F752063616E2774206D616B65206B696473206F6E20616E20656D70747920 PUSH1 0x0 DUP3 ADD MSTORE PUSH32 0x73746F6D61636800000000000000000000000000000000000000000000000000 PUSH1 0x20 DUP3 ADD MSTORE POP JUMP JUMPDEST PUSH32 0x4552433732313A207472616E7366657220746F20746865207A65726F20616464 PUSH1 0x0 DUP3 ADD MSTORE PUSH32 0x7265737300000000000000000000000000000000000000000000000000000000 PUSH1 0x20 DUP3 ADD MSTORE POP JUMP JUMPDEST PUSH32 0x4552433732313A20617070726F766520746F2063616C6C657200000000000000 PUSH1 0x0 DUP3 ADD MSTORE POP JUMP JUMPDEST PUSH32 0x546F6B656E20494420646F6573206E6F74206578697374000000000000000000 PUSH1 0x0 DUP3 ADD MSTORE POP JUMP JUMPDEST PUSH32 0x546F6B656E20646F6573206E6F74206578697374000000000000000000000000 PUSH1 0x0 DUP3 ADD MSTORE POP JUMP JUMPDEST PUSH32 0x4552433732313A206F70657261746F7220717565727920666F72206E6F6E6578 PUSH1 0x0 DUP3 ADD MSTORE PUSH32 0x697374656E7420746F6B656E0000000000000000000000000000000000000000 PUSH1 0x20 DUP3 ADD MSTORE POP JUMP JUMPDEST PUSH32 0x546F6B656E206E6565647320686F73706974616C000000000000000000000000 PUSH1 0x0 DUP3 ADD MSTORE POP JUMP JUMPDEST PUSH32 0x496E76616C696420746F6B656E20494473000000000000000000000000000000 PUSH1 0x0 DUP3 ADD MSTORE POP JUMP JUMPDEST PUSH32 0x4E6565642074776F2073657061726174652067656E64657220746F6B656E7320 PUSH1 0x0 DUP3 ADD MSTORE PUSH32 0x746F206D61746500000000000000000000000000000000000000000000000000 PUSH1 0x20 DUP3 ADD MSTORE POP JUMP JUMPDEST PUSH32 0x4552433732313A20617070726F76652063616C6C6572206973206E6F74206F77 PUSH1 0x0 DUP3 ADD MSTORE PUSH32 0x6E6572206E6F7220617070726F76656420666F7220616C6C0000000000000000 PUSH1 0x20 DUP3 ADD MSTORE POP JUMP JUMPDEST PUSH32 0x4552433732313A2062616C616E636520717565727920666F7220746865207A65 PUSH1 0x0 DUP3 ADD MSTORE PUSH32 0x726F206164647265737300000000000000000000000000000000000000000000 PUSH1 0x20 DUP3 ADD MSTORE POP JUMP JUMPDEST PUSH32 0x4E6F206D6F7265206D616C65732063616E206265206D696E7465640000000000 PUSH1 0x0 DUP3 ADD MSTORE POP JUMP JUMPDEST PUSH32 0x4552433732313A206F776E657220717565727920666F72206E6F6E6578697374 PUSH1 0x0 DUP3 ADD MSTORE PUSH32 0x656E7420746F6B656E0000000000000000000000000000000000000000000000 PUSH1 0x20 DUP3 ADD MSTORE POP JUMP JUMPDEST PUSH32 0x496E76616C696420746574686572656420746F6B656E00000000000000000000 PUSH1 0x0 DUP3 ADD MSTORE POP JUMP JUMPDEST PUSH32 0x596F7520646F206E6F74206861766520656E6F756768207761676520746F6B65 PUSH1 0x0 DUP3 ADD MSTORE PUSH32 0x6E7320746F20666565642074686520706C617965720000000000000000000000 PUSH1 0x20 DUP3 ADD MSTORE POP JUMP JUMPDEST PUSH32 0x4F6E6C79206164756C74732063616E206265206D617465640000000000000000 PUSH1 0x0 DUP3 ADD MSTORE POP JUMP JUMPDEST PUSH32 0x4552433732313A206D696E7420746F20746865207A65726F2061646472657373 PUSH1 0x0 DUP3 ADD MSTORE POP JUMP JUMPDEST PUSH32 0x4552433732313A20617070726F76656420717565727920666F72206E6F6E6578 PUSH1 0x0 DUP3 ADD MSTORE PUSH32 0x697374656E7420746F6B656E0000000000000000000000000000000000000000 PUSH1 0x20 DUP3 ADD MSTORE POP JUMP JUMPDEST PUSH32 0x4F776E61626C653A2063616C6C6572206973206E6F7420746865206F776E6572 PUSH1 0x0 DUP3 ADD MSTORE POP JUMP JUMPDEST PUSH32 0x416C6C6F77207468697320636F6E7472616374206174206C6561737420323020 PUSH1 0x0 DUP3 ADD MSTORE PUSH32 0x746F6B656E730000000000000000000000000000000000000000000000000000 PUSH1 0x20 DUP3 ADD MSTORE POP JUMP JUMPDEST PUSH32 0x4552433732313A207472616E73666572206F6620746F6B656E20746861742069 PUSH1 0x0 DUP3 ADD MSTORE PUSH32 0x73206E6F74206F776E0000000000000000000000000000000000000000000000 PUSH1 0x20 DUP3 ADD MSTORE POP JUMP JUMPDEST PUSH32 0x4552433732313A20617070726F76616C20746F2063757272656E74206F776E65 PUSH1 0x0 DUP3 ADD MSTORE PUSH32 0x7200000000000000000000000000000000000000000000000000000000000000 PUSH1 0x20 DUP3 ADD MSTORE POP JUMP JUMPDEST PUSH32 0x4552433732313A207472616E736665722063616C6C6572206973206E6F74206F PUSH1 0x0 DUP3 ADD MSTORE PUSH32 0x776E6572206E6F7220617070726F766564000000000000000000000000000000 PUSH1 0x20 DUP3 ADD MSTORE POP JUMP JUMPDEST PUSH32 0x506C6179657273206E6565642031302064617920636F6F6C20646F776E206166 PUSH1 0x0 DUP3 ADD MSTORE PUSH32 0x746572206D6174696E6700000000000000000000000000000000000000000000 PUSH1 0x20 DUP3 ADD MSTORE POP JUMP JUMPDEST PUSH32 0x455243373231456E756D657261626C653A20676C6F62616C20696E646578206F PUSH1 0x0 DUP3 ADD MSTORE PUSH32 0x7574206F6620626F756E64730000000000000000000000000000000000000000 PUSH1 0x20 DUP3 ADD MSTORE POP JUMP JUMPDEST PUSH32 0x496E76616C696420616D6F756E74207061696400000000000000000000000000 PUSH1 0x0 DUP3 ADD MSTORE POP JUMP JUMPDEST PUSH32 0x546F6B656E206E6565647320746F206F6E6C7920626520666564000000000000 PUSH1 0x0 DUP3 ADD MSTORE POP JUMP JUMPDEST PUSH2 0x5862 DUP2 PUSH2 0x4D7B JUMP JUMPDEST DUP2 EQ PUSH2 0x586D JUMPI PUSH1 0x0 DUP1 REVERT JUMPDEST POP JUMP JUMPDEST PUSH2 0x5879 DUP2 PUSH2 0x4D8D JUMP JUMPDEST DUP2 EQ PUSH2 0x5884 JUMPI PUSH1 0x0 DUP1 REVERT JUMPDEST POP JUMP JUMPDEST PUSH2 0x5890 DUP2 PUSH2 0x4D99 JUMP JUMPDEST DUP2 EQ PUSH2 0x589B JUMPI PUSH1 0x0 DUP1 REVERT JUMPDEST POP JUMP JUMPDEST PUSH2 0x58A7 DUP2 PUSH2 0x4DC5 JUMP JUMPDEST DUP2 EQ PUSH2 0x58B2 JUMPI PUSH1 0x0 DUP1 REVERT JUMPDEST POP JUMP JUMPDEST PUSH2 0x58BE DUP2 PUSH2 0x4DEF JUMP JUMPDEST DUP2 EQ PUSH2 0x58C9 JUMPI PUSH1 0x0 DUP1 REVERT JUMPDEST POP JUMP INVALID LOG2 PUSH5 0x6970667358 0x22 SLT KECCAK256 CHAINID SWAP9 PUSH12 0xC9747727C911C0DEB1448CEE SWAP7 0x27 CREATE2 0x4F SWAP15 0x49 0x4F PUSH9 0x252E89018E7148A54C PUSH5 0x736F6C6343 STOP ADDMOD SMOD STOP CALLER "
		},
		"gasEstimates": {
			"creation": {
				"codeDepositCost": "4557200",
				"executionCost": "infinite",
				"totalCost": "infinite"
			},
			"external": {
				"FEMALE_SUPPLY()": "418",
				"MALE_SUPPLY()": "374",
				"MINT_PRICE()": "418",
				"approve(address,uint256)": "infinite",
				"balanceOf(address)": "2924",
				"feedCharacter(uint256)": "infinite",
				"getApproved(uint256)": "5251",
				"getPlayerInfo(uint256)": "infinite",
				"getTokensMinted()": "infinite",
				"hospital(uint256)": "infinite",
				"isApprovedForAll(address,address)": "infinite",
				"mate(uint256,uint256)": "infinite",
				"mint(bool,uint256)": "infinite",
				"name()": "infinite",
				"owner()": "2633",
				"ownerOf(uint256)": "3067",
				"renounceOwnership()": "30441",
				"safeTransferFrom(address,address,uint256)": "infinite",
				"safeTransferFrom(address,address,uint256,bytes)": "infinite",
				"setApprovalForAll(address,bool)": "infinite",
				"supportsInterface(bytes4)": "909",
				"symbol()": "infinite",
				"tokenByIndex(uint256)": "infinite",
				"tokenOfOwnerByIndex(address,uint256)": "infinite",
				"tokenURI(uint256)": "infinite",
				"totalSupply()": "2513",
				"transferFrom(address,address,uint256)": "infinite",
				"transferOwnership(address)": "30833"
			},
			"internal": {
				"vrf()": "infinite"
			}
		},
		"methodIdentifiers": {
			"FEMALE_SUPPLY()": "889d92e7",
			"MALE_SUPPLY()": "ae64c2cf",
			"MINT_PRICE()": "c002d23d",
			"approve(address,uint256)": "095ea7b3",
			"balanceOf(address)": "70a08231",
			"feedCharacter(uint256)": "e9ace648",
			"getApproved(uint256)": "081812fc",
			"getPlayerInfo(uint256)": "ea17532e",
			"getTokensMinted()": "d69f6bae",
			"hospital(uint256)": "dca06da7",
			"isApprovedForAll(address,address)": "e985e9c5",
			"mate(uint256,uint256)": "9c3f5237",
			"mint(bool,uint256)": "dfefc776",
			"name()": "06fdde03",
			"owner()": "8da5cb5b",
			"ownerOf(uint256)": "6352211e",
			"renounceOwnership()": "715018a6",
			"safeTransferFrom(address,address,uint256)": "42842e0e",
			"safeTransferFrom(address,address,uint256,bytes)": "b88d4fde",
			"setApprovalForAll(address,bool)": "a22cb465",
			"supportsInterface(bytes4)": "01ffc9a7",
			"symbol()": "95d89b41",
			"tokenByIndex(uint256)": "4f6ccce7",
			"tokenOfOwnerByIndex(address,uint256)": "2f745c59",
			"tokenURI(uint256)": "c87b56dd",
			"totalSupply()": "18160ddd",
			"transferFrom(address,address,uint256)": "23b872dd",
			"transferOwnership(address)": "f2fde38b"
		}
	},
	"abi": [
		{
			"inputs": [
				{
					"internalType": "address",
					"name": "regAddress",
					"type": "address"
				},
				{
					"internalType": "address",
					"name": "wageAddress",
					"type": "address"
				}
			],
			"stateMutability": "nonpayable",
			"type": "constructor"
		},
		{
			"anonymous": false,
			"inputs": [
				{
					"indexed": true,
					"internalType": "address",
					"name": "owner",
					"type": "address"
				},
				{
					"indexed": true,
					"internalType": "address",
					"name": "approved",
					"type": "address"
				},
				{
					"indexed": true,
					"internalType": "uint256",
					"name": "tokenId",
					"type": "uint256"
				}
			],
			"name": "Approval",
			"type": "event"
		},
		{
			"anonymous": false,
			"inputs": [
				{
					"indexed": true,
					"internalType": "address",
					"name": "owner",
					"type": "address"
				},
				{
					"indexed": true,
					"internalType": "address",
					"name": "operator",
					"type": "address"
				},
				{
					"indexed": false,
					"internalType": "bool",
					"name": "approved",
					"type": "bool"
				}
			],
			"name": "ApprovalForAll",
			"type": "event"
		},
		{
			"anonymous": false,
			"inputs": [
				{
					"indexed": true,
					"internalType": "address",
					"name": "previousOwner",
					"type": "address"
				},
				{
					"indexed": true,
					"internalType": "address",
					"name": "newOwner",
					"type": "address"
				}
			],
			"name": "OwnershipTransferred",
			"type": "event"
		},
		{
			"anonymous": false,
			"inputs": [
				{
					"indexed": true,
					"internalType": "address",
					"name": "from",
					"type": "address"
				},
				{
					"indexed": true,
					"internalType": "address",
					"name": "to",
					"type": "address"
				},
				{
					"indexed": true,
					"internalType": "uint256",
					"name": "tokenId",
					"type": "uint256"
				}
			],
			"name": "Transfer",
			"type": "event"
		},
		{
			"anonymous": false,
			"inputs": [
				{
					"indexed": true,
					"internalType": "uint256",
					"name": "tokenId",
					"type": "uint256"
				},
				{
					"indexed": true,
					"internalType": "address",
					"name": "buyer",
					"type": "address"
				},
				{
					"components": [
						{
							"internalType": "bool",
							"name": "isMale",
							"type": "bool"
						},
						{
							"internalType": "uint256",
							"name": "tetheredToken",
							"type": "uint256"
						},
						{
							"internalType": "int256",
							"name": "tokenBaseline",
							"type": "int256"
						},
						{
							"internalType": "uint256",
							"name": "birthDate",
							"type": "uint256"
						},
						{
							"internalType": "uint256",
							"name": "lastMate",
							"type": "uint256"
						},
						{
							"internalType": "uint256",
							"name": "lastFed",
							"type": "uint256"
						}
					],
					"indexed": false,
					"internalType": "struct Character.playerInfo",
					"name": "Info",
					"type": "tuple"
				}
			],
			"name": "playerBorn",
			"type": "event"
		},
		{
			"anonymous": false,
			"inputs": [
				{
					"indexed": true,
					"internalType": "uint256",
					"name": "tokenId",
					"type": "uint256"
				},
				{
					"indexed": true,
					"internalType": "address",
					"name": "buyer",
					"type": "address"
				},
				{
					"components": [
						{
							"internalType": "bool",
							"name": "isMale",
							"type": "bool"
						},
						{
							"internalType": "uint256",
							"name": "tetheredToken",
							"type": "uint256"
						},
						{
							"internalType": "int256",
							"name": "tokenBaseline",
							"type": "int256"
						},
						{
							"internalType": "uint256",
							"name": "birthDate",
							"type": "uint256"
						},
						{
							"internalType": "uint256",
							"name": "lastMate",
							"type": "uint256"
						},
						{
							"internalType": "uint256",
							"name": "lastFed",
							"type": "uint256"
						}
					],
					"indexed": false,
					"internalType": "struct Character.playerInfo",
					"name": "Info",
					"type": "tuple"
				}
			],
			"name": "playerBought",
			"type": "event"
		},
		{
			"anonymous": false,
			"inputs": [
				{
					"indexed": true,
					"internalType": "uint256",
					"name": "tokenId",
					"type": "uint256"
				},
				{
					"indexed": true,
					"internalType": "address",
					"name": "owner",
					"type": "address"
				},
				{
					"components": [
						{
							"internalType": "bool",
							"name": "isMale",
							"type": "bool"
						},
						{
							"internalType": "uint256",
							"name": "tetheredToken",
							"type": "uint256"
						},
						{
							"internalType": "int256",
							"name": "tokenBaseline",
							"type": "int256"
						},
						{
							"internalType": "uint256",
							"name": "birthDate",
							"type": "uint256"
						},
						{
							"internalType": "uint256",
							"name": "lastMate",
							"type": "uint256"
						},
						{
							"internalType": "uint256",
							"name": "lastFed",
							"type": "uint256"
						}
					],
					"indexed": false,
					"internalType": "struct Character.playerInfo",
					"name": "Info",
					"type": "tuple"
				}
			],
			"name": "playerFed",
			"type": "event"
		},
		{
			"anonymous": false,
			"inputs": [
				{
					"indexed": true,
					"internalType": "uint256",
					"name": "tokenId",
					"type": "uint256"
				},
				{
					"indexed": true,
					"internalType": "address",
					"name": "owner",
					"type": "address"
				},
				{
					"components": [
						{
							"internalType": "bool",
							"name": "isMale",
							"type": "bool"
						},
						{
							"internalType": "uint256",
							"name": "tetheredToken",
							"type": "uint256"
						},
						{
							"internalType": "int256",
							"name": "tokenBaseline",
							"type": "int256"
						},
						{
							"internalType": "uint256",
							"name": "birthDate",
							"type": "uint256"
						},
						{
							"internalType": "uint256",
							"name": "lastMate",
							"type": "uint256"
						},
						{
							"internalType": "uint256",
							"name": "lastFed",
							"type": "uint256"
						}
					],
					"indexed": false,
					"internalType": "struct Character.playerInfo",
					"name": "Info",
					"type": "tuple"
				}
			],
			"name": "playerHealed",
			"type": "event"
		},
		{
			"inputs": [],
			"name": "FEMALE_SUPPLY",
			"outputs": [
				{
					"internalType": "uint256",
					"name": "",
					"type": "uint256"
				}
			],
			"stateMutability": "view",
			"type": "function"
		},
		{
			"inputs": [],
			"name": "MALE_SUPPLY",
			"outputs": [
				{
					"internalType": "uint256",
					"name": "",
					"type": "uint256"
				}
			],
			"stateMutability": "view",
			"type": "function"
		},
		{
			"inputs": [],
			"name": "MINT_PRICE",
			"outputs": [
				{
					"internalType": "uint256",
					"name": "",
					"type": "uint256"
				}
			],
			"stateMutability": "view",
			"type": "function"
		},
		{
			"inputs": [
				{
					"internalType": "address",
					"name": "to",
					"type": "address"
				},
				{
					"internalType": "uint256",
					"name": "tokenId",
					"type": "uint256"
				}
			],
			"name": "approve",
			"outputs": [],
			"stateMutability": "nonpayable",
			"type": "function"
		},
		{
			"inputs": [
				{
					"internalType": "address",
					"name": "owner",
					"type": "address"
				}
			],
			"name": "balanceOf",
			"outputs": [
				{
					"internalType": "uint256",
					"name": "",
					"type": "uint256"
				}
			],
			"stateMutability": "view",
			"type": "function"
		},
		{
			"inputs": [
				{
					"internalType": "uint256",
					"name": "tokenId",
					"type": "uint256"
				}
			],
			"name": "feedCharacter",
			"outputs": [],
			"stateMutability": "nonpayable",
			"type": "function"
		},
		{
			"inputs": [
				{
					"internalType": "uint256",
					"name": "tokenId",
					"type": "uint256"
				}
			],
			"name": "getApproved",
			"outputs": [
				{
					"internalType": "address",
					"name": "",
					"type": "address"
				}
			],
			"stateMutability": "view",
			"type": "function"
		},
		{
			"inputs": [
				{
					"internalType": "uint256",
					"name": "tokenId",
					"type": "uint256"
				}
			],
			"name": "getPlayerInfo",
			"outputs": [
				{
					"components": [
						{
							"internalType": "bool",
							"name": "isMale",
							"type": "bool"
						},
						{
							"internalType": "uint256",
							"name": "tetheredToken",
							"type": "uint256"
						},
						{
							"internalType": "int256",
							"name": "tokenBaseline",
							"type": "int256"
						},
						{
							"internalType": "uint256",
							"name": "birthDate",
							"type": "uint256"
						},
						{
							"internalType": "uint256",
							"name": "lastMate",
							"type": "uint256"
						},
						{
							"internalType": "uint256",
							"name": "lastFed",
							"type": "uint256"
						}
					],
					"internalType": "struct Character.playerInfo",
					"name": "",
					"type": "tuple"
				}
			],
			"stateMutability": "view",
			"type": "function"
		},
		{
			"inputs": [],
			"name": "getTokensMinted",
			"outputs": [
				{
					"internalType": "uint256",
					"name": "",
					"type": "uint256"
				},
				{
					"internalType": "uint256",
					"name": "",
					"type": "uint256"
				}
			],
			"stateMutability": "view",
			"type": "function"
		},
		{
			"inputs": [
				{
					"internalType": "uint256",
					"name": "tokenId",
					"type": "uint256"
				}
			],
			"name": "hospital",
			"outputs": [],
			"stateMutability": "nonpayable",
			"type": "function"
		},
		{
			"inputs": [
				{
					"internalType": "address",
					"name": "owner",
					"type": "address"
				},
				{
					"internalType": "address",
					"name": "operator",
					"type": "address"
				}
			],
			"name": "isApprovedForAll",
			"outputs": [
				{
					"internalType": "bool",
					"name": "",
					"type": "bool"
				}
			],
			"stateMutability": "view",
			"type": "function"
		},
		{
			"inputs": [
				{
					"internalType": "uint256",
					"name": "tokenId1",
					"type": "uint256"
				},
				{
					"internalType": "uint256",
					"name": "tokenId2",
					"type": "uint256"
				}
			],
			"name": "mate",
			"outputs": [
				{
					"components": [
						{
							"internalType": "bool",
							"name": "isMale",
							"type": "bool"
						},
						{
							"internalType": "uint256",
							"name": "tetheredToken",
							"type": "uint256"
						},
						{
							"internalType": "int256",
							"name": "tokenBaseline",
							"type": "int256"
						},
						{
							"internalType": "uint256",
							"name": "birthDate",
							"type": "uint256"
						},
						{
							"internalType": "uint256",
							"name": "lastMate",
							"type": "uint256"
						},
						{
							"internalType": "uint256",
							"name": "lastFed",
							"type": "uint256"
						}
					],
					"internalType": "struct Character.playerInfo",
					"name": "",
					"type": "tuple"
				}
			],
			"stateMutability": "nonpayable",
			"type": "function"
		},
		{
			"inputs": [
				{
					"internalType": "bool",
					"name": "isMale",
					"type": "bool"
				},
				{
					"internalType": "uint256",
					"name": "tetheredToken",
					"type": "uint256"
				}
			],
			"name": "mint",
			"outputs": [
				{
					"components": [
						{
							"internalType": "bool",
							"name": "isMale",
							"type": "bool"
						},
						{
							"internalType": "uint256",
							"name": "tetheredToken",
							"type": "uint256"
						},
						{
							"internalType": "int256",
							"name": "tokenBaseline",
							"type": "int256"
						},
						{
							"internalType": "uint256",
							"name": "birthDate",
							"type": "uint256"
						},
						{
							"internalType": "uint256",
							"name": "lastMate",
							"type": "uint256"
						},
						{
							"internalType": "uint256",
							"name": "lastFed",
							"type": "uint256"
						}
					],
					"internalType": "struct Character.playerInfo",
					"name": "",
					"type": "tuple"
				}
			],
			"stateMutability": "payable",
			"type": "function"
		},
		{
			"inputs": [],
			"name": "name",
			"outputs": [
				{
					"internalType": "string",
					"name": "",
					"type": "string"
				}
			],
			"stateMutability": "view",
			"type": "function"
		},
		{
			"inputs": [],
			"name": "owner",
			"outputs": [
				{
					"internalType": "address",
					"name": "",
					"type": "address"
				}
			],
			"stateMutability": "view",
			"type": "function"
		},
		{
			"inputs": [
				{
					"internalType": "uint256",
					"name": "tokenId",
					"type": "uint256"
				}
			],
			"name": "ownerOf",
			"outputs": [
				{
					"internalType": "address",
					"name": "",
					"type": "address"
				}
			],
			"stateMutability": "view",
			"type": "function"
		},
		{
			"inputs": [],
			"name": "renounceOwnership",
			"outputs": [],
			"stateMutability": "nonpayable",
			"type": "function"
		},
		{
			"inputs": [
				{
					"internalType": "address",
					"name": "from",
					"type": "address"
				},
				{
					"internalType": "address",
					"name": "to",
					"type": "address"
				},
				{
					"internalType": "uint256",
					"name": "tokenId",
					"type": "uint256"
				}
			],
			"name": "safeTransferFrom",
			"outputs": [],
			"stateMutability": "nonpayable",
			"type": "function"
		},
		{
			"inputs": [
				{
					"internalType": "address",
					"name": "from",
					"type": "address"
				},
				{
					"internalType": "address",
					"name": "to",
					"type": "address"
				},
				{
					"internalType": "uint256",
					"name": "tokenId",
					"type": "uint256"
				},
				{
					"internalType": "bytes",
					"name": "_data",
					"type": "bytes"
				}
			],
			"name": "safeTransferFrom",
			"outputs": [],
			"stateMutability": "nonpayable",
			"type": "function"
		},
		{
			"inputs": [
				{
					"internalType": "address",
					"name": "operator",
					"type": "address"
				},
				{
					"internalType": "bool",
					"name": "approved",
					"type": "bool"
				}
			],
			"name": "setApprovalForAll",
			"outputs": [],
			"stateMutability": "nonpayable",
			"type": "function"
		},
		{
			"inputs": [
				{
					"internalType": "bytes4",
					"name": "interfaceId",
					"type": "bytes4"
				}
			],
			"name": "supportsInterface",
			"outputs": [
				{
					"internalType": "bool",
					"name": "",
					"type": "bool"
				}
			],
			"stateMutability": "view",
			"type": "function"
		},
		{
			"inputs": [],
			"name": "symbol",
			"outputs": [
				{
					"internalType": "string",
					"name": "",
					"type": "string"
				}
			],
			"stateMutability": "view",
			"type": "function"
		},
		{
			"inputs": [
				{
					"internalType": "uint256",
					"name": "index",
					"type": "uint256"
				}
			],
			"name": "tokenByIndex",
			"outputs": [
				{
					"internalType": "uint256",
					"name": "",
					"type": "uint256"
				}
			],
			"stateMutability": "view",
			"type": "function"
		},
		{
			"inputs": [
				{
					"internalType": "address",
					"name": "owner",
					"type": "address"
				},
				{
					"internalType": "uint256",
					"name": "index",
					"type": "uint256"
				}
			],
			"name": "tokenOfOwnerByIndex",
			"outputs": [
				{
					"internalType": "uint256",
					"name": "",
					"type": "uint256"
				}
			],
			"stateMutability": "view",
			"type": "function"
		},
		{
			"inputs": [
				{
					"internalType": "uint256",
					"name": "tokenId",
					"type": "uint256"
				}
			],
			"name": "tokenURI",
			"outputs": [
				{
					"internalType": "string",
					"name": "",
					"type": "string"
				}
			],
			"stateMutability": "view",
			"type": "function"
		},
		{
			"inputs": [],
			"name": "totalSupply",
			"outputs": [
				{
					"internalType": "uint256",
					"name": "",
					"type": "uint256"
				}
			],
			"stateMutability": "view",
			"type": "function"
		},
		{
			"inputs": [
				{
					"internalType": "address",
					"name": "from",
					"type": "address"
				},
				{
					"internalType": "address",
					"name": "to",
					"type": "address"
				},
				{
					"internalType": "uint256",
					"name": "tokenId",
					"type": "uint256"
				}
			],
			"name": "transferFrom",
			"outputs": [],
			"stateMutability": "nonpayable",
			"type": "function"
		},
		{
			"inputs": [
				{
					"internalType": "address",
					"name": "newOwner",
					"type": "address"
				}
			],
			"name": "transferOwnership",
			"outputs": [],
			"stateMutability": "nonpayable",
			"type": "function"
		}
	]
}